:020000040800F2
:1000000000000320350F00081130000813300008ED
:1000100015300008173000081930000800000000F3
:1000200000000000000000000000000041EB00089C
:100030001B30000800000000D1EB00085BE4000862
:10004000850F0008850F0008850F0008850F000840
:10005000850F0008850F0008850F0008850F000830
:10006000850F0008850F0008850F0008850F000820
:10007000850F0008850F0008850F0008850F000810
:10008000850F0008850F0008850F0008850F000800
:10009000850F0008850F0008850F0008850F0008F0
:1000A000850F0008850F0008850F0008850F0008E0
:1000B000850F0008850F0008850F0008850F0008D0
:1000C000850F0008850F0008850F0008850F0008C0
:1000D000850F0008850F0008850F0008850F0008B0
:1000E000850F0008850F0008850F0008850F0008A0
:1000F000850F0008850F0008850F0008850F000890
:10010000850F0008850F0008850F0008850F00087F
:10011000850F0008850F00081D300008850F0008B6
:10012000850F0008850F0008850F0008850F00085F
:10013000850F0008850F0008850F0008850F00084F
:10014000850F0008850F0008850F0008850F00083F
:10015000850F0008850F0008850F0008850F00082F
:10016000850F0008850F0008850F0008850F00081F
:10017000850F0008850F0008850F000800000000AB
:10018000850F0008850F0008850F0008850F0008FF
:10019000850F0008850F0008850F0008850F0008EF
:0C01A00029300008850F000835300008E9
:1001B00010B5054C237833B9044B13B10448AFF3A1
:1001C00000800123237010BD6003002000000000A8
:1001D000E8CB020808B5034B1BB103490348AFF352
:1001E000008008BD0000000064030020E8CB020886
:1001F00001F0FF01102A2BDB10F0070F08D010F8D8
:10020000013B013A8B422DD010F0070F42B3F6D1DB
:10021000F0B441EA012141EA014122F007047FF0F4
:1002200000070023F0E80256083C85EA010586EA4B
:10023000010685FA47F5A3FA87F586FA47F6A5FA87
:1002400087F68EB9EED1F0BC01F0FF0102F0070293
:1002500032B110F8013B013A83EA010313B1F8D13E
:100260000020704701387047002D06BF354603381F
:10027000073815F0010F07D1013015F4807F02BF58
:10028000013015F4C03F0130F0BC0138704700BFA9
:1002900081F0004102E000BF83F0004330B54FEA37
:1002A00041044FEA430594EA050F08BF90EA020FA4
:1002B0001FBF54EA000C55EA020C7FEA645C7FEA37
:1002C000655C00F0E2804FEA5454D4EB5555B8BF5A
:1002D0006D420CDD2C4480EA020281EA030382EACB
:1002E000000083EA010180EA020281EA0303362D5D
:1002F00088BF30BD11F0004F4FEA01314FF4801C30
:100300004CEA113102D0404261EB410113F0004F41
:100310004FEA03334CEA133302D0524263EB4303F8
:1003200094EA050F00F0A780A4F10104D5F1200E96
:100330000DDB02FA0EFC22FA05F2801841F10001F1
:1003400003FA0EF2801843FA05F359410EE0A5F1C5
:1003500020050EF1200E012A03FA0EFC28BF4CF0F6
:10036000020C43FA05F3C01851EBE37101F00045AC
:1003700007D54FF0000EDCF1000C7EEB00006EEBB9
:100380000101B1F5801F1BD3B1F5001F0CD3490843
:100390005FEA30004FEA3C0C04F101044FEA44529A
:1003A00012F5800F80F09A80BCF1004F08BF5FEA21
:1003B000500C50F1000041EB045141EA050130BD01
:1003C0005FEA4C0C404141EB0101013C28BFB1F513
:1003D000801FE9D291F0000F04BF01460020B1FA5E
:1003E00081F308BF2033A3F10B03B3F120020CDA31
:1003F0000C3208DD02F1140CC2F10C0201FA0CF00F
:1004000021FA02F10CE002F11402D8BFC2F1200C73
:1004100001FA02F120FA0CFCDCBF41EA0C01904029
:10042000E41AA2BF01EB0451294330BD6FEA040472
:100430001F3C1CDA0C340EDC04F11404C4F120025D
:1004400020FA04F001FA02F340EA030021FA04F36F
:1004500045EA030130BDC4F10C04C4F1200220FAC6
:1004600002F001FA04F340EA0300294630BD21FA04
:1004700004F0294630BD94F0000F83F4801306BFCA
:1004800081F480110134013D4EE77FEA645C18BFBE
:100490007FEA655C29D094EA050F08BF90EA020F55
:1004A00005D054EA000C04BF1946104630BD91EA4D
:1004B000030F1EBF0021002030BD5FEA545C05D150
:1004C0004000494128BF41F0004130BD14F580048F
:1004D0003CBF01F5801130BD01F0004545F0FE4103
:1004E00041F470014FF0000030BD7FEA645C1ABF38
:1004F000194610467FEA655C1CBF0B46024650EA6F
:10050000013406BF52EA033591EA030F41F400219A
:1005100030BD00BF90F0000F04BF0021704730B520
:100520004FF4806404F132044FF000054FF00001F5
:1005300050E700BF90F0000F04BF0021704730B5B6
:100540004FF4806404F1320410F0004548BF40428B
:100550004FF000013EE700BF42004FEAE2014FEAE0
:1005600031014FEA02701FBF12F07F4393F07F4FBB
:1005700081F06051704732F07F4208BF704793F0BE
:100580007F4F04BF41F40021704730B54FF46074D1
:1005900001F0004521F000411CE700BF50EA0102D4
:1005A00008BF704730B54FF000050AE050EA01027D
:1005B00008BF704730B511F0004502D5404261EBED
:1005C00041014FF4806404F132045FEA915C3FF42E
:1005D000D8AE4FF003025FEADC0C18BF03325FEACB
:1005E000DC0C18BF033202EBDC02C2F1200300FA7C
:1005F00003FC20FA02F001FA03FE40EA0E0021FAA1
:1006000002F11444BDE600BF70B54FF0FF0C4CF48E
:10061000E06C1CEA11541DBF1CEA135594EA0C0F40
:1006200095EA0C0F00F0DEF82C4481EA030621EA7B
:100630004C5123EA4C5350EA013518BF52EA0335B6
:1006400041F4801143F4801338D0A0FB02CE4FF068
:100650000005E1FB02E506F00042E0FB03E54FF098
:100660000006E1FB03569CF0000F18BF4EF0010E90
:10067000A4F1FF04B6F5007F64F5407404D25FEA8C
:100680004E0E6D4146EB060642EAC62141EA55513F
:100690004FEAC52040EA5E504FEACE2EB4F1FD0C81
:1006A00088BFBCF5E06F1ED8BEF1004F08BF5FEAFF
:1006B000500E50F1000041EB045170BD06F00046B1
:1006C00046EA010140EA020081EA0301B4EB5C045E
:1006D000C2BFD4EB0C0541EA045170BD41F4801156
:1006E0004FF0000E013C00F3AB8014F1360FDEBF7B
:1006F000002001F0004170BDC4F10004203C35DA57
:100700000C341BDC04F11404C4F1200500FA05F3D9
:1007100020FA04F001FA05F240EA020001F000427A
:1007200021F0004110EBD37021FA04F642EB0601F0
:100730005EEA430E08BF20EAD37070BDC4F10C041A
:10074000C4F1200500FA04F320FA05F001FA04F2DE
:1007500040EA020001F0004110EBD37041F10001CA
:100760005EEA430E08BF20EAD37070BDC4F12005D5
:1007700000FA05F24EEA020E20FA04F301FA05F23D
:1007800043EA020321FA04F001F0004121FA04F2E5
:1007900020EA020000EBD3705EEA430E08BF20EAB5
:1007A000D37070BD94F0000F0FD101F000464000EF
:1007B00041EB010111F4801F08BF013CF7D041EA71
:1007C000060195F0000F18BF704703F00046520075
:1007D00043EB030313F4801F08BF013DF7D043EA46
:1007E0000603704794EA0C0F0CEA135518BF95EAFC
:1007F0000C0F0CD050EA410618BF52EA4306D1D183
:1008000081EA030101F000414FF0000070BD50EAA1
:10081000410606BF1046194652EA430619D094EA2B
:100820000C0F02D150EA013613D195EA0C0F05D115
:1008300052EA03361CBF104619460AD181EA030169
:1008400001F0004141F0FE4141F470014FF0000021
:1008500070BD41F0FE4141F4780170BD70B54FF0BC
:10086000FF0C4CF4E06C1CEA11541DBF1CEA13553C
:1008700094EA0C0F95EA0C0F00F0A7F8A4EB05041E
:1008800081EA030E52EA03354FEA013100F0888015
:100890004FEA03334FF0805545EA131343EA1263DE
:1008A0004FEA022245EA111545EA10654FEA002693
:1008B0000EF000419D4208BF964244F1FD0404F54C
:1008C000407402D25B084FEA3202B61A65EB0305A8
:1008D0005B084FEA32024FF480104FF4002CB6EB65
:1008E000020E75EB030E22BFB61A754640EA0C00E5
:1008F0005B084FEA3202B6EB020E75EB030E22BF25
:10090000B61A754640EA5C005B084FEA3202B6EB65
:10091000020E75EB030E22BFB61A754640EA9C0024
:100920005B084FEA3202B6EB020E75EB030E22BFF4
:10093000B61A754640EADC0055EA060E18D04FEAB2
:10094000051545EA16754FEA06164FEAC30343EA52
:1009500052734FEAC2025FEA1C1CC0D111F4801F1F
:100960000BD141EA00014FF000004FF0004CB6E718
:1009700011F4801F04BF01430020B4F1FD0C88BFB7
:10098000BCF5E06F3FF6AFAEB5EB030C04BFB6EBC2
:10099000020C5FEA500C50F1000041EB045170BDB5
:1009A0000EF0004E4EEA113114EB5C04C2BFD4EBE2
:1009B0000C0541EA045170BD41F480114FF0000E66
:1009C000013C90E645EA060E8DE60CEA135594EAE2
:1009D0000C0F08BF95EA0C0F3FF43BAF94EA0C0FE5
:1009E0000AD150EA01347FF434AF95EA0C0F7FF45A
:1009F00025AF104619462CE795EA0C0F06D152EAAE
:100A000003353FF4FDAE1046194622E750EA410691
:100A100018BF52EA43067FF4C5AE50EA41047FF4A2
:100A20000DAF52EA43057FF4EBAE12E74FF0FF3C07
:100A300006E000BF4FF0010C02E000BF4FF0010CD8
:100A40004DF804CD4FEA410C7FEA6C5C4FEA430C51
:100A500018BF7FEA6C5C1BD001B050EA410C0CBFA0
:100A600052EA430C91EA030F02BF90EA020F002002
:100A7000704710F1000F91EA030F58BF994208BF69
:100A800090422CBFD8176FEAE37040F00100704726
:100A90004FEA410C7FEA6C5C02D150EA013C07D17D
:100AA0004FEA430C7FEA6C5CD6D152EA033CD3D0C8
:100AB0005DF8040B704700BF8446104662468C46C2
:100AC0001946634600E000BF01B5FFF7B7FF0028F5
:100AD00048BF10F1000F01BD4DF808EDFFF7F4FF1E
:100AE0000CBF012000205DF808FB00BF4DF808EDA9
:100AF000FFF7EAFF34BF012000205DF808FB00BFCC
:100B00004DF808EDFFF7E0FF94BF012000205DF8ED
:100B100008FB00BF4DF808EDFFF7CEFF94BF0120A2
:100B200000205DF808FB00BF4DF808EDFFF7C4FF9B
:100B300034BF012000205DF808FB00BF4FEA410CE4
:100B40007FEA6C5C02D150EA013C0AD14FEA430CC7
:100B50007FEA6C5C02D152EA033C02D14FF0000004
:100B600070474FF0010070474FEA4102B2F1E04395
:100B700024BFB3F5001CDCF1FE5C0DD901F0004C84
:100B80004FEAC0024CEA5070B2F1004F40EB8300D4
:100B900008BF20F00100704711F0804F21D113F100
:100BA0003872BCBF01F00040704741F480114FEA39
:100BB0005252C2F11802C2F1200C10FA0CF320FAC2
:100BC00002F018BF40F001004FEAC1234FEAD323DF
:100BD00003FA0CFC40EA0C0023FA02F34FEA430349
:100BE000CCE77FEA625307D150EA01331EBF4FF0D2
:100BF000FE4040F44000704701F0004040F0FE40ED
:100C000040F40000704700BF53B94AB9002908BF3B
:100C100000281CBF4FF0FF314FF0FF3000F088B9C3
:100C2000ADF1080C6DE904CE00F006F8DDF804E043
:100C3000DDE9022304B070472DE9F047089D0F4617
:100C400004468C46002B48D18A42164661D9B2FA36
:100C500082F34BB1C3F1200201FA03FC20FA02F245
:100C60009E4042EA0C0C9C404FEA164EB7B2BCFBC9
:100C7000FEF1220C0EFB11CC42EA0C4201FB07F004
:100C8000904209D9B21801F1FF3C80F0EE80904209
:100C900040F2EB8002393244121AA4B2B2FBFEF0E9
:100CA0000EFB102244EA024400FB07F7A74209D9D1
:100CB000341900F1FF3280F0DA80A74240F2D78089
:100CC0003444023840EA0140E41B00211DB1DC40FD
:100CD0000023C5E90043BDE8F0878B4206D90DB17A
:100CE000C5E9000100210846BDE8F087B3FA83F1A9
:100CF000002948D1BB4202D3824200F20781841A04
:100D000067EB030201209446002DE4D0C5E9004CB6
:100D1000E1E7002A00F09280B2FA82F3002B40F063
:100D2000A8808A1A4FEA164E1FFA86FC0121200C71
:100D3000B2FBFEF70EFB172240EA02420CFB07F063
:100D4000904207D9B21807F1FF3802D2904200F260
:100D5000E2804746121AA4B2B2FBFEF00EFB10224C
:100D600044EA02440CFB00FCA44507D9341900F105
:100D7000FF3202D2A44500F2CB801046A4EB0C0453
:100D800040EA0740A2E7C1F120068B4022FA06FCA8
:100D90004CEA030C07FA01F420FA06F3F7404FEA95
:100DA0001C49234300FA01F81FFA8CFEB7FBF9F047
:100DB0001C0C09FB107744EA074400FB0EF7A7421E
:100DC00002FA01F20AD91CEB040400F1FF3A80F0A8
:100DD0009B80A74240F2988002386444E41B9FB293
:100DE000B4FBF9F309FB134447EA044403FB0EFE8A
:100DF000A64509D91CEB040403F1FF3780F082807B
:100E0000A6457FD9023B644443EA0040A4EB0E04AC
:100E1000A0FB02E7BC427346B94663D360D05DB124
:100E2000B8EB030264EB090404FA06F622FA01F3B4
:100E30001E43CC40C5E9006400214CE76208480825
:100E400042EAC1710B0C43EA00438AB242EA034210
:100E5000B3FBF6F1E407B4463746B6461F23B0FBB2
:100E6000F6F0D21B41EA004161E7614614E7104603
:100E700028E7C3F1200120FA01F29E4027FA01F190
:100E80009F403A434FEA164E1FFA86FCB1FBFEF72D
:100E90000EFB1710110C41EA004107FB0CF88845C6
:100EA00004FA03F43AD9711807F1FF3001D28845EA
:100EB0001FD8A1EB0801B1FBFEF808FB0CF70EFBF5
:100EC000181192B242EA0142BA422FD2B21808F186
:100ED000FF31C6D2BA42C4D2A8F102013244C0E7FF
:100EE000F0459CD2BEEB020367EB0C070138B94614
:100EF00095E7A6EB08084144B81EB1FBFEF808FBD5
:100F00000CF7DCE73B467FE7504667E70846FBE621
:100F10003444023832E7023F32441BE7A1EB0801B8
:100F20003846B1FBFEF808FB0CF7C8E7414698E7E6
:100F3000704700BFDFF834D0002103E00C4B5B5852
:100F4000435004310B480C4B42189A42F6D30B4ADB
:100F500002E0002342F8043B094B9A42F9D30AF01D
:100F60002DFA2BF08DF801F0FFFA704700000320F6
:100F70009CFA0408000000206001002060030020AB
:100F8000D04C0120FEE7704708B500F0C9FDBDE870
:100F9000084000F047BD00F0C5BD704710B5042102
:100FA000044629F096FC204610BD000038B50C4BD5
:100FB0000C4C18800C4B822019806368984740F6CF
:100FC000110398420AD1094D23682C60822098476A
:100FD0002B688220DB689847002038BD0120FCE7A1
:100FE000860300204C00002084030020880300209A
:100FF0004FF4A071F020FFF7D9BF0000F7B52F4DD7
:101000002B6804461B69822098472080002844D022
:101010002B680DF106025B6901A982209847BDF893
:101020000620A2F5B47292B20A2A38D90B23B2FB79
:10103000F3F2234B1B889A4201D9013B9AB2BDF8C7
:101040000430204840F6B8318B422AD8C3F571638A
:101050000E3301689BB20F25B3FBF5F31A4D2D88B3
:10106000AB4284BF05F1FF35ABB28B421D468EB259
:1010700020D99B1B99B2154F3E68B3B2B2428CBFC8
:10108000D31A9B1A9BB219440529C8BF056003688F
:10109000C4BF3A6016466380A68003B0F0BD00224C
:1010A000CDE7C3F56D6308339BB20E2B0168D2D830
:1010B00000252B46C91A89B2DDE700BF880300204E
:1010C0008403002080030020860300207C0300208E
:1010D00037B568460D461446FFF790FFBDF800008F
:1010E00040B1BDF802302B60BDF80430C3F5A073E9
:1010F0002360012003B030BD032821D8DFE800F0D1
:10110000020B12190F4B1A68B2FA82F2520904212B
:101110000D480AF01BBE0B4B5A68B2FA82F2520914
:101120000821F5E7074B9A68B2FA82F252091021BA
:10113000EEE7044BDA68B2FA82F252092021E7E7BF
:10114000704700BF8C03002000100240032821D804
:10115000DFE800F0020B12190F4B1A68003A18BFB3
:10116000012204210D480AF0F1BD0B4B5A68003AE8
:1011700018BF01220821F5E7074B9A68003A18BF0B
:1011800001221021EEE7044BDA68003A18BF012271
:101190002021E7E7704700BF8C03002000100240C9
:1011A00003280DD8DFE800F00206080A04210548EC
:1011B0000AF0D1BD0821FAE71021F8E72021F6E76F
:1011C000704700BF0010024008B5032811D8DFE8BF
:1011D00000F0020A0C0E042107480AF0B1FD431E7C
:1011E0005842584108BD0821F6E71021F4E72021B4
:1011F000F2E70020F3E700BF0010024070B5084D91
:1012000000240126E0B2FFF7DFFF18B12B68012BA5
:1012100018BF2E600134052C05F10405F2D170BD14
:101220008C030020012380F87C1080F87D3070470B
:101230007047002070470000034B8164003918BFDD
:1012400001211970704700BF8B3F012070470020BB
:101250007047C36B0BB10846184770474FF6FF70D5
:101260007047406803689B6918477047704770472C
:101270007047704710B5044600F06CFD23680349C1
:10128000D3F890302046BDE810401847000000D049
:1012900008B503680446D3F884309847236820468D
:1012A000DB6F984700F008F9236820465B6F98478A
:1012B000292001F0D1FB00F0FFF8236820465B6F86
:1012C0009847F8E710B5044610F076FA23682046F0
:1012D000D3F8BC30BDE81040184700F01FBD00F047
:1012E00023BD00F055BD00F0F5BC00F065BD00F079
:1012F0006DBD00F0F9BC0FF052BC10B5882104465A
:1013000029F0E7FA204610BD10B590F8381090F893
:101310007C400C4B8C421A7809D03AB90A4A0B49E6
:101320001488088810800C8001221A7010BD002AD1
:10133000FCD0054A05491488088810800C800022DA
:10134000F3E700BF8A3F0120943F0120923F012034
:1013500008B5094B1B888B4203D8084B1B88934266
:1013600005D9074B074A0848A5212AF009FC074B75
:101370001980074B1A8008BD943F0120923F01203D
:1013800078CC0208DBCC02081ECD0208903F012079
:101390008E3F01202DE9F0410D460446194635B92E
:1013A000154B164A164840F201312AF0E9FBC0E914
:1013B00010520368134ED3F89030003A18BF012240
:1013C00032709847E569A5B12B681F68337873B10F
:1013D000236820465B6B9847236C834207D1616C7E
:1013E000094B28461A883B46BDE8F0411847216C56
:1013F000F6E7BDE8F08100BF63CD02089BCD02088F
:101400001ECD02088C3F0120903F0120034690F83A
:101410007E0018B1586803681B68184770470000C1
:10142000012108B5002208460DF0A7F80A4B186004
:1014300028B90A4B0A4A28210A482AF0A1FB0022AF
:10144000042101200DF037F9074B186018B9074B3C
:10145000034A2C21F0E708BDA0030020E9CD0208D3
:1014600032CE020861CE02089C030020BBCE0208E7
:10147000024B4FF0FF3118680DF0C9B8A0030020EF
:10148000014B18680DF0EFB8A0030020024B0021BB
:1014900018680DF0BCB800BFA0030020FFF7F0BF34
:1014A00003480449006800231A460DF03FB900BF05
:1014B0009C0300200400002013B5084C00231A46AA
:1014C00001A920680DF063F920684FF0FF33002276
:1014D00001A90DF05CF902B010BD00BF9C03002013
:1014E00003685B6C18470120704703689B6A1847C4
:1014F000FEE740F2EF307047054B0360054B4FF0BD
:101500008062C3F88820BFF34F8FBFF36F8F70479F
:1015100090E0020800E100E010B504464FF45A6183
:10152000FFF7EAFF204629F0D4F9204610BD00005D
:1015300082B0002301930E4B1A6B42F400021A632F
:101540001A6B02F400020192019A1A6942F4000235
:101550001A611A6922F400021A61064B064A1A61DE
:10156000064A5A61064B4FF080629A6002B070479B
:101570000038024014300020CD170008F114000894
:1015800000E100E008B50A2809D8DFE800F00610FD
:101590000E080808081010101000022008BD054BA6
:1015A000054A064890212AF0EBFA0020F6E70120D0
:1015B000F4E700BFFDCE020818CF020863CF02088F
:1015C00070B50C46887FFFF7DDFFA18AE28A164BD3
:1015D0002569586342EA01425A64628BDD63521AFC
:1015E0001A642668E168082E0DD19A611A61586262
:1015F000207F0E4A42EA0062DA610D4A19625D619B
:10160000DD601A6070BD0022D8611A6148090A0ABB
:1016100002F4784200F4FC600243C1F3C4010A43BF
:101620009A63044AEDE700BF00B0024009000100E0
:10163000012302000123030008B50B280BD8DFE8C3
:1016400000F00612100A0A0A0A0808080808022010
:1016500008BD0520FCE7054B054A06486F212AF026
:101660008FFA0020F4E70120F2E700BFFDCE020868
:10167000BBCF020863CF02082DE9F04191F81D802D
:101680000C464046FFF7D8FFA77F05463846FFF7D0
:10169000D3FF06463846FFF775FFA18A628B454B9C
:1016A000521A1A649A61228B521A1A61E28A58639A
:1016B00042EA01425A6421696268D963DA60D4F867
:1016C00000C0207FBCF1800F4FEA006229D013D800
:1016D000BCF1200F45EA020064D0BCF1400F61D09C
:1016E000BCF1040F5ED0334B154345F40035B845CB
:1016F000DD615BD0304A40E0BCF5807F07D0BCF5AF
:10170000007FF0D142F4003242F0090203E042F4DB
:10171000003242F00A02DA61E2681A625E625961DE
:101720002AE0A4682A4342F40032271DDF62DA610E
:1017300022785E62596142B1012A21D01F4B204AB2
:1017400020484FF48D712AF01BFADA69618822F47F
:101750007F42013922F0100242EA0122DA610121BE
:10176000144BDA6942F02002DA61DA699206FCD49D
:1017700010229A600029BDD0134A1A60BDE8F0819A
:10178000DA69B0F1FF01608822F47F4200F1FF3096
:1017900022F0100242EA002242F0100218BF01219A
:1017A000DA61DDE740F40030D861B7E742F2013298
:1017B000E3E700BF00B002400123010005D00208AA
:1017C0001FD0020863CF020801230200024B1B68EE
:1017D000586803685B691847983F012070B5044654
:1017E00025460A4B0C30002660602672667245F86A
:1017F000203B6022294610F049F904F55A63EE6057
:1018000024359D42FBD1204670BD00BF90E0020808
:10181000034B1A68D207FCD423229A60704700BF9A
:1018200000B002407047000030B50F4C2568ED074E
:10183000FCD423250904A56041F001010225FF2BFA
:1018400065636164E0630AD00849656241EA036345
:10185000E361074B22626061E060236030BDE561B7
:10186000039BA363034BF8E700B0024009000100AB
:10187000010002000100030030B50E4C2568ED07A1
:10188000FCD423251204A56042F001020225FF2B9F
:1018900065636264E063E16008D01B0643F00213F5
:1018A000E361054B65626061236030BD034BE3611A
:1018B0000123F9E700B0024001000200020002FF2C
:1018C00030B50B4C2568ED07FCD4232512041B060C
:1018D000A56043F40033022542F0010265636264AF
:1018E000E063E160E361034B65626061236030BDEA
:1018F00000B0024001000200012070471420704730
:10190000142303FB010008307047142303FB01007C
:10191000083070470120704741F67C00704741F65F
:101920007C0303FB01000830704741F67C0303FB96
:10193000010008307047012070471020704700EB0D
:1019400001100830704700EB01100830704708465E
:1019500002F02CBD10B5034B036004460EF06FFE81
:10196000204610BD48E1020810B50446FFF7F2FF1B
:1019700020461C2128F0ADFF204610BD10B5034BBA
:10198000036004460EF05BFE204610BD14E1020821
:1019900010B50446FFF7F2FF204641F6840128F017
:1019A00098FF204610BD000010B5034B03600446AD
:1019B0000EF045FE204610BDE0E0020810B50446DA
:1019C000FFF7F2FF2046182128F083FF204610BDC4
:1019D00010B5094B0360044600F5C5501030FFF701
:1019E000B9FF04F12C00FFF7C9FF04F11400FFF761
:1019F000DBFF204610BD00BF7CE1020808B50248AD
:101A0000FFF7E6FF08BD00BF8012002010B50446B6
:101A1000FFF7DEFF204641F63C2128F05AFF204622
:101A200010BD0000F7B501F08BFB054601F08CFB03
:101A300000240146009423462246284619F0E6FE7B
:101A4000294B2A4A1A60204605F058FE284B294A9D
:101A500029489A6019F040FE284C2368BFF35B8F39
:101A6000DB073BD4204628F036FF002836D0244A36
:101A7000244B254E136002F5C75502F12C0702F1E5
:101A8000140097605060D66015610EF0D9FDA5F581
:101A9000C7521E4B536138460EF0D2FDA5F5C75212
:101AA00017461B4BD36230460EF0CAFD07F5805334
:101AB00003F6CC00174AC3F8B02809F07BF93A4680
:101AC000A5F11401284606F02FFF284602F06EFC0F
:101AD00011482AF073F8204628F009FF0F4803B098
:101AE000BDE8F040FFF7C6BBF43F01202C04002006
:101AF0004C04002030040020080000207C1200204C
:101B0000801200207CE10208302B0020E0E0020877
:101B100014E1020848E10208FD190008A4030020AE
:101B2000704700000148FFF7B3BB00BFA4030020CB
:101B300070B5274E274C284D284B23603046FFF7C1
:101B40004DFE28461FF0E6F8254817F013FB254BFD
:101B50002548DC6000224FF48071C3E91312234949
:101B60001A63C3E91B1222499A86C3E91F0121495E
:101B7000C3F884102049214883F85C20C3E904227B
:101B8000C3E90622C3E90822C3E90A22C3E90F22F6
:101B9000C3E91122C3E91522C3E918229A6683F822
:101BA00074209A67C3E901650B60F0210180144835
:101BB000018014484FF4A07101801348018013493B
:101BC0000A70012283F83820114A1A6070BD00BFE4
:101BD000D8040020781200204C04002068CC0208B1
:101BE00030040020A40300200000010101000001D6
:101BF000000450001A001400983F0120943F012077
:101C0000903F0120923F01208E3F01208A3F01201A
:101C1000A4DF02080148FFF76FBC00BFD804002012
:101C20000020704781807047C180704701817047F4
:101C3000418170477047704770477047704710B4D4
:101C4000C4880368121B84885B6D091B12B25DF89F
:101C5000044B09B218474FF6FF7383814FF0FF33EF
:101C600003621368C36110607047002070478B885F
:101C7000838001207047704780F82610704790F8E5
:101C80002600704710B50022B1F90840B1F90A10DA
:101C9000028042808480C18010BD00220280428088
:101CA0008280C28070470177704780ED080A7047D4
:101CB00080F82410704780F8251070470120704785
:101CC000983070478C307047843070477047704749
:101CD00070470000034B902283F85A2383F858235F
:101CE000704700BF00E100E0094A0A49D3680A488A
:101CF000C3F30A03013B9BB20B801169C1F30A01D4
:101D0000013901801364536B43F00103536370473F
:101D100000680140BE2C0020BC2C0020014BD3F8F1
:101D2000AC00704700680140024B0122C3F8AC10C0
:101D30005A6270470068014010B52C21044628F013
:101D4000C8FD204610BD10B5BC21044628F0C1FDD9
:101D5000204610BD70B504460EF077FF23689D6ED7
:101D600015F0C4FF01462046A8472368054AD3F86A
:101D70008C502046AC460023BDE87040A2F51631D9
:101D8000604700BF00B004D00EF046BF0EF050BF59
:101D90000EF00BBF0FF077B890F8252012B1036852
:101DA0005B691847704790F825201AB190F82420F5
:101DB00002B1186070470000034B4FF080629A60D8
:101DC0004FF080729A60704700E100E0084B4FF0DE
:101DD0008062C3F88820BFF34F8FBFF36F8F4FF03F
:101DE0008072C3F88820BFF34F8FBFF36F8F7047A7
:101DF00000E100E070B50023124E8380124B0360B7
:101E0000336893F85C2005460AB1186D00B99868EC
:101E100003681B6B98473368B0FA80F4186D640947
:101E200030B103681B6B9847002808BF44F00104D9
:101E30002CB9064B064A07482C2129F0A1FE28465A
:101E400070BD00BF983F012090E102085DD00208FC
:101E5000BBD00208F4D0020870B5254E3568BFF338
:101E60005B8F15F0010540D1304628F034FD002885
:101E70003BD0204C204B256104F13400C4E90035EF
:101E8000C4E90255E584A562A58517F05AFC04F162
:101E9000580011F057FF194BA3652046184B40F826
:101EA000843BFFF7A7FF174BC4F884302433C4F8F2
:101EB0008C304FF4C803C4E928350023C4F8AC3093
:101EC000C4F8B030C4F8B430C4F8B8300E480F4B82
:101ED000C4F89050C4F89C50C4F8A850C4F8983086
:101EE00029F06CFE304628F002FD024870BD00BFAC
:101EF000C02C0020C42C0020FCEC0208B0E1020839
:101F000028E20208B0EC0208D11C000890EC02089C
:101F100038B5184C23685BB3174B184A1B6C1188F3
:101F20008B4216D1164B19880AF022FD236893F8CC
:101F30006E200025013283F86E2083F88050FFF771
:101F4000AFFA20680FF038FC2846BDE83840FFF7AC
:101F5000D3B80AF00DFD2468236820461B6A984711
:101F6000012384F880300020BDE83840FFF7EEB848
:101F700038BD00BF983F012000680140BE2C002002
:101F8000BC2C00202DE9F843054699469DF8208099
:101F90000C4616460CF09AFA2B68074616B91E55E1
:101FA000BDE8F8831B5DB34205D16B6853F824305C
:101FB000C31A272BF4D9A9680948012E08BFC846BF
:101FC0000023006881F800801A460CF0AFFB00285F
:101FD000E6D12B681E556B6843F82470E0E700BF1C
:101FE000F42D00202DE9F04F714C94E80F009DB0C6
:101FF0000CAD85E80F0010340023139394E80F0014
:1020000014AD85E80F000124062655F8043B694805
:102010001296CDE9103410A9013409F0B5FB052C56
:10202000F3D1644B634F1B68DFF898815A6842F420
:1020300080725A60DA6A22F47002DA62DA6A42F472
:102040004012DA62002418AB102218462146089488
:1020500029F0B2FF08AACDE909200DF11F030B9367
:10206000384609F0A1FA0DF1300900263221384630
:1020700009F033FB0546A8B9384609F081FB013663
:10208000042E49F8040BF1D1384609F00BFB5DB181
:102090003B686FF020021A600A200CF062FA2546B5
:1020A0002C46DDE70125EFE7DDF834A0BAF57A7FAD
:1020B00076D340F6B832924594BF002201225200F6
:1020C000DDF83090B9F57A7F6CD340F6B836B1457B
:1020D00094BF0026012673000F9E0393B6F57A7F06
:1020E00062D340F6B835AE4294BF002501256B009F
:1020F000DDF838B00493BBF57A7F57D340F6B83398
:102100009B4594BF002301235B0001250593002319
:102110001946009509A8FFF735FF03232946039ABE
:10212000009309A80223FFF72DFF0523049A0093CB
:102130000221042309A8FFF725FF0723059A00932E
:102140000321062309A8FFF71DFF29461A4809F0B5
:10215000F7FD1A4BC8F800900128C8F804A00546FE
:10216000C8F808B0C8F80C60186015D1A4B9144EAE
:1021700008238DF81F30224623460DF11F013068D9
:102180000CF0D4FA09238DF81F303068234622461C
:102190000DF11F010CF0CAFA0A200CF0E2F97FE7FA
:1021A00001228DE7012397E70123A1E70123ACE793
:1021B00000CC0208442E002000000240802D0020A8
:1021C000F42D0020842D002007B5064BADF8060045
:1021D0001B68054801220DF106010BF079F903B0E7
:1021E00000BD00BF0C000020C02E002008B56420F8
:1021F0000CF0B7F9FBE70000094B1B7873B10949F4
:102200000A6808B950637047074BB3FBF0F0431EF0
:10221000D362CB604008002350635362704700BF15
:10222000AA2D0020AC2D002040420F0070B50A4EB0
:102230000A4D346835F8240005EB8405FFF7DCFF10
:10224000074BAA781A7001341423B4FBF3F203FB92
:102250001244346070BD00BFA42D00207CE202084F
:10226000A02D002070B51C228EB0264E00210DEB53
:102270000200CDE9041129F09FFE3478002C3FD1F3
:10228000214B00941A6B2148214D42F008021A6339
:102290001A6B02F008020092009A01941A6C42F044
:1022A00004021A641B6C03F0040301934FF4805280
:1022B000019B02A90223CDE90223069309F05CFCED
:1022C0001449AC605923C5E90013284640F2E733AE
:1022D000C5E90334AC610BF025FD6023224607A954
:1022E0002846CDE9073409940B940BF077FD21467D
:1022F00028460BF037FE012320463370FFF77CFFA2
:102300000EB070BDAA2D002000380240000C024023
:10231000AC2D00200008004008B5FFF7A3FF094BD3
:1023200001221A70084A00231370084A1360084AF1
:102330001370084A1360084A1370BDE80840FFF79D
:1023400075BF00BFA92D0020A82D0020A42D0020BE
:10235000A02D00209C2D0020982D0020054B002052
:102360001870054B1870054B1870054B1870FFF767
:1023700043BF00BFA92D0020A82D0020A02D0020C4
:10238000982D00202DE9F041194ADFF87880127865
:1023900098F8003012B913B9BDE8F081F3B1154EC9
:1023A0003378C3B9144F154D3C6835F8240005EB5C
:1023B00084050134FFF720FF032CAB783C600AD979
:1023C0000024204688F800403C603470FFF714FF7A
:1023D0000B4B1C70E0E7013B3370DDE7084C2378C2
:1023E0000BB9FFF723FF2378013B2370D4E700BF2D
:1023F000A92D0020982D00209C2D00206CE20208C1
:10240000A02D0020A82D002008B5FFF72BFF044BBE
:1024100001221A70034A00231360034A137008BD97
:10242000A82D00209C2D0020982D002030B595B0BF
:10243000102200210AA829F0BFFD1422002103A8C0
:1024400029F0BAFD00241E4B01941A6C42F0805210
:102450001A641B6C03F080530193019B194B029487
:102460001A6842F440421A601B6803F44043029326
:102470000122029B4FF48033CDE9082302254FF45B
:1024800080030821CDE90E534FF4B473CDE9101346
:1024900008A80423139312950AF0C2FA0AF086FAE8
:1024A0000F23CDE903354FF4A0504FF48053CDE90D
:1024B0000603052103A805940AF08EFC15B030BD73
:1024C000003802400070004082B00023104A01939F
:1024D000516C41F480715164526C0E4902F4807267
:1024E0000192019A0C4A8B60C1E900230B4A8A626F
:1024F000084601220B610B7681F82030CB62CB605D
:10250000CA6181F830304A6102B008F0A7BF00BF4D
:1025100000380240442E0020002001400100000F3E
:1025200082B000230D4A0193516C41F010015164B7
:10253000526C0B4902F010020192019A094A0A609A
:102540004FF4E132C1E9012308460C22C1E903330B
:10255000C1E90523CB6102B00BF05DBE003802403B
:10256000042E00200010014080B59AB008F034FF1E
:10257000FFF7AAFFFFF75AFF142200210DA800243D
:1025800029F01AFDBE4B00941A6BBE4842F01002AF
:102590001A631A6B02F010020092009A01941A6BEF
:1025A00042F020021A631A6B02F020020192019A93
:1025B00002941A6B42F080021A631A6B02F08002D6
:1025C0000292029A03941A6B42F004021A631A6B85
:1025D00002F004020392039A04941A6B42F001027F
:1025E0001A631A6B02F001020492049A05941A6BA2
:1025F00042F002021A631A6B02F002020592059A77
:1026000006941A6B42F040021A631A6B02F0400201
:102610000692069A07941A6B42F008021A631B6B23
:1026200003F00803079322463C21079B09F08EFB29
:1026300095482246042109F089FB224693484FF42D
:10264000405109F083FB012503273C238D48109757
:102650000DA902264FF00408CDE90D350F9409F0BD
:102660008BFA89480F940DA9CDE90D85109609F0D4
:1026700083FA4FF4405385480DA9CDE90D35CDE9D6
:102680000F4609F079FAA02381480F940DA9CDE9EE
:102690000D374FF00A0A09F06FFA7B480F940DA925
:1026A000CDE90DA709F068FA79480F940DA94FF00C
:1026B0000709CDE90D5409F05FFA0DA94FF4C06385
:1026C0007348CDF84490CDE90D36CDE90F4709F0B8
:1026D00053FA704A704B1360104609F043F96F4A81
:1026E0006F4B13606F4BD460C2E9013410464FF456
:1026F0008043C2E90434C2E90644146209F040FD93
:102700001021664809F082FF2146644809F09DFFC8
:10271000654A664B13604FF48273C2E901344FF48B
:10272000007118231046C2E90613C2E90344C2E946
:102730000844C2E90A4A54610AF06EFE5C4A5D4BE5
:102740001396C2E9003510204023C2E904034FF478
:10275000C073C2E906344FF40063C2E908340DA91E
:102760004FF4005310469362C2E90248CDE90D6967
:10277000CDE90F89CDE911764FF008090AF030FD57
:102780004FF6FF7209A94A480894CDE90A950995C0
:102790000C940AF045FD284608F04AFE4FF6FF72F9
:1027A00009A94348CDE90969CDE90B540AF038FD80
:1027B0004FF6FF7209A93E48CDE90979CDE90B84AE
:1027C0000AF02EFD4FF40C730893089B38480C93C5
:1027D0004FF6FF7209A9CDE909890B950AF020FD92
:1027E00040F26A5132480AF039FD342221460DEB9D
:1027F000020029F0E1FB304A304B1461C2E9003499
:102800000923C2E905351D23C2E9073740F20D1738
:1028100040F2431340F2171CC2E90973104640F21C
:102820004713C2E90BC3C2E90244948682F83640DA
:1028300009F0A6FFFF214FF4806EF022CDE91214BB
:102840000521CDE914E14FF4A0730DA9CDE90E24C3
:10285000CDE9164218481A4F18932246CDE9103692
:102860000D94ADF864408DF866400AF054F8154BAD
:102870003B601B6898473B68DB68984724E000BFD3
:10288000003802400010024000080240000C0240E4
:10289000000002405430002000300240C02F0020D1
:1028A000005C0040A0860100C02E002000500140C6
:1028B0008C2E0020400100A0182F0020006801404D
:1028C000942D0020140000201B4A1C4B1046C2E926
:1028D0000034C2E90264C2E90A46C2E90C4409F0C4
:1028E00051F82946144809F003F9FEF74DFBFEF7AD
:1028F0004AFBFFF715FE0BF0BDFD114A29462020CB
:102900000BF0D9FE0F4B104A186021460F480BF010
:10291000E4FD0F4B0F4A186021460F480BF0DDFD18
:102920000E4B0F4A186021460E480BF0D6FD0E4B99
:1029300018600BF0B1FDFEE71430002000B002403B
:10294000CCE20208F42D00202CE30208ED2100085F
:10295000002E002008E30208970F0008FC2D00203D
:10296000E4E20208E51F0008F82D002070477047D8
:102970007FB5084B8DF817201B6802930DF11702E5
:102980000123009201930A460146034809F0A0FC86
:1029900007B000BD10000020C02F00207FB500232D
:1029A0008DF81730084B1B6802930A4601230DF17E
:1029B0001701009101930146044809F019FD9DF8A3
:1029C000170007B000BD00BF10000020C02F00207E
:1029D0001FB5084C24680092CDE901340A46012352
:1029E0000146054809F004FD003818BF012004B075
:1029F00010BD00BF10000020C02F002008F018BD3F
:102A000008B506480022042109F0A0F9BDE80840F5
:102A100002480122042109F099B900BF00080240D0
:102A200010B5012204464FF40051094809F08EF90F
:102A300000220421074809F089F92046FFF7C4FB6A
:102A4000BDE8104003480122042109F07FB900BF0E
:102A5000000C02400008024010B5002204464FF46A
:102A60000051094809F072F900220421074809F0D1
:102A70006DF92046FFF7A8FBBDE81040034801228E
:102A8000042109F063B900BF000C024000080240B5
:102A900037B505460C4612480022042109F056F9C4
:102AA00000224FF400510F4809F050F92846FFF773
:102AB0008BFB0D4B0D481B68224601A90AF0B4FEA2
:102AC0000848019C01224FF4005109F03FF90448E5
:102AD0000122042109F03AF9204603B030BD00BFBD
:102AE00000080240000C02400C000020C02E002014
:102AF00008F09EBC0268034B9A4201D108F086BCE4
:102B0000704700BF001000407047000082B00E4BBD
:102B100000220092596C41F480415964596C01F4CF
:102B20008041009100990192196C41F08051196423
:102B30001B6C03F080530193019B0F216FF0010088
:102B400002B008F0CFBE00BF003802400268094B57
:102B50009A4282B00BD100230193074B1A6B42F4C7
:102B600080521A631B6B03F480530193019B02B0E4
:102B7000704700BF003002400038024007B50E4BDE
:102B800002689A4216D10022A3F5F0430192196B14
:102B900041F4000119631B6B03F400030193052149
:102BA0005A20019B08F09EFE5A2003B05DF804EB0A
:102BB00008F0CABE03B000BD00B002402DE9F043EA
:102BC000044689B01422002103A829F0F5F92268EF
:102BD000244B9A4243D1244C244800250095236B72
:102BE00043F004032363236B03F004030093009B6F
:102BF0000195236B43F001032363236B03F001036F
:102C00000193019B4FF012094FF400734FF001083C
:102C10000327042603A9CDE90339CDE905870796E3
:102C200008F0AAFF4FF480731148079603A9CDE975
:102C30000339CDE9058708F09FFF0295236C43F423
:102C400000032364236C03F400030293029B236AB2
:102C500043F400032362236A23F40003236209B0D0
:102C6000BDE8F083005C00400038024000080240EC
:102C700000000240F0B599B004461422002107A8D4
:102C800029F09AF930220DEB0200002129F094F985
:102C900022685E4B9A4240F0B78008230C93C02311
:102CA0001093042312930CA84FF4003315930AF0E9
:102CB0006BF908B1FFF728FF554B564800240094E4
:102CC0005A6C42F080625A645A6C02F08062009240
:102CD000009A01941A6B42F020021A631A6B02F0F8
:102CE00020020192019A02941A6B42F001021A63C7
:102CF0001A6B02F001020292029A03941A6B42F0DC
:102D000002021A631A6B02F002020392039A0494FD
:102D10001A6B42F040021A631A6B02F040020492EE
:102D2000049A05941A6B42F004021A631A6B02F0BB
:102D300004020592059A06941A6B42F008021A637F
:102D40001B6B03F00803069302250E26069B0B96C9
:102D50004FF4806307A9CDE90735CDE9094508F0AF
:102D60000BFF41F658032C480B9607A9CDE9073510
:102D70000927CDE9094508F0FFFE032327480B97F3
:102D800007A9CDE90735CDE9094508F0F5FE4FF46F
:102D9000706322480B9607A9CDE90735CDE90945AF
:102DA00008F0EAFE4FF40C631D480B9607A9CDE925
:102DB0000735CDE9094508F0DFFEC02319480B9619
:102DC00007A9CDE90735CDE9094508F0D5FE082367
:102DD00015480B9607A9CDE90735CDE9094508F057
:102DE000CBFE4FF4A0530E480B9707A9CDE907354A
:102DF000CDE9094508F0C0FE58202246052108F01B
:102E000071FD582008F0A0FD19B0F0BD0068014028
:102E1000003802400014024000000240000402405A
:102E20000018024000080240000C024010B50446A1
:102E300088B01422002103A829F0BEF82268144BA0
:102E40009A4223D103F56843002101915A6C11483D
:102E500042F480125A645A6C02F480120192019A70
:102E600002911A6B42F020021A631B6B03F02003DD
:102E70000293029B4FF4607202230321CDE90323E6
:102E80000523CDE9061303A908F076FE08B010BDAE
:102E900000500140001402402DE9F04186B00023AB
:102EA00003932B4B1C68002C4FD14FF00108C3F843
:102EB0000080284B00949A6B274842EA08029A63E4
:102EC0009B6B03EA08030093022703260C25009B53
:102ED00001A94FF63F03CDE90137CDE9046508F0BC
:102EE0004BFE1E48059501A9CDE90187CDE90346B2
:102EF00008F042FE48F233131948059501A9CDE9BF
:102F00000137CDE9034608F037FE4FF683731548C5
:102F1000059501A9CDE90137CDE9034608F02CFE5E
:102F20004CF203731048059501A9CDE90137CDE9AD
:102F3000034608F021FE60230C48059501A9CDE960
:102F40000137CDE9034608F017FE06B0BDE8F08171
:102F50005C300020003802400014024000080240AB
:102F60000018024000100240000C02400004024021
:102F700030B589B000230293204B1A6C42F0100246
:102F80001A641B6C03F010030293054601A903A801
:102F9000029B09F0DBFF069B4BBB09F0B7FF184A09
:102FA000184B136040F2E733D360174BB0FBF3F3D9
:102FB000013B5360104600231361936093610AF054
:102FC00085FE044680B90E480AF054FD044658B9FF
:102FD000362008F0B9FC0F2D0DD8224629463620A0
:102FE00008F080FC094B1D60204609B030BD09F097
:102FF0008DFF4000D3E70124F6E700BF0038024010
:10300000603000200010004040420F007C00002093
:103010007047FEE7FEE7FEE7FEE7704701480AF06B
:1030200068BD00BF60300020014809F017BC00BF38
:10303000182F0020014808F0D1BC00BF1430002038
:103040000120704708B529F015F8162303604FF0EA
:10305000FF3008BD08B529F00DF816230360FEE720
:1030600070B50D4614460E46731B9C4201DC20468B
:1030700070BDAFF3008006F8010BF5E74FF0FF30AD
:1030800070474FF400534B60002070470120704799
:103090000020704710B54FF0FF331446024892B23B
:1030A0000BF0E7F8204610BD042E0020094A08B5B1
:1030B0000346106808B908481060034469468B420B
:1030C00006D928F0D7FF0C2303604FF0FF3008BD6E
:1030D0001360FCE7A8300020D04C0120704708B5F1
:1030E0000C2924D8DFE801F0070B0F13171F1F1F4F
:1030F0001F1B1F1F1F0004F04DFB006808BD04F0DC
:1031000049FB4068FAE704F045FB8068F6E704F005
:1031100041FBC068F2E704F03DFB0069EEE704F014
:1031200039FB8069EAE704F035FB4069E6E70020F7
:10313000E4E710B50421044627F0CBFB204610BD80
:103140000048704764E302080520704713B5002467
:1031500051B1036801948DF8034001AA9C680DF1F8
:103160000303A04702B010BD0846FBE7C0897047C3
:10317000008A7047C088704780887047807A00F066
:103180007F007047807AC0097047002070470000B8
:103190009FED010A704700BF0000000070477047B4
:1031A000704770477047704730B5036885B0D3F8F3
:1031B0008430018104460146684698479DE807002F
:1031C0003C3484E8070005B030BD30B5036885B0F5
:1031D000D3F88430418104460146684698479DE80B
:1031E00007003C3484E8070005B030BD00220280AF
:1031F00042808280C280704780F83610704770B578
:10320000036804461B6B15469847236829462046E9
:103210005B6EBDE87040184700207047806C7047B7
:1032200070477047704710B50821044627F051FBDE
:10323000204610BD10B54C21044627F04AFB20461D
:1032400010BD10B52C21044627F043FB204610BDCD
:103250000B898A89D21A4B89C988591A12B209B2C4
:1032600015F054BF10B5034B0360044612F032FF53
:10327000204610BDD8E4020810B5064B0360044692
:1032800012F028FF204641F2B85127F022FB2046D9
:1032900010BD00BFD8E4020808B590F826300BB185
:1032A000FEF77AFD08BD08B5FEF776FD08BD000003
:1032B000036870B55E6B124B1B6804468DB22BB968
:1032C000104B114A6C21114828F05AFC1049828D8C
:1032D0000988914203D80F4B0B4A6D21F3E713F88D
:1032E00012200D4B1B6853F8220003681B6B984794
:1032F000291A3346204609B2BDE87040184700BF7E
:10330000F83F012086D10208C8D1020803D2020882
:10331000EC3F01204AD20208F03F012010B500F531
:103320008054D4F8B4350133B42BC4F8B43506D185
:1033300014F0DCFC01F09AF80023C4F8B43510BD99
:1033400000224FF0FF31C0E900218260704770B564
:10335000036804461B6B1546984723682946204698
:103360005B6BBDE87040184770B504461D46BDF95B
:103370001060FFF7ECFF2368294620469B6B9847B7
:10338000236831462046DB6BBDE8704018470000DB
:103390004FF480714162084901600022FF21C0E9B9
:1033A0000122C0E90322C0E90522C0E9072280F812
:1033B00026108262704700BF54F002084FF48071FB
:1033C00041620D4901600D4981624FF6FF718185AF
:1033D0004FF47F01002241634FF0FF31C0E9012229
:1033E000C0E90322C0E90522C0E90722C0E91012A2
:1033F00002630287C2637047C4EF0208D0E3020889
:103400002DE9F04F04468BB027464FF0000B16F025
:1034100015FDD64BC4F83CB047F8403B04F16C06B0
:103420003846FFF7B5FF04F198083046FFF7B0FFC4
:103430004046FFF7ADFF04F1C400FFF7A9FF04F118
:10344000F0000FF0A7FF04F59C70FEF7D3FCC84B0B
:10345000C4F838312433C4F84031C64DC4F844B1FF
:103460004FF0010904F5A670FFF792FF04F5D27A38
:10347000C4F84C5184F8709104F5BC70FFF788FFD4
:10348000C4F8785184F89C915046FFF797FF04F5F3
:10349000F670FFF793FF04F50D731846B64D0393CE
:1034A000FFF78CFF04F52073C4F834521846C4F8B3
:1034B0007CB20393FFF782FF04F58053C4F8805277
:1034C000C4F8C8B2F025C3F8B4B54FF4965104F56A
:1034D0003D7012F0F5FD5A46384600954FF4A07342
:1034E000594604F10409FFF73FFF4FF07F43394687
:1034F000A36648460DF0B9F84FF0FF374FF4A073BC
:103500005A46304600955946FFF72EFF3146C4F81B
:10351000947048460DF0A9F80222EC23114640466B
:1035200000934FF49F73FFF71FFF944BC4F8C03014
:10353000414648460DF099F85A4600950323A021CC
:1035400004F1C400FFF710FFDC23C4F8EC7084F82A
:10355000EA3004F1C40148460DF087F80E237222C8
:10356000601900939B21FFF7FFFEC023C4F82431AC
:103570004FF43453C4F82C31814BC4F8443149F62C
:103580006103A4F8483104F59C736119C4E94755F7
:10359000C4F8183128254846C4F830B1C4F828B119
:1035A0000DF063F8052364220095082104F5A67048
:1035B000FFF7DAFEC4F8747104F5A67148460DF001
:1035C00054F80523642200954FF49A7104F5BC70F9
:1035D000FFF7CAFE4FF03408C4F8A07104F5BC71BF
:1035E000484604AD0DF041F813235F225046CDF854
:1035F00000807421FFF7B8FE5146C4F8D471284604
:10360000A4F8D8B111F030F895E8070004F5F07689
:1036100086E807004FF00302514684F8DD21284672
:1036200011F022F895E807004FF0010386E8070043
:10363000514684F8DC31284611F016F895E8070069
:10364000152386E8070050464E4EADF8243008A9F1
:10365000089611F0DDFA6FF0410184F8DA1148465E
:1036600051460DF002F813235F22CDF80080BB21F4
:1036700004F5F670FFF778FEC4F81C7204F5F671D5
:103680002846A4F820B210F0EFFF95E8070004F5F3
:103690000A7888E807004FF0030284F8252204F531
:1036A000F6712846174610F0DFFF95E8070088E816
:1036B000070084F8247204F5F671284610F0D4FF50
:1036C00095E8070088E8070008AA1223114604F5C8
:1036D000F670ADF82430089611F09AFA6FF04101B7
:1036E00084F82212484604F5F6710CF0BEFF7022F1
:1036F000352104F50D70FFF72AFE234BC4F8643220
:10370000D4F83432A4F868B2D3F88430DFF890A04B
:1037100004F50D712846984795E8070004F51C77D5
:103720004FF0010387E8070084F86C32D4F8343294
:1037300004F50D71D3F884302846984795E80700C2
:10374000DAF8003087E8070004F533772BB90F4B20
:103750000F4A60210F4828F013FA0F4B1B88092BE2
:1037600020D80E4B0A4A6121F4E700BFD8E40208D2
:10377000B0EC020870E40208E0E3020837380CFFFE
:103780000C0C99FFD0E302085FABDEFF86D1020884
:1037900088D2020803D20208EC3F01204AD2020874
:1037A000F83F0120DFF800810921D8F8000003F07C
:1037B000E1FF3A4A03460A21384617F080FFC4F871
:1037C0007C7204F50D7011F003FAD227142308A9B6
:1037D00004F50D70ADF82430089611F019FA04F5CF
:1037E0000D71484684F86A720CF03FFF6F22F32196
:1037F00004F52070FFF7ABFD294BC4F8B032D4F8C4
:103800008032A4F8B4B22846D3F8843004F520718D
:10381000984795E8070004F52F7B4FF003038BE8EA
:10382000070084F8B832D4F880322846D3F88430C0
:1038300004F52071984795E80700DAF800308BE826
:10384000070004F53875002B81D0164B1B88092B17
:1038500087D9D8F80000092103F08CFF0F4A0346EE
:103860000A21284617F02BFF04F52070C4F8C8522F
:1038700011F0AEF9132308A904F52070ADF8243037
:10388000089611F0C5F9484684F8B67204F520711F
:103890000CF0EBFE20460BB0BDE8F08FD3D202084F
:1038A0005FABDEFFEC3F0120F43F012070470000DA
:1038B00010B5034B0360044612F00CFC204610BD0B
:1038C0000CE5020810B5064B0360044612F002FC3A
:1038D000204641F2BC6126F0FCFF204610BD00BF2F
:1038E0000CE502082DE9F04F04468BB02546002672
:1038F00016F0A4FA974BE66345F8403B04F16C0AD6
:103900002846FFF745FD5046FFF742FD04F1C40885
:1039100004F19800FFF73CFD4046FFF739FD8E4F5C
:103920004FF0010904F1F000FFF732FD04F5A47B2C
:10393000C4F8F07084F8149104F58E70FFF728FD38
:10394000C4F81C7184F84091844F584604F5CA7934
:10395000FFF734FDC4F84871C4F890614846FFF79A
:103960002DFD04F5F073C4F894711846C4F8DC61B9
:103970000393FFF723FD04F50A7318460393FFF73B
:103980001DFD04F51C731846754F03930FF002FDDF
:1039900004F52E7318460393FEF72CFA07F124035F
:1039A000C4F8C03204F53373C4F8B8721846C4F8CA
:1039B000C462039310F084FB04F54F73184603931D
:1039C000FEF718FA07F12403C4F8443304F55473DE
:1039D000C4F83C731846C4F84863039310F070FBB6
:1039E00004F5707318460393FEF704FA07F12403F5
:1039F000C4F8C073C4F8C8334FF4965104F57F700F
:103A0000C4F8CC6312F05CFBF023324628460093E6
:103A100031464FF4A073FFF7A7FC271D4FF07F43FB
:103A20002946A36638460CF020FEF0233246504665
:103A30004FF0FF35009331464FF4A073FFF794FC2D
:103A40005146C4F8945038460CF00FFE0222EC2385
:103A50001146009304F198004FF49E73FFF784FC25
:103A6000404BC4F8C03004F1980138460CF0FDFD1D
:103A7000F023324640460093A0210323FFF774FC55
:103A8000DC234146C4F8EC5084F8EA302825384657
:103A90000CF0EBFD642200950523082104F1F000F1
:103AA000FFF762FC4FF0FF33C4F8183104F1F00166
:103AB00038460CF0DAFD64220095052340F23311FC
:103AC00004F58E70FFF750FC4FF0FF33C4F844311B
:103AD00004F58E7138460CF0C8FD1622B821584600
:103AE000FFF735FC204BC4F87831D4F84831A4F8FE
:103AF0007C6104ADD3F88430DFF884A059462846B1
:103B0000984795E8070004F5C2784FF0030388E86A
:103B1000070084F88031D4F848315946D3F884300E
:103B20002846984795E8070004F575730393DAF87B
:103B3000003088E807002BB90C4B0D4A60210D4876
:103B400028F01EF80C4B1B88062B1BD80B4B084A81
:103B50006121F4E70CE5020870E40208E0E30208E2
:103B6000B0EC020837380CFF565659FF86D10208D0
:103B700088D2020803D20208EC3F01204AD2020890
:103B8000F83F0120DFF81C830621D8F8000003F07D
:103B9000F1FDBF4A03460A2104F5757017F08FFD49
:103BA00004F575735846C4F8903111F011F8B94B0B
:103BB00008934FF02102584608A9ADF8242011F0CF
:103BC00027F8594638460CF050FDC3227521484667
:103BD000FFF7BDFBD4F89431AF4AD3F88430C4F872
:103BE000C42149462846A4F8C861984795E80700CB
:103BF00004F5E87BD4F894318BE807004FF001021C
:103C0000D3F8843084F8CC2149462846984795E873
:103C10000700DAF800308BE8070004F57A7B002B08
:103C20008AD09E4A1388052B90D9D8F80000052128
:103C300003F0A0FD964A03460A21584617F03FFDBF
:103C40004FF020084846C4F8DCB110F0C1FF914B9A
:103C5000089348460DEB08014FF0340AADF8248074
:103C600010F0D6FF494638460CF0FFFC1323CDF880
:103C700000A0B4228C2104F5F070FFF775FB4FF023
:103C8000FF32C4F8102204F5F0712846A4F814623B
:103C900010F0EAFC95E8070004F5077989E80700C9
:103CA0004FF0010184F81812284604F5F07110F065
:103CB000DBFC95E80700774B089389E807001F2392
:103CC0000DEB080104F5F0704FF0BE09ADF824309B
:103CD00010F09EFF04F5F071384684F816920CF04F
:103CE000C4FC1323CDF800A00722A52104F50A7017
:103CF000FFF73AFB4FF0FF32C4F8582204F50A717F
:103D00002846A4F85C6210F0AFFC95E8070004F5C3
:103D1000197A8AE807004FF0030184F860122846F8
:103D200004F50A7110F0A0FC95E80700594B0893C0
:103D30008AE807001E230DEB080104F50A70ADF8B0
:103D4000243010F065FF04F50A71384684F85E925D
:103D50000CF08BFC0E23722200939A2104F51C7048
:103D6000FFF702FBF023C4E9A733C023C4F8A43251
:103D70004FF43453C4F8AC32494BC4F8C43249F65A
:103D80006103A4F8C83204F52E73C4F8983204F520
:103D90001C713846C4F8B062C4F8A8620CF065FC27
:103DA00013230093722221230D2104F53370FFF7B2
:103DB000DBFA4FF0FF324FF0FF33C4F84823A4F88A
:103DC0004C33A02204F54F73C4F8F432114604F5C5
:103DD000337010F091FA4FF4B4624FF43E6104F581
:103DE000337010F094FAD4F80833434505D0C4F882
:103DF000088304F5337010F083F9002104F5337063
:103E000010F090FA5F2384F8F23204F533713846EB
:103E10000CF02BFC13230093722221234FF48671A4
:103E200004F55470FFF7A0FA4FF0FF33A022C4F856
:103E3000CC33A4F8D03304F57073C4F8783311464A
:103E400004F5547010F058FA4FF4B4624FF43E6128
:103E500004F5547010F05BFAD4F88C33202B06D0A4
:103E60002023C4F88C3304F5547010F049F904F59C
:103E70005470002110F056FA5F23384684F87633E8
:103E800004F554710CF0F1FB20460BB0BDE8F08F47
:103E9000D3D20208D0E30208565659FFEC3F012066
:103EA0000C0C99FFF43F0120704770477047D0E930
:103EB000023230B44468551004EB6200D20748BFA8
:103EC000625930BC48BFD35818470346406830B1E8
:103ED0009A681AB9D86800F001007047012070474D
:103EE00010B51021044626F0F4FC204610BD10B594
:103EF0004FF4CC71044626F0ECFC204610BD9830FF
:103F0000884208B505D113F0F1FEBDE8084000F085
:103F10005DBA08BDF8B5194B018F1B888B42064668
:103F20002AD9174B1B682BB9164B174A17486C2117
:103F300027F026FE13F81120154B1B6853F822506A
:103F4000144B186803F016FC2B6807469B6B284639
:103F500098472B6804469B6C3946284698472B683F
:103F600014FB00F45B6A394628469847A4B223182C
:103F70001BB2A6F84630F8BD0023FAE7EC3F01205B
:103F8000F83F012086D10208C8D1020803D20208F6
:103F9000F03F0120F43F01202DE9F04F04468BB0A3
:103FA000A246002515F04AFF6B4BE5634AF8403BFB
:103FB00004F16C0B504604F19809FFF7E9F95846F3
:103FC000FFF7E6F904F1E006484611F0C9F930467A
:103FD000FFF7F4F904F59678604BC4F8E030C4F8C4
:103FE00028514046FFF7EAF95D4BC4E962345D4B66
:103FF000C4E96435F0232A465046009329464FF41D
:10400000A073FFF7B1F9271D4FF07F435146A36618
:1040100038460CF02AFBF0232A46584600932946DE
:104020004FF4A073FFF7A0F94F4BC4F894305946F2
:1040300038460CF01AFB4846A4225B21FFF787F9AB
:1040400008AA07A94846ADF81C50ADF8205010F05A
:1040500032FE23234846A4F8D030FFF75BFF434AE3
:10406000DFF82CA14FF0FF33C4E9352304F5C47306
:10407000C4F8C030494638460CF0F7FA5D22692191
:104080003046FFF764F9D4F8E030C4F810A10DF120
:104090000809D3F88430A4F81451314648469847AB
:1040A00099E8070004F58E7383E80700304B1B681E
:1040B00004F5BA7B2BB92F4B2F4A60212F4827F0EC
:1040C0005FFD2F4B1B881BB92E4B2B4A6121F5E757
:1040D0002D4B2946186803F04DFB2C4A03460A2154
:1040E000584617F0ECFAC4F828B1304610F070FDCD
:1040F000DFF8A0B0CDF820B0282308A93046ADF8ED
:10410000243010F085FD314638460CF0AEFA1C2202
:1041100040465B21FFF71BF941464846C4F85CA1C5
:10412000A4F8605110F0A0FA99E8070004F5B47300
:1041300083E80700222308A94046ADF82430CDF8D3
:1041400020B010F065FD384641460CF08EFA20464E
:104150000BB0BDE8F08F00BF58E50208E0E30208AD
:1041600040E50208FF3E0008EDDCADFFF5F1EDFF94
:10417000F83F012086D1020888D2020803D2020843
:10418000EC3F01204AD20208F43F0120D3D20208BA
:1041900069463FFFD0E302087047704700F5987307
:1041A0000868496803C370477047704741607047AB
:1041B00070477047064BC0F84C310023C0F85031AF
:1041C00000F5A273C0F84801C0F84031704700BF45
:1041D000014A000801230372704770477047704717
:1041E000D0E90232416810B4541001EB6200D207EA
:1041F00048BF0A595DF8044B48BFD35818470346D7
:10420000406830B19A681AB9D86800F00100704768
:104210000120704710B50C21044626F05AFB2046B9
:1042200010BD10B51421044626F053FB204610BDE6
:1042300010B51021044626F04CFB204610BD10B5E9
:104240004FF4AE71044626F044FB204610BD10B575
:1042500013F04CFD0368BDE81040DB6B184710B548
:1042600013F044FD0368BDE810405B6B1847000085
:1042700013B50446807A637A0130C0B29842A072C6
:1042800005D9012323720023A37202B010BDB4F933
:104290000C20002115F073FFC30706D500284FF648
:1042A000FF73C8BF0123184400B2144AE08112888A
:1042B0000023ADF8023083B2D21AADF80020228A72
:1042C00020829B1AADF804300D4B1B88ADF80630E8
:1042D00013F00CFD036802AA1B6C12E90600984754
:1042E000A37A012BD1D1074B1B78002BCDD013F033
:1042F000FDFC02B0BDE8104013F0FEBC943F01206D
:10430000923F01208C3F012010B50446D0F84001B7
:1043100058B10368DB68984738B1D4F840010368A6
:104320009B6898470023C4F8403110BD044B1B68BC
:1043300093F85C200AB1186D00B99868704700BF07
:10434000983F0120F8B5174604460E4613F0BAFD13
:10435000124B1C60124B2360124B0025C4E95135EF
:10436000114BC4E953551868036829469B68C4E992
:104370004F55C4E955769847284603F0BFF9FFF733
:10438000D5FF1EF076FBFFF7D1FF1EF0EDFBFFF728
:10439000CDFF1EF0F5FB2046F8BD00BFE83F012031
:1043A000A4E502088CE50208983F0120064BC0F8FE
:1043B0004C310023C0F8503100F5A273C0F8480119
:1043C000C0F84031704700BF014A0008064BC0F8F2
:1043D0004C310023C0F8503100F5A273C0F84801F9
:1043E000C0F84031704700BF814F0008064BC0F84D
:1043F0004C310023C0F8503100F5A273C0F84801D9
:10440000C0F84031704700BFB5480008064BC0F8FF
:104410004C310023C0F8503100F5A273C0F84801B8
:10442000C0F84031704700BF1D4E0008064BC0F871
:104430004C310023C0F8503100F5A273C0F8480198
:10444000C0F84031704700BF69470008064BC0F80C
:104450004C310023C0F8503100F5A273C0F8480178
:10446000C0F84031704700BFB94C0008064BC0F897
:104470004C310023C0F8503100F5A273C0F8480158
:10448000C0F84031704700BF1D460008064BC0F819
:104490004C310023C0F8503100F5A273C0F8480138
:1044A000C0F84031704700BF554B0008064BC0F8BC
:1044B0004C310023C0F8503100F5A273C0F8480118
:1044C000C0F84031704700BFD544000803685B6AFC
:1044D000184700002DE9F14FD0E9556A0746B0684A
:1044E00003681B6A9847B0F5CC7F05D2434B444A1A
:1044F000A321444827F044FB706803681B6A98476F
:104500000F2803D8404B3E4AA421F2E7F068036825
:104510001B6A98470B2803D83C4B394AA521E8E78A
:1045200013F0E4FBDFF8EC90043013F02AFCD9F828
:10453000000010B10368DB689847D9F8000010B19B
:1045400003681B689847DFF8D080D8F8000010B1E6
:1045500003685B699847D7F83C0110B103685B6852
:104560009847D8F8000010B103681B689847D7F83F
:104570003C0110B103689B689847F0680021FFF781
:10458000A5FF4FF0000B224BC0F804B0044680F8A2
:1045900008B00360B068036859465B6A98470546EF
:1045A00004F076F97068036859465B6A98472946B3
:1045B000064604F049F9331DC7F83C61C9F80040CC
:1045C000C8F80050CAF800302B68C6F808A0284682
:1045D000DB68EE639847336830461B68984721468E
:1045E000284615F0C6FD236820461B6998472368B6
:1045F0005B69204601B0BDE8F04F1847D6D20208EB
:1046000064D302083AD4020881D4020824D50208EF
:10461000F8E50208E03F0120E43F01202DE9F14FD9
:10462000D0E9556A0746B06803681B6A984741F2AB
:10463000FB63984205D8444B444AA321444827F0E1
:104640009FFA706803681B6A98470F2803D8414B8C
:104650003E4AA421F2E7F06803681B6A98470B28DA
:1046600003D83D4B394AA521E8E713F03FFBDFF8BB
:10467000F090043013F085FBD9F8000010B1036806
:10468000DB689847D9F8000010B103681B689847A9
:10469000DFF8D080D8F8000010B103685B69984754
:1046A000D7F83C0110B103685B689847D8F8000060
:1046B00010B103681B689847D7F83C0110B1036834
:1046C0009B689847F0680021FFF700FF4FF0000B50
:1046D000224BC0F804B0044680F808B00360B0680C
:1046E000036859465B6A9847054603F0E7F9706826
:1046F000036859465B6A98472946064603F012F953
:10470000331DC7F83C61C9F80040C8F80050CAF82A
:1047100000302B68C6F808A02846DB68EE6398478F
:10472000336830461B6898472146284615F021FD1E
:10473000236820461B69984723685B69204601B0BF
:10474000BDE8F04F184700BFD6D20208C7D502080F
:104750003AD4020881D4020824D50208F8E50208F8
:10476000E03F0120E43F01202DE9F14FD0E9556AF7
:104770000746B06803681B6A984741F26373984222
:1047800005D8444B444AA321444827F0F9F97068FE
:1047900003681B6A98470F2803D8414B3E4AA4215F
:1047A000F2E7F06803681B6A98470B2803D83D4B73
:1047B000394AA521E8E713F099FADFF8F0900430C0
:1047C00013F0DFFAD9F8000010B10368DB689847EE
:1047D000D9F8000010B103681B689847DFF8D08053
:1047E000D8F8000010B103685B699847D7F83C011E
:1047F00010B103685B689847D8F8000010B10368EF
:104800001B689847D7F83C0110B103689B6898472C
:10481000F0680021FFF75AFE4FF0000B224BC0F862
:1048200004B0044680F808B00360B06803685946D5
:104830005B6A9847054605F023FC70680368594693
:104840005B6A98472946064605F04EFB331DC7F8BC
:104850003C61C9F80040C8F80050CAF800302B6825
:10486000C6F808A02846DB68EE63984733683046F0
:104870001B6898472146284615F07BFC2368204694
:104880001B69984723685B69204601B0BDE8F04F7B
:10489000184700BFD6D202089FD602083AD40208B1
:1048A00081D4020824D50208F8E50208E03F01207F
:1048B000E43F01202DE9F14FD0E9556A0746B06881
:1048C00003681B6A984741F61303984205D8444B86
:1048D000444AA321444827F053F9706803681B6ACF
:1048E00098470F2803D8414B3E4AA421F2E7F068CD
:1048F00003681B6A98470B2803D83D4B394AA5210A
:10490000E8E713F0F3F9DFF8F090043013F039FA28
:10491000D9F8000010B10368DB689847D9F80000A7
:1049200010B103681B689847DFF8D080D8F8000002
:1049300010B103685B699847D7F83C0110B1036870
:104940005B689847D8F8000010B103681B68984767
:10495000D7F83C0110B103689B689847F0680021C4
:10496000FFF7B4FD4FF0000B224BC0F804B0044633
:1049700080F808B00360B068036859465B6A9847DE
:10498000054604F067F97068036859465B6A984702
:104990002946064604F070F8331DC7F83C61C9F893
:1049A0000040C8F80050CAF800302B68C6F808A0CC
:1049B0002846DB68EE639847336830461B689847A3
:1049C0002146284615F0D5FB236820461B699847E9
:1049D00023685B69204601B0BDE8F04F184700BF6F
:1049E000D6D202087BD702083AD4020881D4020842
:1049F00024D50208F8E50208E03F0120E43F012049
:104A00002DE9F14FD0E9556A0746B06803681B6A83
:104A1000984741F67B03984205D8444B444AA3216A
:104A2000444827F0ADF8706803681B6A98470F2860
:104A300003D8414B3E4AA421F2E7F06803681B6AA1
:104A400098470B2803D83D4B394AA521E8E713F0D6
:104A50004DF9DFF8F090043013F093F9D9F8000025
:104A600010B10368DB689847D9F8000010B10368FB
:104A70001B689847DFF8D080D8F8000010B10368B1
:104A80005B699847D7F83C0110B103685B689847A9
:104A9000D8F8000010B103681B689847D7F83C01AC
:104AA00010B103689B689847F0680021FFF70EFD7E
:104AB0004FF0000B224BC0F804B0044680F808B059
:104AC0000360B068036859465B6A9847054606F07C
:104AD000C9F97068036859465B6A984729460646D3
:104AE00006F09EF9331DC7F83C61C9F80040C8F8CC
:104AF0000050CAF800302B68C6F808A02846DB68CA
:104B0000EE639847336830461B689847214628462D
:104B100015F02FFB236820461B69984723685B69C3
:104B2000204601B0BDE8F04F184700BFD6D20208BA
:104B300053D802083AD4020881D4020824D50208C6
:104B4000F8E50208E03F0120E43F012003685B6ACA
:104B5000184700002DE9F14FD0E955BA0746DBF8B8
:104B6000080003681B6A984741F2BB53984205D876
:104B7000484B494AA321494827F002F8DBF80400D2
:104B800003681B6A98470F2803D8454B424AA42163
:104B9000F1E7DBF80C0003681B6A9847132803D879
:104BA000404B3D4AA521E6E713F0A0F8DFF800915D
:104BB000043013F0E6F8D9F8000010B10368DB68A0
:104BC0009847D9F8000010B103681B689847DFF8D0
:104BD000E480D8F8000010B103685B699847D7F803
:104BE0003C0110B103685B689847D8F8000010B129
:104BF00003681B689847D7F83C0110B103689B68AD
:104C00009847DBF80C000021FFF7A0FF264B03605C
:104C100014234372254B002686721B884660044687
:104C20000672C68106828381DBF80800036831467C
:104C30005B6A9847054602F017FEDBF8040003683C
:104C400031465B6A98472946064602F0D7FD331D78
:104C5000C7F83C61C9F80040C8F80050CAF80030F5
:104C60002B68C6F808A02846DB68EE6398473368CF
:104C700030461B6898472146284615F07AFA236883
:104C800020461B69984723685B69204601B0BDE850
:104C9000F04F1847D6D202082DD902083AD402089C
:104CA00081D4020824D502081CE60208943F0120A2
:104CB000E03F0120E43F01202DE9F14FD0E955BA52
:104CC0000746DBF8080003681B6A984741F2236334
:104CD000984205D8484B494AA321494826F050FF3D
:104CE000DBF8040003681B6A98470F2803D8454B7C
:104CF000424AA421F1E7DBF80C0003681B6A9847DD
:104D0000132803D8404B3D4AA521E6E712F0EEFFF9
:104D1000DFF80091043013F034F8D9F8000010B136
:104D20000368DB689847D9F8000010B103681B6876
:104D30009847DFF8E480D8F8000010B103685B6999
:104D40009847D7F83C0110B103685B689847D8F8DA
:104D5000000010B103681B689847D7F83C0110B1F8
:104D600003689B689847DBF80C000021FFF7EEFE14
:104D7000264B036014234372254B002686721B8842
:104D8000466004460672C68106828381DBF808000D
:104D9000036831465B6A9847054605F047F8DBF83B
:104DA0000400036831465B6A98472946064605F0C9
:104DB00007F8331DC7F83C61C9F80040C8F8005037
:104DC000CAF800302B68C6F808A02846DB68EE63F6
:104DD0009847336830461B6898472146284615F0A7
:104DE000C8F9236820461B69984723685B692046F9
:104DF00001B0BDE8F04F1847D6D2020821DA020808
:104E00003AD4020881D4020824D502081CE602081C
:104E1000943F0120E03F0120E43F01202DE9F14FC4
:104E2000D0E955BA0746DBF8080003681B6A9847C3
:104E300041F2D363984205D8484B494AA3214948D7
:104E400026F09EFEDBF8040003681B6A98470F28D3
:104E500003D8454B424AA421F1E7DBF80C00036874
:104E60001B6A9847132803D8404B3D4AA521E6E723
:104E700012F03CFFDFF80091043012F082FFD9F805
:104E8000000010B10368DB689847D9F8000010B142
:104E900003681B689847DFF8E480D8F8000010B179
:104EA00003685B699847D7F83C0110B103685B68F9
:104EB0009847D8F8000010B103681B689847D7F8E6
:104EC0003C0110B103689B689847DBF80C00002197
:104ED000FFF73CFE264B036014234372254B00264C
:104EE00086721B88466004460672C68106828381EC
:104EF000DBF80800036831465B6A9847054603F013
:104F000061FDDBF80400036831465B6A9847294677
:104F1000064603F021FD331DC7F83C61C9F8004087
:104F2000C8F80050CAF800302B68C6F808A0284618
:104F3000DB68EE639847336830461B689847214624
:104F4000284615F016F9236820461B699847236800
:104F50005B69204601B0BDE8F04F1847D6D2020881
:104F600019DB02083AD4020881D4020824D50208C9
:104F70001CE60208943F0120E03F0120E43F0120AD
:104F80002DE9F14FD0E955BA0746DBF80800036870
:104F90001B6A984741F67B03984205D8484B494A1B
:104FA000A321494826F0ECFDDBF8040003681B6AE6
:104FB00098470F2803D8454B424AA421F1E7DBF874
:104FC0000C0003681B6A9847132803D8404B3D4ADE
:104FD000A521E6E712F08AFEDFF80091043012F016
:104FE000D0FED9F8000010B10368DB689847D9F803
:104FF000000010B103681B689847DFF8E480D8F818
:10500000000010B103685B699847D7F83C0110B104
:1050100003685B689847D8F8000010B103681B6804
:105020009847D7F83C0110B103689B689847DBF8B4
:105030000C000021FFF78AFD264B03601423437206
:10504000254B002686721B88466004460672C68180
:1050500006828381DBF80800036831465B6A984763
:10506000054605F0FFFEDBF80400036831465B6A85
:1050700098472946064605F0D3FE331DC7F83C6124
:10508000C9F80040C8F80050CAF800302B68C6F8CC
:1050900008A02846DB68EE639847336830461B68F3
:1050A00098472146284615F064F8236820461B6976
:1050B000984723685B69204601B0BDE8F04F184768
:1050C000D6D202080DDC02083AD4020881D40208C4
:1050D00024D502081CE60208943F0120E03F01208D
:1050E000E43F0120406A7047806A704770478A88B1
:1050F0000B8810B5D20A4C88C1699BB251F82200C6
:1051000043EA0443184410BD10B50446BAB1107BFD
:1051100068B1537BD27A1B0203F4E0631A43236A1B
:1051200003EB82031A888A4202D193F9020010BD70
:1051300005D8013880B204330028F3D1F7E7002006
:10514000F5E710B52C21044625F0C3FB204610BD21
:1051500030B58BB00446BDF860500895BDF85C5082
:1051600007959DF8505006959DF84C5005959DF873
:10517000485004959DF8445003959DF84050029581
:105180009DF83C500195BDF83850009514F096FB01
:10519000064B2360159BE361169B2362199B636298
:1051A0001A9BA36220460BB030BD00BF40E6020848
:1051B0007047000010B5034B0360044610F08AFFEF
:1051C000204610BD10E7020810B5064B03600446E8
:1051D00010F080FF204641F2D06125F07AFB204696
:1051E00010BD00BF10E7020810B500F58054D4F8D8
:1051F000CC360133B42BC4F8CC3606D112F076FD90
:10520000FFF7F4F80023C4F8CC3610BD0022C0E943
:105210000122C0E90322C0E90522C0E907224FF4B8
:1052200080728284014A0260704700BFA8E60208CB
:1052300038B5262204460D46002126F0BDFE204644
:10524000FFF7E4FF064B23602B88E384FF2320460F
:1052500084F8283029460FF0ECFE204638BD00BF08
:1052600024F102082DE9F04F04468BB0A046002639
:1052700014F0E4FDEC4BE66348F8403B4046FEF793
:1052800087F804F1980A04F16C00FEF781F804F144
:10529000C4095046FEF77CF84846FEF779F804F159
:1052A000F0000EF077F804F59C70FCF7A3FDDF4BDF
:1052B000C4F838312433C4F84031DD4DC4F84461BA
:1052C0004FF0010704F5A670FEF762F804F5D27BF3
:1052D000C4F84C5184F8707104F5BC70FEF758F8AE
:1052E000C4F8785184F89C715846FEF767F804F5C5
:1052F000F670FEF763F8CF4D04F50D70FEF748F831
:10530000C4F83452C4F86062A4F8646204F51A70F8
:10531000FEF73EF804F52773C4F868521846C4F83F
:105320009462A4F89862C44D0393FEF747F804F51D
:105330003A73C4F89C521846C4F8E4620393FEF72B
:105340003DF804F54D73C4F8E85208A94FF6FF750F
:105350001846C4F830630393ADF82050FFF768FF98
:1053600004F5587308A918460393ADF82050FFF7C9
:105370005FFF04F5637308A918460393ADF8205046
:10538000FFF756FF04F56E7308A918460393ADF8AE
:105390002050FFF74DFF04F58053F025C3F8CC668D
:1053A0004FF4965104F20C4010F08AFE324640460B
:1053B00000954FF4A0733146271DFDF7D5FF4FF040
:1053C0007F434146A36638460BF04FF94FF0FF3854
:1053D0004FF4A07332460095314604F16C00FDF79E
:1053E000C3FFC4F8948004F16C0138460BF03DF91A
:1053F0000222EC231146504600934FF49E73FDF7B2
:10540000B3FF8E4BC4F8C030514638460BF02DF92F
:105410003246484600950323A021FDF7A5FFDC2373
:105420004946C4F8EC8084F8EA3038460BF01DF9A0
:105430000E237222601900939A21FDF795FFC02375
:10544000C4F824314FF43453C4F82C317C4BC4F8E5
:10545000443149F66103A4F8483104F59C7361199D
:10546000C4E94755C4F8183114253846C4F83061EA
:10547000C4F828610BF0F9F805236E220095072186
:1054800004F5A670FDF770FFC4F8748104F5A671E9
:1054900038460BF0EAF805236E2200954FF49A7116
:1054A00004F5BC70FDF760FFC4F8A08104F5BC7181
:1054B00038460BF0DAF84FF034095E2204AD11469D
:1054C00013235846CDF80090FDF74EFF5946C4F817
:1054D000D4812846A4F8D8610FF0C6F895E80700F3
:1054E00004F5F07A4FF001038AE80700594684F882
:1054F000DC3128460FF0B8F895E80700514B0893C7
:105500008AE807000D2358466FF0410A08A9ADF854
:1055100024300FF07DFB594684F8DAA138460BF0B1
:10552000A4F813235D22CDF80090CC2104F5F67089
:10553000FDF71AFFC4F81C8204F5F6712846A4F89A
:1055400020620FF091F895E8070004F50A784FF013
:10555000030B88E8070004F5F671284684F824B2A6
:105560000FF082F895E80700364B089388E80700AB
:105570000C2308A904F5F670DFF8D090DFF8D0808E
:10558000ADF824300FF044FB84F822A204F5F67144
:1055900038464FF0780A0BF068F802233D22314676
:1055A00004F50D70CDF800A0FDF7DEFEC4E9979874
:1055B00004F50D713846A4F864620BF056F8022326
:1055C0003C224FF49F7104F51A70CDF800A0FDF74E
:1055D000CBFEC4E9A49804F51A713846A4F8986281
:1055E0000BF043F86F222E2104F52770FDF7AFFE74
:1055F000154BC4F8CC32D4F89C32A4F8D062D3F85E
:105600008430DFF8509004F527712846984795E8D4
:10561000070004F536784FF0010388E8070084F8A6
:10562000D432D4F89C3217E010E70208B0EC02083C
:1056300070E40208BCF00208E0E3020837380CFF0F
:105640000C0C99FFD0E302085FABDEFF6E0B00FF8E
:105650003493ADFFF83F012004F52771D3F884306F
:105660002846984795E80700D9F8003088E80700F1
:1056700004F579782BB96C4B6C4A60216C4826F0A4
:105680007FFADFF8C4A1BAF80030082B03D8694BC1
:10569000664A6121F2E7684B0821186802F06AF84F
:1056A000664A03460A21404616F009F8C4F8E48227
:1056B00004F527700FF08CFA4FF0D2080B23604AE4
:1056C000ADF8243008A904F5277008920FF0A0FA6D
:1056D00004F52771384684F8D2820AF0C6FF6F229B
:1056E000F52104F53A70FDF732FED4F8E832554959
:1056F000D3F88430C4F818132846A4F81C6304F5C2
:105700003A71984795E80700D4F8E83204F54976ED
:1057100086E80700D3F8843084F820B3284604F5DF
:105720003A71984795E80700D9F8003086E80700F5
:1057300004F57E75002B9ED0BAF80030082BA6D950
:105740003D4B0821186802F015F83C4A03460A212F
:10575000284615F0B4FFC4F8305304F53A700FF042
:1057600037FA0A25364A089208A904F53A70ADF8C6
:1057700024500FF04DFA04F53A71384684F81E8330
:105780000AF073FF2A4604F54D7040F23911FDF717
:10579000DEFD042608A904F54D70ADF820600FF079
:1057A00048FC04F54D7138460AF05FFFBE2204F54F
:1057B000587040F23911FDF7CAFD08A904F5587078
:1057C000ADF820600FF035FC04F5587138460AF04A
:1057D0004CFF2A4604F563706FF00101FDF7B7FD39
:1057E00008A904F56370ADF820B00FF022FC04F5B1
:1057F000637138460AF039FFBE2204F56E706FF00F
:105800000101FDF7A4FD08A904F56E70ADF820B004
:105810000FF00FFC384604F56E710AF026FF2046A3
:105820000BB0BDE8F08F00BF86D1020888D2020815
:1058300003D202084AD20208F43F0120D3D2020860
:10584000D0E302085FABDEFFEC3F012070470000B1
:1058500010B5034B0360044610F03CFC204610BD1D
:1058600044E7020810B5064B0360044610F032FC12
:10587000204641F2D47125F02CF8204610BD00BF1F
:1058800044E702082DE9F04F04468BB0A2460026FB
:1058900014F0D4FAB44BE6634AF8403B5046FDF7A7
:1058A00077FD04F1980804F16C00FDF771FD4046A6
:1058B000FDF76EFD04F1C400FDF76AFDAB4F4FF03C
:1058C000010504F1F000FDF763FD04F5A47BC4F8C5
:1058D000F07084F8145104F58E70FDF759FD04F54D
:1058E000CA79C4F81C7184F84051A14F5846FDF79D
:1058F00065FDC4F84871C4F890614846FDF75EFD47
:1059000004F5F073C4F894711846C4F8DC6103938D
:10591000FDF754FD04F50A7318460393FDF74EFD99
:1059200004F51C731846934F0393FDF731FD04F5FE
:105930002973C4F870721846C4F89C62A4F8A06277
:105940000393FDF725FD04F53673C4F8A4721846D9
:10595000C4F8D062A4F8D46203930DF01BFD04F5E3
:10596000487318460393FCF745FA834BC4F8203379
:1059700003F1240504F54D734FF6FF77C4F828535F
:1059800008A91846C4F82C630393ADF82070FFF7FC
:105990004FFC04F5587308A918460393ADF820701E
:1059A000FFF746FC04F5637308A918460393ADF8A6
:1059B0002070FFF73DFC04F56E7308A918460393A9
:1059C000ADF82070FFF734FC04F5797318460393A3
:1059D0000EF076FB04F2544318460393FCF70AFAE0
:1059E000A5F12403C4F8543404F58D63C4F85C5461
:1059F0001846C4F8606403930EF062FB04F59B63E1
:105A000018460393FCF7F6F9A5F12403C4F8D8343B
:105A1000C4F8E0544FF49651F02504F21450C4F841
:105A2000E46410F04DFB3246504600954FF4A073ED
:105A30003146FDF799FC271D4FF07F435146A36681
:105A400038460AF012FE4FF0FF3A4FF4A073324688
:105A50000095314604F16C00FDF786FC04F16C0101
:105A60003846C4F894A00AF000FE0222EC23114646
:105A7000404600934FF49E73FDF776FC3F4BC4F80D
:105A8000C030414638460AF0F0FD32460095032307
:105A9000A02104F1C400FDF767FCDC23142584F881
:105AA000EA3004F1C4013846C4F8ECA00AF0DDFD88
:105AB00005236E220095072104F1F000FDF754FC48
:105AC00004F1F0013846C4F818A10AF0CEFD052310
:105AD0006E2200954FF49A7104F58E70FDF744FC28
