:020000040800F2
:100000000000032035060108E9AD0008EBAD00084B
:10001000EDAD0008EFAD0008F1AD000800000000F4
:1000200000000000000000000000000051FE000879
:10003000F3AD000800000000E1FE000805F800082C
:100040008506010885060108850601088506010860
:100050008506010885060108850601088506010850
:100060008506010885060108850601088506010840
:100070008506010885060108850601088506010830
:100080008506010885060108850601088506010820
:100090008506010885060108850601088506010810
:1000A0008506010885060108850601088506010800
:1000B00085060108850601088506010885060108F0
:1000C00085060108850601088506010885060108E0
:1000D00085060108850601088506010885060108D0
:1000E00085060108850601088506010885060108C0
:1000F00085060108850601088506010885060108B0
:10010000850601088506010885060108850601089F
:100110008506010885060108F5AD00088506010879
:10012000850601088506010885060108850601087F
:10013000850601088506010885060108850601086F
:10014000850601088506010885060108850601085F
:10015000850601088506010885060108850601084F
:10016000850601088506010885060108850601083F
:1001700085060108850601088506010800000000C3
:10018000850601088506010885060108850601081F
:10019000850601088506010885060108850601080F
:0C01A00001AE0008850601080DAE000845
:1001B00010B5054C237833B9044B13B10448AFF3A1
:1001C00000800123237010BD6003002000000000A8
:1001D00020CC020808B5034B1BB103490348AFF319
:1001E000008008BD000000006403002020CC02084D
:1001F00081F0004102E000BF83F0004330B54FEAD8
:1002000041044FEA430594EA050F08BF90EA020F44
:100210001FBF54EA000C55EA020C7FEA645C7FEAD7
:10022000655C00F0E2804FEA5454D4EB5555B8BFFA
:100230006D420CDD2C4480EA020281EA030382EA6B
:10024000000083EA010180EA020281EA0303362DFD
:1002500088BF30BD11F0004F4FEA01314FF4801CD0
:100260004CEA113102D0404261EB410113F0004FE2
:100270004FEA03334CEA133302D0524263EB430399
:1002800094EA050F00F0A780A4F10104D5F1200E37
:100290000DDB02FA0EFC22FA05F2801841F1000192
:1002A00003FA0EF2801843FA05F359410EE0A5F166
:1002B00020050EF1200E012A03FA0EFC28BF4CF097
:1002C000020C43FA05F3C01851EBE37101F000454D
:1002D00007D54FF0000EDCF1000C7EEB00006EEB5A
:1002E0000101B1F5801F1BD3B1F5001F0CD34908E4
:1002F0005FEA30004FEA3C0C04F101044FEA44523B
:1003000012F5800F80F09A80BCF1004F08BF5FEAC1
:10031000500C50F1000041EB045141EA050130BDA1
:100320005FEA4C0C404141EB0101013C28BFB1F5B3
:10033000801FE9D291F0000F04BF01460020B1FAFE
:1003400081F308BF2033A3F10B03B3F120020CDAD1
:100350000C3208DD02F1140CC2F10C0201FA0CF0AF
:1003600021FA02F10CE002F11402D8BFC2F1200C14
:1003700001FA02F120FA0CFCDCBF41EA0C019040CA
:10038000E41AA2BF01EB0451294330BD6FEA040413
:100390001F3C1CDA0C340EDC04F11404C4F12002FE
:1003A00020FA04F001FA02F340EA030021FA04F310
:1003B00045EA030130BDC4F10C04C4F1200220FA67
:1003C00002F001FA04F340EA0300294630BD21FAA5
:1003D00004F0294630BD94F0000F83F4801306BF6B
:1003E00081F480110134013D4EE77FEA645C18BF5F
:1003F0007FEA655C29D094EA050F08BF90EA020FF6
:1004000005D054EA000C04BF1946104630BD91EAED
:10041000030F1EBF0021002030BD5FEA545C05D1F0
:100420004000494128BF41F0004130BD14F580042F
:100430003CBF01F5801130BD01F0004545F0FE41A3
:1004400041F470014FF0000030BD7FEA645C1ABFD8
:10045000194610467FEA655C1CBF0B46024650EA0F
:10046000013406BF52EA033591EA030F41F400213B
:1004700030BD00BF90F0000F04BF0021704730B5C1
:100480004FF4806404F132044FF000054FF0000196
:1004900050E700BF90F0000F04BF0021704730B557
:1004A0004FF4806404F1320410F0004548BF40422C
:1004B0004FF000013EE700BF42004FEAE2014FEA81
:1004C00031014FEA02701FBF12F07F4393F07F4F5C
:1004D00081F06051704732F07F4208BF704793F05F
:1004E0007F4F04BF41F40021704730B54FF4607472
:1004F00001F0004521F000411CE700BF50EA010275
:1005000008BF704730B54FF000050AE050EA01021D
:1005100008BF704730B511F0004502D5404261EB8D
:1005200041014FF4806404F132045FEA915C3FF4CE
:10053000D8AE4FF003025FEADC0C18BF03325FEA6B
:10054000DC0C18BF033202EBDC02C2F1200300FA1C
:1005500003FC20FA02F001FA03FE40EA0E0021FA41
:1005600002F11444BDE600BF70B54FF0FF0C4CF42F
:10057000E06C1CEA11541DBF1CEA135594EA0C0FE1
:1005800095EA0C0F00F0DEF82C4481EA030621EA1C
:100590004C5123EA4C5350EA013518BF52EA033557
:1005A00041F4801143F4801338D0A0FB02CE4FF009
:1005B0000005E1FB02E506F00042E0FB03E54FF039
:1005C0000006E1FB03569CF0000F18BF4EF0010E31
:1005D000A4F1FF04B6F5007F64F5407404D25FEA2D
:1005E0004E0E6D4146EB060642EAC62141EA5551E0
:1005F0004FEAC52040EA5E504FEACE2EB4F1FD0C22
:1006000088BFBCF5E06F1ED8BEF1004F08BF5FEA9F
:10061000500E50F1000041EB045170BD06F0004651
:1006200046EA010140EA020081EA0301B4EB5C04FE
:10063000C2BFD4EB0C0541EA045170BD41F48011F6
:100640004FF0000E013C00F3AB8014F1360FDEBF1B
:10065000002001F0004170BDC4F10004203C35DAF7
:100660000C341BDC04F11404C4F1200500FA05F37A
:1006700020FA04F001FA05F240EA020001F000421B
:1006800021F0004110EBD37021FA04F642EB060191
:100690005EEA430E08BF20EAD37070BDC4F10C04BB
:1006A000C4F1200500FA04F320FA05F001FA04F27F
:1006B00040EA020001F0004110EBD37041F100016B
:1006C0005EEA430E08BF20EAD37070BDC4F1200576
:1006D00000FA05F24EEA020E20FA04F301FA05F2DE
:1006E00043EA020321FA04F001F0004121FA04F286
:1006F00020EA020000EBD3705EEA430E08BF20EA56
:10070000D37070BD94F0000F0FD101F0004640008F
:1007100041EB010111F4801F08BF013CF7D041EA11
:10072000060195F0000F18BF704703F00046520015
:1007300043EB030313F4801F08BF013DF7D043EAE6
:100740000603704794EA0C0F0CEA135518BF95EA9C
:100750000C0F0CD050EA410618BF52EA4306D1D123
:1007600081EA030101F000414FF0000070BD50EA42
:10077000410606BF1046194652EA430619D094EACC
:100780000C0F02D150EA013613D195EA0C0F05D1B6
:1007900052EA03361CBF104619460AD181EA03010A
:1007A00001F0004141F0FE4141F470014FF00000C2
:1007B00070BD41F0FE4141F4780170BD70B54FF05D
:1007C000FF0C4CF4E06C1CEA11541DBF1CEA1355DD
:1007D00094EA0C0F95EA0C0F00F0A7F8A4EB0504BF
:1007E00081EA030E52EA03354FEA013100F08880B6
:1007F0004FEA03334FF0805545EA131343EA12637F
:100800004FEA022245EA111545EA10654FEA002633
:100810000EF000419D4208BF964244F1FD0404F5EC
:10082000407402D25B084FEA3202B61A65EB030548
:100830005B084FEA32024FF480104FF4002CB6EB05
:10084000020E75EB030E22BFB61A754640EA0C0085
:100850005B084FEA3202B6EB020E75EB030E22BFC5
:10086000B61A754640EA5C005B084FEA3202B6EB06
:10087000020E75EB030E22BFB61A754640EA9C00C5
:100880005B084FEA3202B6EB020E75EB030E22BF95
:10089000B61A754640EADC0055EA060E18D04FEA53
:1008A000051545EA16754FEA06164FEAC30343EAF3
:1008B00052734FEAC2025FEA1C1CC0D111F4801FC0
:1008C0000BD141EA00014FF000004FF0004CB6E7B9
:1008D00011F4801F04BF01430020B4F1FD0C88BF58
:1008E000BCF5E06F3FF6AFAEB5EB030C04BFB6EB63
:1008F000020C5FEA500C50F1000041EB045170BD56
:100900000EF0004E4EEA113114EB5C04C2BFD4EB82
:100910000C0541EA045170BD41F480114FF0000E06
:10092000013C90E645EA060E8DE60CEA135594EA82
:100930000C0F08BF95EA0C0F3FF43BAF94EA0C0F85
:100940000AD150EA01347FF434AF95EA0C0F7FF4FA
:1009500025AF104619462CE795EA0C0F06D152EA4E
:1009600003353FF4FDAE1046194622E750EA410632
:1009700018BF52EA43067FF4C5AE50EA41047FF443
:100980000DAF52EA43057FF4EBAE12E74FF0FF3CA8
:1009900006E000BF4FF0010C02E000BF4FF0010C79
:1009A0004DF804CD4FEA410C7FEA6C5C4FEA430CF2
:1009B00018BF7FEA6C5C1BD001B050EA410C0CBF41
:1009C00052EA430C91EA030F02BF90EA020F0020A3
:1009D000704710F1000F91EA030F58BF994208BF0A
:1009E00090422CBFD8176FEAE37040F001007047C7
:1009F0004FEA410C7FEA6C5C02D150EA013C07D11E
:100A00004FEA430C7FEA6C5CD6D152EA033CD3D068
:100A10005DF8040B704700BF8446104662468C4662
:100A20001946634600E000BF01B5FFF7B7FF002895
:100A300048BF10F1000F01BD4DF808EDFFF7F4FFBE
:100A40000CBF012000205DF808FB00BF4DF808ED49
:100A5000FFF7EAFF34BF012000205DF808FB00BF6C
:100A60004DF808EDFFF7E0FF94BF012000205DF88E
:100A700008FB00BF4DF808EDFFF7CEFF94BF012043
:100A800000205DF808FB00BF4DF808EDFFF7C4FF3C
:100A900034BF012000205DF808FB00BF4FEA410C85
:100AA0007FEA6C5C02D150EA013C0AD14FEA430C68
:100AB0007FEA6C5C02D152EA033C02D14FF00000A5
:100AC00070474FF0010070474FEA4102B2F1E04336
:100AD00024BFB3F5001CDCF1FE5C0DD901F0004C25
:100AE0004FEAC0024CEA5070B2F1004F40EB830075
:100AF00008BF20F00100704711F0804F21D113F1A1
:100B00003872BCBF01F00040704741F480114FEAD9
:100B10005252C2F11802C2F1200C10FA0CF320FA62
:100B200002F018BF40F001004FEAC1234FEAD3237F
:100B300003FA0CFC40EA0C0023FA02F34FEA4303E9
:100B4000CCE77FEA625307D150EA01331EBF4FF072
:100B5000FE4040F44000704701F0004040F0FE408D
:100B600040F40000704700BF53B94AB9002908BFDC
:100B700000281CBF4FF0FF314FF0FF3000F088B964
:100B8000ADF1080C6DE904CE00F006F8DDF804E0E4
:100B9000DDE9022304B070472DE9F047089D0F46B8
:100BA00004468C46002B48D18A42164661D9B2FAD7
:100BB00082F34BB1C3F1200201FA03FC20FA02F2E6
:100BC0009E4042EA0C0C9C404FEA164EB7B2BCFB6A
:100BD000FEF1220C0EFB11CC42EA0C4201FB07F0A5
:100BE000904209D9B21801F1FF3C80F0EE809042AA
:100BF00040F2EB8002393244121AA4B2B2FBFEF08A
:100C00000EFB102244EA024400FB07F7A74209D971
:100C1000341900F1FF3280F0DA80A74240F2D78029
:100C20003444023840EA0140E41B00211DB1DC409D
:100C30000023C5E90043BDE8F0878B4206D90DB11A
:100C4000C5E9000100210846BDE8F087B3FA83F149
:100C5000002948D1BB4202D3824200F20781841AA4
:100C600067EB030201209446002DE4D0C5E9004C57
:100C7000E1E7002A00F09280B2FA82F3002B40F004
:100C8000A8808A1A4FEA164E1FFA86FC0121200C12
:100C9000B2FBFEF70EFB172240EA02420CFB07F004
:100CA000904207D9B21807F1FF3802D2904200F201
:100CB000E2804746121AA4B2B2FBFEF00EFB1022ED
:100CC00044EA02440CFB00FCA44507D9341900F1A6
:100CD000FF3202D2A44500F2CB801046A4EB0C04F4
:100CE00040EA0740A2E7C1F120068B4022FA06FC49
:100CF0004CEA030C07FA01F420FA06F3F7404FEA36
:100D00001C49234300FA01F81FFA8CFEB7FBF9F0E7
:100D10001C0C09FB107744EA074400FB0EF7A742BE
:100D200002FA01F20AD91CEB040400F1FF3A80F048
:100D30009B80A74240F2988002386444E41B9FB233
:100D4000B4FBF9F309FB134447EA044403FB0EFE2A
:100D5000A64509D91CEB040403F1FF3780F082801B
:100D6000A6457FD9023B644443EA0040A4EB0E044D
:100D7000A0FB02E7BC427346B94663D360D05DB1C5
:100D8000B8EB030264EB090404FA06F622FA01F355
:100D90001E43CC40C5E9006400214CE762084808C6
:100DA00042EAC1710B0C43EA00438AB242EA0342B1
:100DB000B3FBF6F1E407B4463746B6461F23B0FB53
:100DC000F6F0D21B41EA004161E7614614E71046A4
:100DD00028E7C3F1200120FA01F29E4027FA01F131
:100DE0009F403A434FEA164E1FFA86FCB1FBFEF7CE
:100DF0000EFB1710110C41EA004107FB0CF8884567
:100E000004FA03F43AD9711807F1FF3001D288458A
:100E10001FD8A1EB0801B1FBFEF808FB0CF70EFB95
:100E2000181192B242EA0142BA422FD2B21808F126
:100E3000FF31C6D2BA42C4D2A8F102013244C0E79F
:100E4000F0459CD2BEEB020367EB0C070138B946B4
:100E500095E7A6EB08084144B81EB1FBFEF808FB75
:100E60000CF7DCE73B467FE7504667E70846FBE6C2
:100E70003444023832E7023F32441BE7A1EB080159
:100E80003846B1FBFEF808FB0CF7C8E7414698E787
:100E9000704700BF000000000000000000000000DC
:100EA00001F0FF01102A2BDB10F0070F08D010F81B
:100EB000013B013A8B422DD010F0070F42B3F6D11F
:100EC000F0B441EA012141EA014122F007047FF038
:100ED00000070023F0E80256083C85EA010586EA8F
:100EE000010685FA47F5A3FA87F586FA47F6A5FACB
:100EF00087F68EB9EED1F0BC01F0FF0102F00702D7
:100F000032B110F8013B013A83EA010313B1F8D181
:100F10000020704701387047002D06BF3546033862
:100F2000073815F0010F07D1013015F4807F02BF9B
:100F3000013015F4C03F0130F0BC0138704700BFEC
:100F4000704700F598730868496803C37047704795
:100F500003F054BC10B54FF4AE71044629F0EFFC19
:100F6000204610BD10B50446D0F8580103F00AFB26
:100F70002046BDE8104016F0ADBF10B50446D0F8CD
:100F8000400158B10368DB68984738B1D4F8400194
:100F900003689B6898470023C4F8403110BD0000E7
:100FA00010B5044603F0F6FB014B2360204610BD4C
:100FB000A0CC0208704704387047704710B5102164
:100FC000044629F0BCFC204610BDA0F10400F5E762
:100FD00000228260024A026018324260C16070479B
:100FE000F4CC0208704770477047000010B5034BFF
:100FF0000360044604F020FB204610BDC0DF020859
:1010000010B50446FFF7F2FF204641F2BC5129F02B
:1010100096FC204610BD10B500F58052D2F8B815E8
:10102000002907DD0139C2F8B8150368BDE8104092
:10103000DB6A184716F0A2FEBDE8104003F03EBC84
:1010400010B5044604F006FC044B236004F58053FD
:10105000B422C3F8B825204610BD00BFC0DF020887
:1010600010B5044604F0C8FA236804F580522046FF
:10107000DB6AD2F8B815BDE8104018477829F8B5F2
:10108000054623DC3C2923DC0029D4BF00240124AD
:1010900005F53377234605F538760E4A0A2138469A
:1010A0001AF04DFB23460B4A0A2130461AF047FB43
:1010B00005F50D70C5F87C72C5F8C86217F0F2FF2F
:1010C00005F52070BDE8F84017F0ECBF0324DFE71A
:1010D0000224DDE714CD02087047043870477047DA
:1010E00010B51021044629F02AFC204610BDA0F1BD
:1010F0000400F5E7806803F05FBA00000022826018
:10110000024A026018324260C1607047F8DF02088C
:1011100008B5806803F03CFA16F030FEBDE80840E0
:1011200003F0ECBB09F006B810B5034B03600446AE
:1011300004F0E8FD204610BD20E0020810B504468A
:10114000FFF7F2FF204641F2FC6129F0F8FB204650
:1011500010BD00002DE9F8432DED048BB0EE408A60
:1011600092ED000AD1ED007A0D9C9DF83890DFEDEC
:10117000489A20EE000A9846A7EEA70A06460D46B2
:10118000174629F025FCB4F90A3007EE903AF8EE3C
:10119000E77AB6EE009A67EE897AF5EEC07AF1EE5C
:1011A00010FA66DDB4F90630DDED0C6A07EE103A90
:1011B000F8EEE66AB8EEC77AA6EE898A37EE277AA5
:1011C00038EE478A88EE277AFFEE007AB4EEE77AA7
:1011D000F1EE10FA08D4F7EE007AB4EEE77AF1EE09
:1011E00010FAD8BFF0EE477ADFED2A8A60EE288A3F
:1011F00020EE008A68EEA78AB0EE480AA8EEE80A58
:10120000C7ED008A29F0E4FBB4EEC90AF1EE10FA4A
:101210001BD5F5EE007A38EE670AF5EEC08AF1EEDE
:1012200010FAB5EEC00AACBFB7EE008ABFEE008A76
:10123000F1EE10FAD8BFB0EE690A29F0C9FB20EE32
:10124000080A87ED000AB6EE000AB9F1000F13D0C4
:1012500085ED000AB4F90430B4F90820134407EE10
:10126000903AF8EEE77AC6ED007ABDEC048BBDE863
:10127000F883F0EE697AB7E7B1EE400A85ED000A2F
:10128000B4F90420A2EB080207EE902AE9E700BFB8
:10129000000000009A99593F10B4C4880368121BDB
:1012A00084885B6D091B12B25DF8044B09B21847C4
:1012B00010B5044604F040FD194B236004F580533B
:1012C00003F2BC621749116004F5B6521649116069
:1012D00003F2C461154A0A6003F5D96120460A6029
:1012E000002203F2EC6183F8CC26C3F8D026C3F8C1
:1012F000D426C3F8D826C3F8DC2683F8E026C3F842
:10130000E42683F8E82600220A6003F5DE610A601D
:1013100003F2F46103F5DF630A601A6010BD00BFD9
:1013200020E00208000020430000A0423333B33F16
:101330002DE9F341B2F904E00546086849686B46B7
:10134000BEF1000F03C319DDB2F90670002F15DDE1
:10135000BDF90480B2F90010B2F90230B8F1000F03
:1013600004DDBDF906C0BCF1000F41DCADF8001092
:10137000ADF80230ADF804E0ADF80670BDF90060DC
:10138000B6F5A07F31DABDF804403444A2B224B2ED
:10139000002C2ADDBDF90200EF2826DCBDF806107E
:1013A00001448BB209B200291FDDB4F5A07F26EA03
:1013B000E676A8BF4FF4A072F02920EAE070A8BF3B
:1013C000F023921B12B21B1A1BB2002AADF80420A4
:1013D000ADF80630ADF80060ADF8020005DD002B79
:1013E00003DD6946281D17F0A9FE02B0BDE8F081B3
:1013F000BDF90000BDF9022081420E46A8BF064695
:1014000093421C464044A8BF1446714462443B4486
:1014100000B209B212B21BB2ADF80060ADF80240E2
:101420008842ACBFC6EB0006C6EB01069A42ACBFD1
:10143000C4EB0204C4EB0304ADF80460ADF806404D
:101440009CE7F0B500F51C7585B004460E461746BE
:101450002946684617F0BCFE3A4631462846FFF753
:101460001BFF294602A817F0B3FE02AA69462046D0
:10147000FFF75EFF05B0F0BDF0B52DED048B85B034
:10148000F0EE408AB3EE009A0546684611EE107AF7
:10149000B0EE608A0C46164617F09AFE78EEC98ABE
:1014A0002368FDEEE88A204618EE902A1B6B11B2E5
:1014B000984738EE498A2368BDEEC88A204618EE60
:1014C000102A5B6B11B29847236820469B6B212141
:1014D000984723682046DB6B212198474FF4007220
:1014E0001146204612F050FF3846FEF7E5FF1FA3D5
:1014F000D3E90023FFF738F81B4B0022FFF75EF912
:10150000FFF7E2FA08EE100AB0EE480A29F082FA74
:10151000F3EE0E8AF0EE499AE0EE289AB0EE480A11
:1015200029F0B0FAA0EE289A2046F0EE497AFEEEB5
:10153000ED7A17EE902AF0EE697AFEEEED7A17EE6C
:10154000901A12F02CFF214602A884F8256017F0AB
:101550003FFE02AA69462846FFF7EAFE05B0BDEC49
:10156000048BF0BDAFF3008000806640182D44541A
:10157000FB2109402DE9F041054605F5805404F2B0
:10158000BC6704F0BDFB05F5B65808F0B1FD0023BB
:10159000334AC4F8D836C4F8DC3684F8E03604F2AE
:1015A000C4613A602F4AC8F800202F4A0A6004F547
:1015B000D96105F533700A6004F2EC61002284F809
:1015C000CC36C4F8D036C4F8D436C4F8E43684F83F
:1015D000E8360A6004F5DE6105F51C760A6004F25F
:1015E000F4610A6004F5DF610A6085F8F13285F87C
:1015F000753312F0D9FB05F5547012F0D5FB304667
:1016000012F0D2FB98ED007AD7ED007ABDEEC77AE2
:10161000FDEEE77A17EE103A1AB217EE903A284626
:1016200019B2FFF70EFF304612F0BEFBD4F8D836E1
:101630000E4A0A2105F57A701AF081F805F5CA708C
:1016400017F030FDD4F8DC36084A05F575700A212C
:101650001AF075F805F5A470BDE8F04117F022BD49
:10166000000020430000F0423333B33F14CD0208A2
:101670002DE9F0432DED028B044604F5805587B02B
:10168000043017F00FFD08F069FD95F8E036002BE7
:1016900040F07B81E04F386800231A460DF11701B6
:1016A0000EF04BFA002800F0848195F8CC3604F552
:1016B000B65604F51C77002B40F03484384612F0FF
:1016C00073FB05F2BC6205F2C463D2ED006AD3ED90
:1016D000007A76EEA76A4FF00009C2ED006A05F5C0
:1016E000D962D2ED007A96ED007A37EE877AB5EEC0
:1016F000C07AF1EE10FA86ED007A40F17183C6F8F7
:101700000090F1EE677AC2ED007AB4F9F420B4F9F2
:10171000F830B4F97882134407EE903AF8EEE77A9D
:10172000F4EEE76AF1EE10FA3BD807EE902AF8EEF5
:10173000E77AF4EEE76AF1EE10FA32DBB4F97A22D6
:10174000B4F9F61096ED000A07EE902A07EE101A8B
:10175000F8EEE77AB8EEC77A77EE807AF4EEC77AD9
:10176000F1EE10FA1DDBB4F9FA300B4407EE903AB3
:10177000F8EEE77AB4EEE70AF1EE10FA11D8012399
:10178000029304F1F003CDE9002304F5B65104F50A
:10179000B65204F5B5504346083204311C30FFF709
:1017A000D9FC05F2BC6307EE908A93ED007AB4F998
:1017B0002031B8EEE78A07EE903A38EE077AF8EE75
:1017C000E77AB4EEE77AF1EE10FA3EDBB4F92421C1
:1017D0001A4407EE902AF8EEE77AB4EEE77AF1EED3
:1017E00010FA32D8B4F97A32B4F9221196ED000A1F
:1017F00007EE903A07EE101AF8EEE77AB8EEC77ADD
:1018000077EE807AF4EEC77AF1EE10FA1DDBB4F9C8
:1018100026210A4407EE902AF8EEE77AB4EEE70AAA
:10182000F1EE10FA11D80022029204F58E72CDE981
:10183000003204F5B65104F5B65204F5B5504346EE
:10184000083204311C30FFF785FC05F2BC63D3ED90
:10185000007AF5EEC07AF1EE10FA40F1F182D5F897
:10186000DC366E4A0133C5F8DC360A2104F57570A2
:1018700019F065FF04F5A47017F014FC08F0B0FC33
:10188000D5F8DC360A2B06DD012385F8E036E06B5F
:101890000221FFF73DFC002384F89532384612F010
:1018A00083FA3C23C5F8D0360122022385F8CC26E2
:1018B000C5F8D436B4F97802B4F920319FED581A3E
:1018C0001B1A0A3B00EE103AB8EEC00A05F2BC68DB
:1018D00088ED000AB4F92631B4F97A1203EBD37C0F
:1018E000B4F9223107EE900A03EB6C0301EBD17CD3
:1018F000A3EB6C0300EE903AB8EEE77A07EE901A8D
:10190000F8EEE00AF8EEE77A05F5DE63F6EE006A37
:10191000C6ED000AA7EE260AC3F8009005F5DF63BE
:10192000E7EEA60AC3F8009004F554712046FFF7CD
:10193000A3FD96ED007AD8ED007ABDEEC77AFDEEF4
:10194000E77A17EE103A1AB217EE903A204619B21B
:10195000FFF777FD96ED007A05F2BC65BDEEC77A1C
:10196000D5ED007A17EE103AFDEEE77A1AB217EECF
:10197000903A204619B2FFF764FD384612F014FA87
:1019800007B0BDEC028BBDE8F08308F0D3FB002369
:1019900004F5337084F8F13284F8753312F004FAE8
:1019A00004F5547007B0BDEC028BBDE8F04312F0B3
:1019B000FBB99DF81730092B3FF66DAEDFE813F049
:1019C0000A0023005100A70036004900C500160197
:1019D0003601A101B4F9F6309E1C36B2C62EA8BF5E
:1019E000C626B3423FF457AE04F1F008404617F064
:1019F00059FBB4F9F41032464046FFF74DFC40461F
:101A000017F050FB47E6B4F9F6309E1E36B2022EB0
:101A1000B8BF0226E5E700BF742F002014CD0208EE
:101A200000000000CDCC4C3E00003443B4F922311C
:101A30009E1C36B2C62EA8BFC626B3423FF42BAEBC
:101A400004F58E78404617F02DFBB4F9201132468C
:101A5000D2E7B4F922319E1E36B2022EB8BF02265A
:101A6000EBE795F8CC36002B3FF415AED5F8D466ED
:101A7000012E7FF410AE05F2EC63D3ED007A1FED7A
:101A8000177A77EEC77AB8EE000AB4EEE70AF1EEFD
:101A900010FAD8BFB0EE670A83ED000AF0EE000A34
:101AA00028F094FF5FED207A60EE277A17EE900A17
:101AB000FEF702FDD8A3D3E90023FEF77FFEFFF770
:101AC00003F805F2F463F6EE006A1860B4F97832B0
:101AD00007EE903A05F2BC6393ED000AB4F97A324E
:101AE00007EE103A04F5B653F8EEE77AB8EEC77A87
:101AF000D3ED000AA7EEA60A3246E7EE260A01EE6B
:101B0000100A04F533712046FFF7B6FCC3E595F8DB
:101B1000CC36002B3FF4BFADD5F8D466012E7FF450
:101B2000BAAD05F2EC6393ED000ADFEDC17A30EE59
:101B3000270AF0EE000AB4EEE00AF1EE10FAC8BF90
:101B4000B0EE600A83ED000AAAE795F8CC36002BC8
:101B50003FF4A1ADD5F8D436022B7FF49CAD05F54A
:101B6000DE6393ED000ADFEDB27A30EE670AF8EE3D
:101B7000000AF4EEC00AF1EE10FAC8BFB0EE600A37
:101B800083ED000A28F022FFDFEDAA7A60EE277AC3
:101B900017EE900AFEF790FC9FA3D3E90023FEF70F
:101BA0000DFEFEF791FF05F5DF63F6EE006A1860A3
:101BB000B4F9783207EE903A05F2BC6393ED000A6F
:101BC000B4F97A3207EE103A04F5B653F8EEE77A34
:101BD000B8EEC77AD3ED000AA7EEA60A0122E7EE17
:101BE000260A01EE100A04F554718CE795F8CC36FC
:101BF000002B3FF450ADD5F8D436022B7FF44BAD1B
:101C000005F5DE63D3ED007A9FED897A77EE877A6A
:101C1000B0EE000AF4EEC07AF1EE10FAD8BFB0EEE2
:101C2000670A83ED000AF8EE000AABE795F8CC36B8
:101C3000002B3FF430ADD5F8D436012B7FF42BAD1B
:101C4000002385F8CC3605F2EC63D3ED008AF1EE83
:101C5000007AE8EEE87AB6EE008A17EE900AFEF710
:101C60002BFC41EC100B28F07DFE51EC100BFEF725
:101C70002BFF07EE900A05F2C463F4EEC87A05F56F
:101C8000D962F1EE10FA1860C2ED008A0ED5F5EEB9
:101C9000C08AF1EE10FA83ED008A2EDB60A1D1E953
:101CA0000001FEF711FF05F5D9663060012384F8C5
:101CB000953204F51C7012F077F8B4F978320022EE
:101CC00084F8F12207EE903A05F2BC6393ED000A26
:101CD000B4F97A3207EE103A04F5B653D3ED000AA0
:101CE000F8EEE77AB8EEC77A05F2F463E7EE080A91
:101CF000A7EE880A93ED001A03E74BA1D1E9000192
:101D0000CFE795F8CC36002B3FF4C5ACD5F8D436E8
:101D1000022B7FF4C0AC002385F8CC3605F5DE63DA
:101D200093ED008AF1EE007AE8EE487AF6EE008A4A
:101D300017EE900AFEF7C0FB41EC100B28F012FEE4
:101D400051EC100BFEF7C0FE07EE900AF4EEE87AB5
:101D500005F2C463B1EE677A05F5D962F1EE10FAC7
:101D600083ED007A82ED008A0FD5B5EEC08A4FF080
:101D70003F42F1EE10FA1A602EDB29A1D1E90001F1
:101D8000FEF7A2FE05F5D9663060012384F895328E
:101D900004F51C7012F008F8B4F97832002284F8C7
:101DA000752307EE903A05F2BC6393ED000AB4F98F
:101DB0007A3207EE103A04F5B653D3ED000AF8EE86
:101DC000E77AB8EEC77A05F5DF63E7EE280AA7EEF3
:101DD000A80A93ED001A06E713A1D1E90001CFE7A5
:101DE000B4F97A3206EE103AB8EEC66A36EE077AE1
:101DF0009FED116AB4EEC67AF1EE10FA7FF785AC6A
:101E0000C3F1F00307EE103AB8EEC77A86ED007A18
:101E100077E400BFAFF30080182D4454FB21094044
:101E2000DA4E4FB1DEFBFE3FDA4E4FB1DEFBFEBFB6
:101E3000CDCC4C3E00003443000070430000A04372
:101E400038EE278A5FED037AB4EEE78AF1EE10FAF6
:101E50007FF780ADD5F8D8366C4A0133C5F8D8364F
:101E60000A2104F57A7019F06AFC04F5CA7017F0BB
:101E700019F908F0B5F9D5F8D8360A2B05DD012196
:101E800085F8E016E06BFFF743F9002384F89532FC
:101E9000384611F089FF01223C2385F8CC26C5F88D
:101EA000D036C5F8D426B4F9F810B4F9F4309FED63
:101EB000581A0B440A3300EE103AB8EEC00A05F285
:101EC000BC6888ED000AB4F9FA30B4F97A1203EB71
:101ED000D370B4F9F63003EB600301EBD170A3EBE0
:101EE000600300EE903A05F2EC63F8EEE00A07EECC
:101EF000901AC6ED000AC3F8009005F2F463F8EEFC
:101F0000E77AC3F80090B4F9783207EE103AB8EEE9
:101F1000C77AF6EE006AE7EEA60A04F53371A7EE7B
:101F2000260A03E5D5F8D036002B09DD013BC5F8BC
:101F3000D0362BB9012384F89532384611F034FF9E
:101F4000D5F8D42605F2BC63012A93ED000A2DD101
:101F5000B4F9FA30B4F97A1203EBD370B4F9F6306D
:101F600003EB600301EBD170A3EB600300EE903A4A
:101F7000F8EEE00A07EE901AC6ED000AB4F97832DE
:101F800007EE103AF8EEE77AB8EEC77AF6EE006A96
:101F9000E7EEA60A05F2F46304F53371A7EE260A0C
:101FA00093ED001A2046FFF767FAD3E4022A7FF484
:101FB000D1ACB4F92631B4F97A2203EBD371B4F978
:101FC000223103EB610302EBD271A3EB610300EE5C
:101FD000903AF8EEE00A07EE902AC6ED000AB4F94E
:101FE000783207EE103AF8EEE77AB8EEC77AF6EEF6
:101FF000006A05F5DF63E7EEA60A012204F55471D5
:10200000A7EE260A93ED001ACCE700BF14CD020814
:1020100000000000704704387047C0680368DB6A3E
:102020001847704710B51021044628F088FC204658
:1020300010BDA0F10400F5E700228260024A0260B0
:1020400018324260C160704754E00208806802F0B4
:10205000A5BA70477047000010B5034B03600446F3
:1020600004F04DF9204610BD7CE0020810B504468E
:10207000FFF7F2FF20464FF4CC7128F060FC2046B9
:1020800010BD000010B5044604F0B0F9014B236008
:10209000204610BD7CE0020804F032B938B50121B9
:1020A0000446C06BFFF7D2FF00BBE06B0221FFF7D5
:1020B000CDFF031E18BF01235B0004F5BA750C4A5F
:1020C0000A21284619F03BFB0023C4F8285104F1EB
:1020D000E005A4F88631284612F0C2FD012384F8F9
:1020E00005312846BDE8384016F0DCBF0123E4E79F
:1020F00014CD0208704704387047704710B510219E
:10210000044628F01CFC204610BDA0F10400F5E7B1
:1021100000228260024A026018324260C160704749
:10212000B4E002087047000010B5034B036004469A
:1021300004F05EFA204610BDDCE0020810B504464B
:10214000FFF7F2FF204641F2D46128F0F8FB204669
:1021500010BD10B500F58052D2F8D016002907DD69
:102160000139C2F8D0160368BDE81040DB6A184791
:1021700015F004FEBDE8104002F060BB10B5044647
:1021800004F08EFA044B236004F58053B422C3F8A4
:10219000D026204610BD00BFDCE0020810B5044682
:1021A00004F024FA236804F580522046DB6AD2F852
:1021B000D016BDE8104018477829F8B5054623DC4D
:1021C0003C2923DC0029D4BF0024012405F57977BC
:1021D000234605F57E760E4A0A21384619F0AFFAF5
:1021E00023460B4A0A21304619F0A9FA05F5277053
:1021F000C5F8E472C5F8306316F054FF05F53A707F
:10220000BDE8F84016F04EBF0324DFE70224DDE707
:1022100014CD0208704704387047704710B510217C
:10222000044628F08CFB204610BDA0F10400F5E721
:1022300000228260024A026018324260C160704728
:1022400014E1020808B5806802F0A2F915F096FDC5
:10225000BDE8084002F052BB07F06CBF10B5034B5D
:102260000360044604F012FD204610BD3CE1020864
:1022700010B50446FFF7F2FF204641F6140128F09E
:102280005EFB204610BD00002DE9F8432DED048BC8
:10229000B0EE408A92ED000AD1ED007A0D9C9DF8D7
:1022A0003890DFED489A20EE000A9846A7EEA70A7C
:1022B00006460D46174628F08BFBB4F90A3007EEA8
:1022C000903AF8EEE77AB6EE009A67EE897AF5EE84
:1022D000C07AF1EE10FA66DDB4F90630DDED0C6A75
:1022E00007EE103AF8EEE66AB8EEC77AA6EE898AEB
:1022F00037EE277A38EE478A88EE277AFFEE007AA3
:10230000B4EEE77AF1EE10FA08D4F7EE007AB4EE04
:10231000E77AF1EE10FAD8BFF0EE477ADFED2A8ABD
:1023200060EE288A20EE008A68EEA78AB0EE480A9E
:10233000A8EEE80AC7ED008A28F04AFBB4EEC90A05
:10234000F1EE10FA1BD5F5EE007A38EE670AF5EEDD
:10235000C08AF1EE10FAB5EEC00AACBFB7EE008A43
:10236000BFEE008AF1EE10FAD8BFB0EE690A28F08D
:102370002FFB20EE080A87ED000AB6EE000AB9F13D
:10238000000F13D085ED000AB4F90430B4F9082029
:10239000134407EE903AF8EEE77AC6ED007ABDEC0A
:1023A000048BBDE8F883F0EE697AB7E7B1EE400A36
:1023B00085ED000AB4F90420A2EB080207EE902A8A
:1023C000E9E700BF000000009A99593F10B5B1F944
:1023D00000408A88B0F90030224412B2934215DAE4
:1023E000828813441BB29C4210DAB1F90230C988CA
:1023F000B0F90220194409B28A4207DAC1880A44B6
:1024000012B29342ACBF0020012010BD0020FCE7B7
:1024100010B5044604F054FC194B236004F58053B6
:1024200003F2D4721749116003F5FB62164911607B
:1024300003F2DC71154A0A6004F5BF5120460A60B8
:10244000002203F6040183F8E427C3F8E827C3F861
:10245000EC27C3F8F027C3F8F42783F8F827C3F86C
:10246000FC2783F8002800220A6003F608010A60AE
:1024700003F60C0103F501630A601A6010BD00BF8A
:102480003CE10208000020430000F042CDCCCC3FEC
:1024900073B500F51C760D4604463146684616F0C5
:1024A00097FE69462846FFF791FF10B1304616F0B7
:1024B000F9FD04F529763146684616F089FE69462D
:1024C0002846FFF783FF10B1304616F0EBFD04F508
:1024D0004D763146684616F07BFE69462846FFF782
:1024E00075FF10B1304616F0DDFD04F55876314623
:1024F000684616F06DFE69462846FFF767FF10B183
:10250000304616F0CFFD04F563763146684616F086
:102510005FFE69462846FFF759FF10B1304616F0B6
:10252000C1FD04F56E742146684616F051FE6946F9
:102530002846FFF74BFF28B1204602B0BDE87040A7
:1025400016F0B0BD02B070BD2DE9FF41B2F904E054
:102550000446086849686B46BEF1000F03C319DDE5
:10256000B2F90670002F15DDBDF90480B2F9001034
:10257000B2F90230B8F1000F04DDBDF906C0BCF1BC
:10258000000F45DCADF80010ADF80230ADF804E006
:10259000ADF80670334B002202A96846CDE902234C
:1025A000FFF714FF88B3BDF90020BDF80430BDF972
:1025B000021022EAE2751A4493B212B2B2F5A07F79
:1025C000A8BF4FF4A0735B1B1AB2BDF80630ADF87C
:1025D000042021EAE17019448BB209B2F029A8BFA6
:1025E000F0231B1A1BB2002AADF80630ADF80050DC
:1025F000ADF8020009DD002B07DD6946201D16F04D
:102600009DFD69462046FFF743FF04B0BDE8F08119
:10261000BDF90000BDF9022081420E46A8BF064662
:1026200093421D464044A8BF1546714462443B4452
:1026300000B209B212B21BB2ADF80060ADF80250A0
:102640008842ACBFC6EB0006C6EB01069A42ACBF9F
:10265000C5EB0205C5EB0305ADF80460ADF8065007
:1026600098E700BF4001F000F0B500F5367585B081
:1026700004460E4617462946684616F0A9FD3A4616
:1026800031462846FEF708FE294602A816F0A0FDAE
:1026900002AA69462046FFF757FF05B0F0BD0000CB
:1026A000F0B52DED048B85B0F0EE408AB3EE009AC4
:1026B0000546684611EE107AB0EE608A0C46164662
:1026C00016F086FD78EEC98A2368FDEEE88A20467A
:1026D00018EE902A1B6B11B2984738EE498A23688E
:1026E000BDEEC88A204618EE102A5B6B11B29847DF
:1026F000236820469B6B2121984723682046DB6B8B
:10270000212198474FF400721146204611F03CFEFB
:102710003846FDF7D1FE1FA3D3E90023FDF724FFC0
:102720001B4B0022FEF74AF8FEF7CEF908EE100A1E
:10273000B0EE480A28F06EF9F3EE0E8AF0EE499AF0
:10274000E0EE289AB0EE480A28F09CF9A0EE289A0C
:102750002046F0EE497AFEEEED7A17EE902AF0EE82
:10276000697AFEEEED7A17EE901A11F018FE214606
:1027700002A884F8256016F02BFD02AA69462846B7
:10278000FFF7E2FE05B0BDEC048BF0BDAFF30080B7
:1027900000806640182D4454FB21094038B52DEDCA
:1027A000028BB0F9E03200F5805507EE903A05F261
:1027B000D47393ED008AB0F9E232F8EEE77AB6EE20
:1027C000007AA7EE878A00F57971002207EE903A29
:1027D00005F5FB63D3ED008AF8EEE77A05F60C0306
:1027E000E7EE878A044605F5016593ED001AF0EEE1
:1027F000680AB0EE480AFFF753FFF0EE680AB0EE41
:10280000480ABDEC028B95ED001A04F58D61204657
:102810000022BDE83840FFF743BF38B504460D46F7
:10282000FFF7BCFFB4F9E03207EE903A04F58053AD
:1028300003F2D472F8EEE77A92ED000AB4F9E222DC
:10284000B6EE007AA7EE870A012D07EE902A03F56F
:10285000FB62F8EEE77AD2ED000AE7EE870A0BD1C9
:1028600003F60C0393ED001A2A4604F5797120460D
:10287000BDE83840FFF714BF022D07D103F501630F
:1028800093ED001A012204F58D61F0E738BD10B513
:102890000446403016F006FC04F16C0016F002FC11
:1028A00004F1980016F0FEFB04F1C40016F0FAFBE8
:1028B00004F51C7016F0F6FB04F5297016F0F2FB17
:1028C00004F54D7016F0EEFB04F5587016F0EAFBB7
:1028D00004F5637016F0E6FB04F56E70BDE8104079
:1028E00016F0E0BB2DE9F041054605F5805404F2F1
:1028F000D47704F0C9F904F5FB6807F0F9FB00236D
:102900002F4AC4F8F037C4F8F43784F8F83704F2E3
:10291000DC713A602B4AC8F800202B4A0A6005F5A2
:10292000BF5128460A6004F6040284F8E437C4F86C
:10293000E837C4F8EC37C4F8FC3784F800380023D3
:10294000136004F6080205F53676136004F60C02EF
:10295000136004F501621360FFF720FF304611F0A9
:1029600023FA98ED007AD7ED007ABDEEC77AFDEE36
:10297000E77A17EE103A1AB217EE903A284619B2D3
:10298000FFF772FE304611F00FFAD4F8F0370F4A15
:102990000A2105F5A06018F0D2FE05F5CA7016F000
:1029A00081FBD4F8F437094A05F2EC400A2118F00B
:1029B000C6FE05F5A470BDE8F04116F073BB00BF7C
:1029C000000020430000F042CDCCCC3F14CD0208E3
:1029D0002DE9F0472DED028B044686B0043004F556
:1029E000805516F05FFB2046FFF751FF07F0B6FB5E
:1029F00095F8F837002B40F02182DF4F386800232C
:102A00001A460DF117010DF098F8002800F0208209
:102A100095F8E49704F53677B9F1000F40F060853A
:102A2000384611F0C1F905F2D47205F2DC73D2ED2B
:102A3000006AD3ED007A76EEA76A04F5BF56C2EDC0
:102A4000006A05F5FB62D6ED007A92ED007A37EE6A
:102A5000877A4FF00008B5EEC07AF1EE10FA82EDF9
:102A6000007A40F16083C2F80080F1EE677AC6ED2B
:102A7000007AB4F9F420B4F9F830B4F9E0A21344C0
:102A800007EE903AF8EEE77AF4EEE76AF1EE10FA24
:102A90003BD807EE902AF8EEE77AF4EEE76AF1EE1B
:102AA00010FA32DBB4F9E222B4F9F61007EE902AFC
:102AB00005F5FB6393ED000AF8EEE77A07EE101ACE
:102AC00077EE807AB8EEC77AF4EEC77AF1EE10FAB4
:102AD0001BDBB4F9FA300B4407EE903AF8EEE77AD4
:102AE000B4EEE70AF1EE10FA0FD80123029304F5D1
:102AF000BE5104F1F00304F5BE50CDE900231C31B2
:102B0000534632461430FFF7BFFB07EE90AAB4F9E4
:102B1000202105F2D473B8EEE78AD3ED006A07EE00
:102B2000902A78EE266AF8EEE77AF4EEE76AF1EE9C
:102B300010FA3EDBB4F92431134407EE903AB8EEB4
:102B4000E77AF4EEC76AF1EE10FA32D805F5FB63C6
:102B500093ED000AB4F9E232B4F9221107EE903A8B
:102B6000B8EEE77A07EE901A37EE007AF8EEE77AD9
:102B7000B4EEE77AF1EE10FA1BDBB4F926210A4431
:102B800007EE902AB8EEE77AB4EEC70AF1EE10FA33
:102B90000FD80022029204F5BE5104F58E7204F59E
:102BA000BE50CDE900321C31534632461430FFF797
:102BB0006BFBB4F9382305F2D47393ED007A06EE7B
:102BC000902A78EE077AF8EEE66AF4EEE67AF1EE0D
:102BD00010FAC0F2D782B4F93C33134406EE903AAF
:102BE000F8EEE66AB4EEE67AF1EE10FA00F2CA8286
:102BF00005F5FB6393ED006AB4F9E232B4F93A23C8
:102C000006EE903A05EE902AF8EEE66AF8EEE55AFE
:102C100076EE866AF4EEE56AF1EE10FAC0F2B28260
:102C2000B4F93E33134406EE903AF8EEE66AB4EE99
:102C3000E66AF1EE10FA00F2A58205F2DC73D3ED3C
:102C4000006AF5EEC06AF1EE10FA40F39D820226AA
:102C50004FF00109B4F9642306EE902AF8EEE66A13
:102C6000F4EEE67AF1EE10FA3CDBB4F96833134483
:102C700006EE903AF8EEE66AB4EEE67AF1EE10FA75
:102C800030D805F5FB6393ED006AB4F9E232B4F98C
:102C9000662306EE903A05EE902AF8EEE66AF8EE24
:102CA000E55A76EE866AF4EEE56AF1EE10FA19DB83
:102CB000B4F96A33134406EE903AF8EEE66AB4EEDD
:102CC000E66AF1EE10FA0DD805F2DC73D3ED006A76
:102CD000F5EEC06AF1EE10FAD3BF012602264FF0DE
:102CE0000109B146B4F9902306EE902AF8EEE66A9F
:102CF000F4EEE67AF1EE10FA40DBB4F994331344C3
:102D000006EE903AF8EEE66AB4EEE67AF1EE10FAE4
:102D100034D805F5FB6393ED006AB4F9E232B4F9F7
:102D2000922306EE903A05EE902AF8EEE66AF8EE67
:102D3000E55A76EE866AF4EEE56AF1EE10FA1DDBEE
:102D4000B4F99633134406EE903AF8EEE66AB4EE20
:102D5000E66AF1EE10FA11D805F2DC73D3ED006AE1
:102D6000F5EEC06AF1EE10FAD3BF012602264FF04D
:102D70000109B14602E000BF742F0020B4F9BC2362
:102D800006EE902AF8EEE66AF4EEE67AF1EE10FA34
:102D90002FDBB4F9C033134407EE903AF8EEE77A2C
:102DA000B4EEE77AF1EE10FA23D805F5FB63D3ED24
:102DB000006AB4F9E232B4F9BE2307EE903A06EEA7
:102DC000102AF8EEE77AB8EEC66A77EEA67AF4EE45
:102DD000C67AF1EE10FA0CDBB4F9C233134407EEF5
:102DE000903AF8EEE77AF4EEE76AF1EE10FA40F284
:102DF000CF81B9F1000F00F06282022E40F0D38142
:102E0000D5F8F437DA4A0133C5F8F4370A2104F269
:102E1000EC4018F094FC04F5A47016F043F907F0A8
:102E2000DFF9D5F8F4370A2B06DD012385F8F837EA
:102E3000E06B0221FFF706FA0226CFE107F07AF9EC
:102E4000204606B0BDEC028BBDE8F047FFF7A6BCFC
:102E50009DF81730092B3FF6D1ADDFE813F00A00DB
:102E6000230046007F002B003E009D00BF00DF00D6
:102E70002C01B4F9F6309E1C36B2C62EA8BFC62669
:102E80009E423FF4BBAD04F1F008404616F00AF94B
:102E9000B4F9F41032464046FEF7FEF9404616F00B
:102EA00001F9ABE5B4F9F6309E1E36B2022EB8BF7A
:102EB0000226E5E7B4F922319E1C36B2C62EA8BF21
:102EC000C6269E423FF49AAD04F58E78404616F031
:102ED000E9F8B4F920113246DDE7B4F922319E1E3B
:102EE00036B2022EB8BF0226EBE795F8E437002B86
:102EF0003FF484ADD5F8EC67012E7FF47FAD05F685
:102F00000403D3ED007A9FED9B7A77EEC77AB8EE93
:102F1000000AB4EEE70AF1EE10FAD8BFB0EE670A85
:102F200083ED000AF0EE000A27F050FD05F60C08CC
:102F3000DFED917A60EE277A17EE900AFDF7BCFA82
:102F400085A3D3E90023FDF739FCFDF7BDFD31462C
:102F5000C8F800002046FFF760FC4FE595F8E4371D
:102F6000002B3FF44BADD5F8EC67012E7FF446AD56
:102F700005F6040393ED000ADFED7E7A30EE270AB2
:102F8000F0EE000AB4EEE00AF1EE10FAC8BFB0EEBF
:102F9000600A83ED000AC7E795F8E437002B3FF499
:102FA0002DADD5F8EC67022E7FF428AD05F60803A9
:102FB00093ED000ADFED6F7A30EE670AF8EE000A53
:102FC000F4EEC00AF1EE10FAC8BFB0EE600A83ED6D
:102FD000000A27F0FBFC05F50168A9E795F8E4373E
:102FE000002B3FF40BADD5F8EC67022E7FF406AD55
:102FF00005F60803D3ED007A9FED5E7A77EE877AC7
:10300000B0EE000AF4EEC07AF1EE10FAD8BFB0EEDE
:10301000670A83ED000AF8EE000ADAE795F8E4376C
:10302000002B3FF4EBACD5F8EC37012B7FF4E6AC8A
:10303000002385F8E43705F6040393ED008ADFEDFD
:103040004F7AE8EE487A04F5BF5617EE900AFDF77E
:1030500033FA41EC100B27F085FC51EC100BFDF717
:1030600033FD07EE900AB6EE007A05F2DC73F4EE5B
:10307000C77AF1EE10FA186086ED008A10D583ED5C
:10308000007AB5EEC08AF1EE10FA03DB34A1D1E983
:10309000000102E034A1D1E90001FDF715FD306027
:1030A000012304F5367084F8FD3210F07DFE2046D1
:1030B000FFF774FBA2E495F8E437002B3FF49EACD5
:1030C000D5F8EC37022B7FF499AC002385F8E43770
:1030D00005F6080393ED008ADFED287AE8EE487ADA
:1030E00004F5BF5617EE900AFDF7E6F941EC100B18
:1030F00027F038FC51EC100BFDF7E6FC07EE900AC8
:1031000005F2DC73B1EE677A83ED007AB6EE007AF1
:10311000F4EEC77AF1EE10FA86ED008AC0D54FF0D2
:103120003F421A60ADE7B4F9E23206EE103AB8EE6B
:10313000C66A36EE077A9FED126AB4EEC67AF1EEF1
:1031400010FA7FF796ACC3F1F00307EE103AB8EE31
:10315000C77A82ED007A88E4182D4454FB21094097
:10316000836DE7A2BFF50140836DE7A2BFF501C003
:1031700014CD0208CDCC4C3E00003443AE47A940EC
:1031800000007043002665E54FF001094E4661E5F9
:1031900005F2DC73D3ED007AF5EEC07AF1EE10FAA9
:1031A0003FF72EAE0126D5F8F037E84A0133C5F8CF
:1031B000F0370A2104F5A06018F0C1FA04F5CA70CE
:1031C00015F070FF07F00CF8D5F8F0370A2B05DD85
:1031D000012185F8F817E06BFFF734F8002384F835
:1031E000FD32384610F0E0FD012385F8E4373C233A
:1031F000C5F8E837C5F8EC67B4F9E222012E02EB16
:10320000D2724FEA620205F2D47005F5FB6131D14A
:10321000B4F9F430B4F9F8C063440A3307EE903AD5
:10322000F8EEE77AC0ED007AB4F9FA3003EBD37028
:10323000B4F9F63003EB60039B1A07EE903A05F6FB
:103240000403F8EEE77AC1ED007AC3F8008005F6D2
:103250000C033146C3F800802046FFF7DEFA05F57F
:10326000FB6393ED007A05F2D475BDEEC77AD5ED18
:10327000007A9DE0B4F92031B4F9E0629B1B0A3B6F
:1032800007EE903AF8EEE77AC0ED007AB4F926310D
:1032900003EBD370B4F9223103EB60039B1A07EE02
:1032A000903A05F60803F8EEE77AC1ED007AC3F824
:1032B000008005F501630221C3F80080CCE7DFED53
:1032C000A46AB4EEE67A05F5FB63F1EE10FAD3EDED
:1032D000007A75DD9FED9F7AF4EEC77AF1EE10FA71
:1032E00040F3D9809FED9C7AF4EEC77AF1EE10FAA4
:1032F00040F1D180D5F8F037944A0133C5F8F03762
:103300000A2104F5A06018F01AFA04F5CA7015F045
:10331000C9FE06F065FFD5F8F0370A2B05DD01215F
:1033200085F8F817E06BFEF78DFF002384F8FD3277
:10333000384610F039FD01213C2385F8E417C5F823
:10334000E837C5F8EC17B4F9F820B4F9F4301344B1
:103350000A3307EE903AF8EEE77A05F2D476C6ED36
:10336000007AB4F9FA3003EBD372B4F9F63003EB18
:103370006203B4F9E22202EBD272A3EB620307EE1E
:10338000903A05F60403F8EEE77A05F5FB69C9ED16
:10339000007A05F60C05C3F80080C5F800802046C9
:1033A000FFF73BFA99ED007AD6ED007ABDEEC77AC9
:1033B00017EE103AFDEEE77A1AB217EE903A83E074
:1033C000F7EE006AB4EEE67AF1EE10FA6FD59FEDF3
:1033D000617AF4EEC77AF1EE10FA5CDD9FED5E7A69
:1033E000F4EEC77AF1EE10FA55D5D5F8F437574A0E
:1033F0000133C5F8F4370A2104F2EC4018F09FF9C4
:1034000004F5A47015F04EFE06F0EAFED5F8F43788
:103410000A2B06DD012385F8F837E06B0221FEF761
:1034200011FF002384F8FD32384610F0BDFC012363
:1034300085F8E43702213C23C5F8E837C5F8EC17D6
:10344000B4F9E022B4F920319B1A0A3B07EE903A16
:10345000F8EEE77A05F2D476C6ED007AB4F92631B3
:1034600003EBD372B4F9223103EB6203B4F9E22225
:1034700002EBD272A3EB620307EE903A05F6080363
:10348000F8EEE77A05F5FB69C9ED007A05F5016507
:10349000C3F8008081E705F2D473C3ED006A05F23A
:1034A000DC7393ED007AB1EE477A83ED007A05F292
:1034B000D475FDEEE77A95ED007A17EE903ABDEE01
:1034C000C77A1AB217EE103A19B22046FFF7CCF8B5
:1034D000384610F069FC06B0BDEC028BBDE8F08701
:1034E000D5F8E837002B09DD013BC5F8E8372BB9E3
:1034F000012384F8FD32384610F056FCD5F8EC175D
:10350000012916D1B4F9FA3003EBD372B4F9F630CD
:1035100005F5FB6003EB6203B4F9E22202EBD27221
:10352000A3EB620307EE903AF8EEE77AC0ED007A7B
:1035300092E602297FF493AEB4F9263105F5FB60DB
:1035400003EBD372B4F92231E4E700BF14CD0208D3
:1035500000809F43000070420000354370470438EC
:103560007047704710B51021044627F0E8F920464F
:1035700010BDA0F10400F5E700228260024A02605B
:1035800018324260C160704770E102087047000065
:1035900010B5034B0360044603F024FF204610BD22
:1035A00098E1020810B50446FFF7F2FF204641F209
:1035B000246127F0C4F9204610BD10B500F58052F3
:1035C000D2F82016002907DD0139C2F82016036859
:1035D000BDE81040DB6A184714F0D0FBBDE810408E
:1035E00001F04CB910B5044603F028FF044B2360EA
:1035F00004F58053B422C3F82026204610BD00BF36
:1036000098E1020810B5044603F0EAFE236804F5C9
:1036100080522046DB6AD2F82016BDE810401847D9
:103620007829F8B5054623DC3C2923DC0029D4BFE2
:103630000024012405F54D77234605F552760E4A00
:103640000A21384618F07BF823460B4A0A213046F7
:1036500018F075F805F50D70C5F87C72C5F8306383
:1036600015F020FD05F53A70BDE8F84015F01ABDDB
:103670000324DFE70224DDE714CD02087047043895
:103680007047704710B51021044627F058F92046BE
:1036900010BDA0F10400F5E7806800F08DBF0000C8
:1036A00000228260024A026018324260C1607047A4
:1036B000D0E1020808B5806800F06AFF14F05EFBF4
:1036C000BDE8084001F01AB906F034BD10B5034B4F
:1036D0000360044604F050F9204610BDF8E10208EA
:1036E00010B50446FFF7F2FF204641F2647127F05F
:1036F00026F9204610BD00002DE9F8432DED048B7E
:10370000B0EE408A92ED000AD1ED007A0D9C9DF852
:103710003890DFED489A20EE000A9846A7EEA70AF7
:1037200006460D46174627F053F9B4F90A3007EE5E
:10373000903AF8EEE77AB6EE009A67EE897AF5EEFF
:10374000C07AF1EE10FA66DDB4F90630DDED0C6AF0
:1037500007EE103AF8EEE66AB8EEC77AA6EE898A66
:1037600037EE277A38EE478A88EE277AFFEE007A1E
:10377000B4EEE77AF1EE10FA08D4F7EE007AB4EE80
:10378000E77AF1EE10FAD8BFF0EE477ADFED2A8A39
:1037900060EE288A20EE008A68EEA78AB0EE480A1A
:1037A000A8EEE80AC7ED008A27F012F9B4EEC90ABC
:1037B000F1EE10FA1BD5F5EE007A38EE670AF5EE59
:1037C000C08AF1EE10FAB5EEC00AACBFB7EE008ABF
:1037D000BFEE008AF1EE10FAD8BFB0EE690A27F00A
:1037E000F7F820EE080A87ED000AB6EE000AB9F1F4
:1037F000000F13D085ED000AB4F90430B4F90820A5
:10380000134407EE903AF8EEE77AC6ED007ABDEC85
:10381000048BBDE8F883F0EE697AB7E7B1EE400AB1
:1038200085ED000AB4F90420A2EB080207EE902A05
:10383000E9E700BF000000009A99593F10B504461F
:1038400004F0B4F8194B236004F5805303F224729A
:103850001749116003F5E5621649116003F22C71F6
:10386000154A0A6003F5E66120460A60002203F269
:10387000547183F83427C3F83827C3F83C27C3F8BA
:103880004027C3F8442783F84827C3F84C2783F818
:10389000502700220A6003F5EB6103F25C730A60B3
:1038A0001A6004F5BB531A6010BD00BFF8E10208AE
:1038B000000020430000F0423333B33F73B500F5FE
:1038C00029760D4604463146684615F081FC694666
:1038D0002846FEF77BFD10B1304615F0E3FB04F5FA
:1038E0001C742146684615F073FC69462846FEF7AD
:1038F0006DFD28B1204602B0BDE8704015F0D2BB86
:1039000002B070BD2DE9FF41B2F904E00446086839
:1039100049686B46BEF1000F03C319DDB2F90670AA
:10392000002F15DDBDF90480B2F90010B2F90230A4
:10393000B8F1000F04DDBDF906C0BCF1000F45DC95
:10394000ADF80010ADF80230ADF804E0ADF8067047
:10395000334B002202A96846CDE90223FEF736FD6B
:1039600088B3BDF90020BDF80430BDF9021022EA89
:10397000E2751A4493B212B2B2F5A07FA8BF4FF419
:10398000A0735B1B1AB2BDF80630ADF8042021EA23
:10399000E17019448BB209B2F029A8BFF0231B1AB9
:1039A0001BB2002AADF80630ADF80050ADF80200A9
:1039B00009DD002B07DD6946201D15F0BFFB6946B8
:1039C0002046FFF77BFF04B0BDE8F081BDF90000A1
:1039D000BDF9022081420E46A8BF064693421D460D
:1039E0004044A8BF1546714462443B4400B209B24A
:1039F00012B21BB2ADF80060ADF802508842ACBF05
:103A0000C6EB0006C6EB01069A42ACBFC5EB020549
:103A1000C5EB0305ADF80460ADF8065098E700BFAC
:103A20004001F000F0B500F5367585B004460E464D
:103A300017462946684615F0CBFB3A4631462846DC
:103A4000FDF72AFC294602A815F0C2FB02AA694626
:103A50002046FFF757FF05B0F0BD00000000000052
:103A6000F0B52DED048B85B0F0EE408AB3EE009AF0
:103A70000546684611EE107AB0EE608A0C4616468E
:103A800015F0A6FB78EEC98A2368FDEEE88A204689
:103A900018EE902A1B6B11B2984738EE498A2368BA
:103AA000BDEEC88A204618EE102A5B6B11B298470B
:103AB000236820469B6B2121984723682046DB6BB7
:103AC000212198474FF400721146204610F05CFC0B
:103AD0003846FCF7F1FC1FA3D3E90023FCF744FDB3
:103AE0001B4B0022FCF76AFEFCF7EEFF08EE100A03
:103AF000B0EE480A26F08EFFF3EE0E8AF0EE499AF9
:103B0000E0EE289AB0EE480A26F0BCFFA0EE289A14
:103B10002046F0EE497AFEEEED7A17EE902AF0EEAE
:103B2000697AFEEEED7A17EE901A10F038FC214615
:103B300002A884F8256015F04BFB02AA69462846C6
:103B4000FFF7E0FE05B0BDEC048BF0BDAFF30080E5
:103B500000806640182D4454FB21094010B52DED1E
:103B6000028BB0F9E03207EE903A00F5805303F291
:103B7000247292ED008AB0F9E222F8EEE77AB6EE0E
:103B8000007AA7EE878A00F54D71044607EE902A69
:103B900003F5E562D2ED008AF8EEE77A03F25C7392
:103BA000E7EE878A002293ED001AF0EE680AB0EE85
:103BB000480AFFF755FFF0EE680AB0EE480ABDEC80
:103BC000028B04F5BB5304F56E71204693ED001A89
:103BD000BDE810400022FFF743BF38B504460D464C
:103BE000FFF7BCFFB4F9E03207EE903A04F58053DA
:103BF00003F22472F8EEE77A92ED000AB4F9E222B9
:103C0000B6EE007AA7EE870A012D07EE902A03F59B
:103C1000E562F8EEE77AD2ED000AE7EE870A0BD10B
:103C200003F25C7393ED001A2A4604F54D712046A9
:103C3000BDE83840FFF714BF022D07D104F5BB5390
:103C400093ED001A012204F56E71F0E738BD10B54E
:103C50000446403015F026FA04F16C0015F022FA03
:103C600004F1980015F01EFA04F1C40015F01AFAD8
:103C700004F5297015F016FA04F51C70BDE8104023
:103C800015F010BA2DE9F041054605F5805404F20F
:103C9000247703F06FFE04F5E56806F029FA0023A7
:103CA0002F4AC4F84037C4F8443784F8483704F240
:103CB0002C713A602B4AC8F800202B4A0A6004F5A0
:103CC000E66128460A6004F2547284F83437C4F876
:103CD0003837C4F83C37C4F84C3784F850370023E1
:103CE000136004F5EB6205F53676136004F25C723E
:103CF000136005F5BB521360FFF730FF304610F03C
:103D000053F898ED007AD7ED007ABDEEC77AFDEE54
:103D1000E77A17EE103A1AB217EE903A284619B21F
:103D2000FFF780FE304610F03FF8D4F840370F4AD6
:103D30000A2105F58A6017F002FD05F5CA7015F035
:103D4000B1F9D4F84437094A05F23C400A2117F08A
:103D5000F6FC05F5A470BDE8F04115F0A3B900BF6D
:103D6000000020430000F0423333B33F14CD02087B
:103D70002DE9F0412DED028B044686B0043004F5A8
:103D8000805515F08FF92046FFF761FF06F0E6F940
:103D900095F84837002B40F05C81DA4F38680023F3
:103DA0001A460DF117010BF0C8FE002800F05B81E8
:103DB00095F8343704F53676002B40F08283304690
:103DC0000FF0F2FF05F2247205F22C73D3ED007AA6
:103DD00092ED007ADFEDCC8A37EE277A05F5E563C0
:103DE00082ED007A05F5E661D1ED007A93ED008A67
:103DF00037EE888AB4EEE88AF1EE10FA83ED008A95
:103E000040F1B082F1EE677AC3ED008AB0EE688AC5
:103E1000C1ED007AB4F9F420B4F9F830B4F9E072E5
:103E2000134407EE903AF8EEE77AB4EEE77AF1EE53
:103E300010FA3BD807EE902AF8EEE77AB4EEE77A6C
:103E4000F1EE10FA32DBB4F9E232B4F9F61007EE13
:103E5000903A07EE101AF8EEE77AB8EEC77A77EEE6
:103E6000887AF4EEC77AF1EE10FA1FDBB4F9FA2083
:103E70000A4407EE902AF8EEE77AF4EEC87AF1EEFB
:103E800010FA13DB0122029204F1F002CDE90032B4
:103E900004F5B95104F5B95204F5B9503B46103256
:103EA0000C31B0EE480A0430FFF726FC07EE907A9A
:103EB00005F2247393ED007AB4F92031F8EEE77A35
:103EC00077EE877A07EE103AB8EEC77AF4EEC77A43
:103ED000F1EE10FA3EDBB4F924211A4407EE102A61
:103EE000B8EEC77AF4EEC77AF1EE10FA32D8B4F928
:103EF000E232B4F9221107EE903A07EE101AF8EE0A
:103F0000E77AB8EEC77A77EE887AF4EEC77AF1EE00
:103F100010FA1FDBB4F926210A4407EE902AF8EEC6
:103F2000E77AF4EEC87AF1EE10FA13DB002202927F
:103F300004F58E72CDE9003204F5B95104F5B95299
:103F400004F5B9503B4610320C31B0EE480A04304B
:103F5000FFF7D2FB05F2247393ED007ADFED6B7A65
:103F6000B4EEE77AF1EE10FA40F319829FED687A29
:103F7000B4EEC78AF1EE10FA40F37E829FED657AC7
:103F8000B4EEC78AF1EE10FA40F17682D5F84037E8
:103F9000614A0133C5F840370A2104F58A6017F0F9
:103FA000CEFB04F5CA7015F07DF806F019F9D5F8C6
:103FB00040370A2B05DD012185F84817E06BFFF734
:103FC00079FB002384F8FD3230460FF0EDFE01212D
:103FD0003C2385F83417C5F83837C5F83C17B4F9D1
:103FE000F820B4F9F43013440A3307EE903AF8EEAF
:103FF000E77A05F22477C7ED007AB4F9FA3003EBDB
:10400000D372B4F9F63003EB6203B4F9E22202EBA7
:10401000D272A3EB620307EE903AF8EEE77A05F569
:10402000E56805F2547305F25C75C8ED007AC3EDDE
:10403000008AC5ED008A2046FFF7CFFD98ED007A93
:10404000D7ED007ABDEEC77AFDEEE77A17EE103AAB
:1040500028E206F06FF8204606B0BDEC028BBDE802
:10406000F041FFF77BBD9DF81730092B3FF696AE68
:10407000DFE813F00A002300580091002C003F00F5
:10408000AF00D100F1004001B4F9F6309E1C36B209
:10409000C62EA8BFC626B3423FF480AE04F1F00896
:1040A000404614F0FFFFB4F9F41032464046FDF7E5
:1040B000F3F8404614F0F6FF70E6B4F9F6309E1EB1
:1040C00036B2022EB8BF02269E42E5E7B4F922318D
:1040D0009E1C36B2C62EA8BFC6269E423FF45EAED8
:1040E00004F58E78404614F0DDFFB4F92011324615
:1040F000DCE7B4F922319E1E36B2022EB8BF02268A
:10410000EBE700BF742F00200000000000809F43F9
:10411000000070420000354314CD0208CDCC4C3E67
:104120000000344395F83437002B3FF437AED5F810
:104130003C67012E7FF432AE05F25473D3ED007A62
:104140001FED0A7A77EEC77AB8EE000AB4EEE70AF6
:10415000F1EE10FAD8BFB0EE670A83ED000AF0EE78
:10416000000A26F033FC05F25C785FED137A60EE0E
:10417000277A17EE900AFCF79FF9F6A3D3E90023FC
:10418000FCF71CFBFCF7A0FC3146C8F800002046F9
:10419000FFF723FD02E695F83437002B3FF4FEAD20
:1041A000D5F83C67012E7FF4F9AD05F2547393ED19
:1041B000000ADFEDE37A30EE270AF0EE000AB4EEF3
:1041C000E00AF1EE10FAC8BFB0EE600A83ED000A13
:1041D000C7E795F83437002B3FF4E0ADD5F83C67DE
:1041E000022E7FF4DBAD05F5EB6393ED000ADFED06
:1041F000D47A30EE670AF8EE000AF4EEC00AF1EE67
:1042000010FAC8BFB0EE600A83ED000A26F0DEFBAC
:1042100004F5BB58A9E795F83437002B3FF4BEAD41
:10422000D5F83C67022E7FF4B9AD05F5EB63D3ED0D
:10423000007A9FEDC37A77EE877AB0EE000AF4EE4B
:10424000C07AF1EE10FAD8BFB0EE670A83ED000A2B
:10425000F8EE000ADAE795F83437002B3FF49EAD0C
:10426000D5F83C37012B7FF499AD002385F834371E
:1042700005F2547393ED008AF1EE007AE8EE487A85
:1042800017EE900AFCF718F941EC100B26F06AFBC8
:1042900051EC100BFCF718FC07EE900AB6EE007A12
:1042A00005F22C73F4EEC77A05F5E662F1EE10FA2A
:1042B000186082ED008A12D583ED007AB5EEC08ACF
:1042C000F1EE10FA03DB9AA1D1E9000102E09AA114
:1042D000D1E90001FCF7F8FB05F5E6663060012343
:1042E00004F5367084F8FD320FF05EFD2046FFF7CE
:1042F00035FC53E595F83437002B3FF44FADD5F836
:104300003C37022B7FF44AAD002385F8343705F59E
:10431000EB6393ED008AF1EE007AE8EE487A17EE4F
:10432000900AFCF7C9F841EC100B26F01BFB51EC8E
:10433000100BFCF7C9FB07EE900A05F22C73B1EEE7
:10434000677A83ED007AB6EE007AF4EEC77A05F567
:10435000E662F1EE10FA82ED008AC0D54FF03F42DE
:104360001A60ABE7B4F9E2229FED766A06EE902A76
:10437000F8EEE66A76EE886AF4EEC66AF1EE10FAB6
:104380007FF748ADC2F1F00206EE902AB8EEE68A59
:10439000F1EE677A83ED008AC1ED007A3AE5F7EE37
:1043A000007AB4EEE77AF1EE10FA71D59FED667AF5
:1043B000B4EEC78AF1EE10FA5EDD9FED647AB4EEDA
:1043C000C78AF1EE10FA57D5D5F84437604A013361
:1043D000C5F844370A2104F23C4017F0B0F904F55F
:1043E000A47014F05FFE05F0FBFED5F844370A2BED
:1043F00006DD012385F84837E06B0221FFF75AF903
:10440000002384F8FD3230460FF0CEFC012385F8FE
:10441000343702213C23C5F83837C5F83C17B4F9C6
:10442000E022B4F920319B1A0A3B07EE903AF8EEED
:10443000E77A05F22477C7ED007AB4F9263103EB69
:10444000D372B4F9223103EB6203B4F9E22202EB36
:10445000D272A3EB620307EE903AF8EEE77A05F525
:10446000E56804F5BB5305F5EB65C8ED007AC5EDCD
:10447000008AC3ED008ADEE505F22473C3ED007AFD
:1044800005F22C73D3ED007AF1EE677AC3ED007A72
:1044900005F22475BDEEC88AD5ED007A18EE103A03
:1044A000FDEEE77A1AB217EE903A204619B2FFF7FE
:1044B000B9FA30460FF078FC06B0BDEC028BBDE8CF
:1044C000F081D5F83837002B09DD013BC5F83837C6
:1044D0002BB9012384F8FD3230460FF065FCD5F886
:1044E0003C1701293AD1B4F9FA3003EBD372B4F98D
:1044F000F63005F5E56003EB6203B4F9E22202EB66
:10450000D272A3EB620307EE903AF8EEE77AC0EDC1
:10451000007A2046FFF761FB05F5E56393ED007A2D
:1045200005F22475BDEEC77AD5ED007A8CE500BFA3
:10453000DA4E4FB1DEFBFE3FDA4E4FB1DEFBFEBF7F
:10454000CDCC4C3E0000704300007042000035436B
:1045500014CD0208182D4454FB2109400229DBD157
:10456000B4F9263105F5E56003EBD372B4F92231D5
:10457000C1E700BF0022C0E90022C0E902220274A4
:1045800070470000014B02681A6070477C030020EE
:104590004160014827F0E2BC17CD020810B544681D
:1045A0000448631A5C425C41224627F0D7FC20464F
:1045B00010BD00BF2DCD02080023C0E902330374F3
:1045C00043607047704704387047704710B510213A
:1045D000044626F0B4F9204610BDA0F10400F5E72A
:1045E00000228260024A026018324260C160704755
:1045F0002CE202087047704710B5034B0360044675
:1046000003F010FD204610BD54E2020810B5044628
:10461000FFF7F2FF204641F67C0126F090F9204694
:1046200010BD000010B5044603F042FD014B2360AD
:10463000204610BD54E2020803F0D3BC7047704717
:10464000704741607047704770470123037270479D
:1046500070477047704710B4D0E902324168541077
:1046600001EB6200D20748BF0A595DF8044B48BF0E
:10467000D35818470346406830B19A681AB9D868C9
:1046800000F0010070470120704710B50C2104466E
:1046900026F055F9204610BD10B51421044626F029
:1046A0004EF9204610BD10B51021044626F047F9FA
:1046B000204610BD10B54FF4AE71044626F03FF908
:1046C000204610BD10B513F059FB0368BDE810403B
:1046D000DB6B184710B513F051FB0368BDE81040C1
:1046E0005B6B184713B50446807A637A0130C0B219
:1046F0009842A07205D9012323720023A37202B04D
:1047000010BDB4F90C20002115F079FDC30706D5C2
:1047100000284FF6FF73C8BF0123184400B2144AA3
:10472000E08112880023ADF8023083B2D21AADF8CE
:104730000020228A20829B1AADF804300D4B1B8882
:10474000ADF8063013F01AFB036802AA1B6C12E9DD
:1047500006009847A37A012BD1D1074B1B78002B79
:10476000CDD013F00BFB02B0BDE8104013F00CBB32
:10477000823F0120803F01207B3F0120044B1B68CA
:1047800093F85C200AB1186D00B99868704700BFB3
:10479000843F0120F8B5174604460E4613F0DAFBB5
:1047A000124B1C60124B2360124B0025C4E951359B
:1047B000114BC4E94F55C4E95355C4E955761868FF
:1047C000036829469B689847284604F08FFAFFF74C
:1047D000D5FF1EF084F9FFF7D1FF1EF0FBF9FFF7BC
:1047E000CDFF1EF003FA2046F8BD00BFD43F0120E4
:1047F000A4E202088CE20208843F0120064BC0F8C4
:104800004C310023C0F8503100F5A273C0F84801C4
:10481000C0F84031704700BF514E0008064BC0F849
:104820004C310023C0F8503100F5A273C0F84801A4
:10483000C0F84031704700BFD1530008064BC0F8A4
:104840004C310023C0F8503100F5A273C0F8480184
:10485000C0F84031704700BF054D0008064BC0F856
:104860004C310023C0F8503100F5A273C0F8480164
:10487000C0F84031704700BF6D520008064BC0F8C9
:104880004C310023C0F8503100F5A273C0F8480144
:10489000C0F84031704700BFB94B0008064BC0F864
:1048A0004C310023C0F8503100F5A273C0F8480124
:1048B000C0F84031704700BF09510008064BC0F8EE
:1048C0004C310023C0F8503100F5A273C0F8480104
:1048D000C0F84031704700BF6D4A0008064BC0F871
:1048E0004C310023C0F8503100F5A273C0F84801E4
:1048F000C0F84031704700BFA54F0008064BC0F814
:104900004C310023C0F8503100F5A273C0F84801C3
:10491000C0F84031704700BF2549000803685B6A52
:10492000184700002DE9F14FD0E9556A0746B068F5
:1049300003681B6A9847B0F5CC7F05D2434B444AC5
:10494000A321444827F052F9706803681B6A98470E
:104950000F2803D8404B3E4AA421F2E7F0680368D1
:104960001B6A98470B2803D83C4B394AA521E8E736
:1049700013F004FADFF8EC90043013F04AFAD9F897
:10498000000010B10368DB689847D9F8000010B147
:1049900003681B689847DFF8D080D8F8000010B192
:1049A00003685B699847D7F83C0110B103685B68FE
:1049B0009847D8F8000010B103681B689847D7F8EB
:1049C0003C0110B103689B689847F0680021FFF72D
:1049D000A5FF4FF0000B224BC0F804B080F808B0E0
:1049E00003600446B068036859465B6A9847054609
:1049F000FDF748FB7068036859465B6A984729468B
:104A00000646FDF719FB331DC7F83C61C9F80040A5
:104A1000C8F80050CAF80030C6F808A02B68EE634A
:104A20002846DB689847336830461B68984721461C
:104A3000284615F0DEFB236820461B69984723684B
:104A40005B69204601B0BDE8F04F184757CD02081A
:104A5000E5CD0208BBCE0208FCCE02089FCF0208BB
:104A6000F8E20208CC3F0120D03F01202DE9F14FB0
:104A7000D0E9556A0746B06803681B6A984741F257
:104A8000FB63984205D8444B444AA321444827F08D
:104A9000ADF8706803681B6A98470F2803D8414B2C
:104AA0003E4AA421F2E7F06803681B6A98470B2886
:104AB00003D83D4B394AA521E8E713F05FF9DFF849
:104AC000F090043013F0A5F9D9F8000010B1036894
:104AD000DB689847D9F8000010B103681B68984755
:104AE000DFF8D080D8F8000010B103685B69984700
:104AF000D7F83C0110B103685B689847D8F800000C
:104B000010B103681B689847D7F83C0110B10368DF
:104B10009B689847F0680021FFF700FF4FF0000BFB
:104B2000224BC0F804B080F808B003600446B068B7
:104B3000036859465B6A98470546FCF7B9FB7068FD
:104B4000036859465B6A984729460646FCF7D6FA39
:104B5000331DC7F83C61C9F80040C8F80050CAF8D6
:104B60000030C6F808A02B68EE632846DB6898473B
:104B7000336830461B6898472146284615F039FBB4
:104B8000236820461B69984723685B69204601B06B
:104B9000BDE8F04F184700BF57CD020842D00208C9
:104BA000BBCE0208FCCE02089FCF0208F8E2020842
:104BB000CC3F0120D03F01202DE9F14FD0E9556ACB
:104BC0000746B06803681B6A984741F263739842CE
:104BD00005D8444B444AA321444827F007F870689D
:104BE00003681B6A98470F2803D8414B3E4AA4210B
:104BF000F2E7F06803681B6A98470B2803D83D4B1F
:104C0000394AA521E8E713F0B9F8DFF8F09004304D
:104C100013F0FFF8D9F8000010B10368DB6898477B
:104C2000D9F8000010B103681B689847DFF8D080FE
:104C3000D8F8000010B103685B699847D7F83C01C9
:104C400010B103685B689847D8F8000010B103689A
:104C50001B689847D7F83C0110B103689B689847D8
:104C6000F0680021FFF75AFE4FF0000B224BC0F80E
:104C700004B080F808B003600446B0680368594681
:104C80005B6A98470546FEF7D9FD70680368594688
:104C90005B6A984729460646FEF702FD331DC7F8B2
:104CA0003C61C9F80040C8F80050CAF80030C6F8A6
:104CB00008A02B68EE632846DB68984733683046C7
:104CC0001B6898472146284615F093FA236820462A
:104CD0001B69984723685B69204601B0BDE8F04F27
:104CE000184700BF57CD02081AD10208BBCE0208F0
:104CF000FCCE02089FCF0208F8E20208CC3F012058
:104D0000D03F01202DE9F14FD0E9556A0746B06840
:104D100003681B6A984741F61303984205D8444B31
:104D2000444AA321444826F061FF706803681B6A67
:104D300098470F2803D8414B3E4AA421F2E7F06878
:104D400003681B6A98470B2803D83D4B394AA521B5
:104D5000E8E713F013F8DFF8F090043013F059F897
:104D6000D9F8000010B10368DB689847D9F8000053
:104D700010B103681B689847DFF8D080D8F80000AE
:104D800010B103685B699847D7F83C0110B103681C
:104D90005B689847D8F8000010B103681B68984713
:104DA000D7F83C0110B103689B689847F068002170
:104DB000FFF7B4FD4FF0000B224BC0F804B080F8B1
:104DC00008B003600446B068036859465B6A9847B8
:104DD0000546FDF71DFB7068036859465B6A9847F6
:104DE00029460646FDF724FA331DC7F83C61C9F889
:104DF0000040C8F80050CAF80030C6F808A02B6878
:104E0000EE632846DB689847336830461B6898474E
:104E10002146284615F0EDF9236820461B6998477E
:104E200023685B69204601B0BDE8F04F184700BF1A
:104E300057CD0208F6D10208BBCE0208FCCE02080C
:104E40009FCF0208F8E20208CC3F0120D03F0120AA
:104E50002DE9F14FD0E9556A0746B06803681B6A2F
:104E6000984741F67B03984205D8444B444AA32116
:104E7000444826F0BBFE706803681B6A98470F28F9
:104E800003D8414B3E4AA421F2E7F06803681B6A4D
:104E900098470B2803D83D4B394AA521E8E712F083
:104EA0006DFFDFF8F090043012F0B3FFD9F8000086
:104EB00010B10368DB689847D9F8000010B10368A7
:104EC0001B689847DFF8D080D8F8000010B103685D
:104ED0005B699847D7F83C0110B103685B68984755
:104EE000D8F8000010B103681B689847D7F83C0158
:104EF00010B103689B689847F0680021FFF70EFD2A
:104F00004FF0000B224BC0F804B080F808B00360EB
:104F10000446B068036859465B6A98470546FFF740
:104F200081FB7068036859465B6A984729460646C4
:104F3000FFF756FB331DC7F83C61C9F80040C8F8BD
:104F40000050CAF80030C6F808A02B68EE63284667
:104F5000DB689847336830461B68984721462846E7
:104F600015F047F9236820461B69984723685B6959
:104F7000204601B0BDE8F04F184700BF57CD0208EA
:104F8000CED20208BBCE0208FCCE02089FCF020898
:104F9000F8E20208CC3F0120D03F012003685B6AA1
:104FA000184700002DE9F14FD0E955BA0746DBF864
:104FB000080003681B6A984741F2BB53984205D822
:104FC000484B494AA321494826F010FEDBF804006B
:104FD00003681B6A98470F2803D8454B424AA4210F
:104FE000F1E7DBF80C0003681B6A9847132803D825
:104FF000404B3D4AA521E6E712F0C0FEDFF80091E4
:10500000043012F006FFD9F8000010B10368DB6825
:105010009847D9F8000010B103681B689847DFF87B
:10502000E480D8F8000010B103685B699847D7F8AE
:105030003C0110B103685B689847D8F8000010B1D4
:1050400003681B689847D7F83C0110B103689B6858
:105050009847DBF80C000021FFF7A0FF264B036008
:1050600014234372254B00261B8846600672867205
:10507000C681068283810446DBF808000368314656
:105080005B6A98470546FBF7DBFFDBF80400036823
:1050900031465B6A984729460646FBF799FF331D60
:1050A000C7F83C61C9F80040C8F80050CAF80030A1
:1050B000C6F808A02B68EE632846DB68984733687B
:1050C00030461B6898472146284615F092F8236819
:1050D00020461B69984723685B69204601B0BDE8FC
:1050E000F04F184757CD0208A8D30208BBCE0208DC
:1050F000FCCE02089FCF02081CE30208823F012079
:10510000CC3F0120D03F01202DE9F14FD0E955BA25
:105110000746DBF8080003681B6A984741F22363DF
:10512000984205D8484B494AA321494826F05EFDDC
:10513000DBF8040003681B6A98470F2803D8454B27
:10514000424AA421F1E7DBF80C0003681B6A984788
:10515000132803D8404B3D4AA521E6E712F00EFE86
:10516000DFF80091043012F054FED9F8000010B1BD
:105170000368DB689847D9F8000010B103681B6822
:105180009847DFF8E480D8F8000010B103685B6945
:105190009847D7F83C0110B103685B689847D8F886
:1051A000000010B103681B689847D7F83C0110B1A4
:1051B00003689B689847DBF80C000021FFF7EEFEC0
:1051C000264B036014234372254B00261B88466040
:1051D00006728672C681068283810446DBF8080067
:1051E000036831465B6A98470546FEF7FBF9DBF832
:1051F0000400036831465B6A984729460646FEF775
:10520000BBF9331DC7F83C61C9F80040C8F800502D
:10521000CAF80030C6F808A02B68EE632846DB68A1
:105220009847336830461B6898472146284614F053
:10523000E0FF236820461B69984723685B69204686
:1052400001B0BDE8F04F184757CD02089CD40208C2
:10525000BBCE0208FCCE02089FCF02081CE3020866
:10526000823F0120CC3F0120D03F01202DE9F14FAA
:10527000D0E955BA0746DBF8080003681B6A98476F
:1052800041F2D363984205D8484B494AA321494883
:1052900026F0ACFCDBF8040003681B6A98470F2873
:1052A00003D8454B424AA421F1E7DBF80C00036820
:1052B0001B6A9847132803D8404B3D4AA521E6E7CF
:1052C00012F05CFDDFF80091043012F0A2FDD9F875
:1052D000000010B10368DB689847D9F8000010B1EE
:1052E00003681B689847DFF8E480D8F8000010B125
:1052F00003685B699847D7F83C0110B103685B68A5
:105300009847D8F8000010B103681B689847D7F891
:105310003C0110B103689B689847DBF80C00002142
:10532000FFF73CFE264B036014234372254B0026F7
:105330001B88466006728672C68106828381044697
:10534000DBF80800036831465B6A98470546FCF7BE
:1053500015FFDBF80400036831465B6A984729466D
:105360000646FCF7D5FE331DC7F83C61C9F800407E
:10537000C8F80050CAF80030C6F808A02B68EE63E1
:105380002846DB689847336830461B6898472146B3
:10539000284614F02EFF236820461B69984723688F
:1053A0005B69204601B0BDE8F04F184757CD0208B1
:1053B00094D50208BBCE0208FCCE02089FCF02089B
:1053C0001CE30208823F0120CC3F0120D03F012096
:1053D0002DE9F14FD0E955BA0746DBF8080003681C
:1053E0001B6A984741F67B03984205D8484B494AC7
:1053F000A321494826F0FAFBDBF8040003681B6A86
:1054000098470F2803D8454B424AA421F1E7DBF81F
:105410000C0003681B6A9847132803D8404B3D4A89
:10542000A521E6E712F0AAFCDFF80091043012F0A3
:10543000F0FCD9F8000010B10368DB689847D9F890
:10544000000010B103681B689847DFF8E480D8F8C3
:10545000000010B103685B699847D7F83C0110B1B0
:1054600003685B689847D8F8000010B103681B68B0
:105470009847D7F83C0110B103689B689847DBF860
:105480000C000021FFF78AFD264B036014234372B2
:10549000254B00261B88466006728672C6810682EE
:1054A00083810446DBF80800036831465B6A98474D
:1054B0000546FFF7B7F8DBF80400036831465B6A7E
:1054C000984729460646FFF78BF8331DC7F83C611D
:1054D000C9F80040C8F80050CAF80030C6F808A063
:1054E0002B68EE632846DB689847336830461B68B4
:1054F00098472146284614F07CFE236820461B6905
:10550000984723685B69204601B0BDE8F04F184713
:1055100057CD020888D60208BBCE0208FCCE02088E
:105520009FCF02081CE30208823F0120CC3F0120EC
:10553000D03F01200020704781807047C1807047B4
:1055400001817047418170477047704770477047CD
:1055500070474FF6FF7383814FF0FF330362136888
:10556000C361106070477047704700207047B1F901
:1055700004308380012070477047704730B503685E
:1055800085B00181D3F884300146044668469847C7
:105590009DE807003C3484E8070005B030BD30B515
:1055A000036885B04181D3F88430014604466846DB
:1055B00098479DE807003C3484E8070005B030BDFB
:1055C0000022028042808280C280704780F83610BC
:1055D000704770B5036804461B6B154698472368EF
:1055E000294620465B6EBDE8704018470020704792
:1055F000806C704770477047704710B508210446AB
:1056000025F09DF9204610BD10B54C21044625F02B
:1056100096F9204610BD10B52C21044625F08FF9CF
:10562000204610BD0B898A89D21A4B89C988591A1C
:1056300012B209B213F0B2BD10B5034B03600446B9
:1056400010F090FD204610BD68E4020810B5064B2E
:105650000360044610F086FD204641F2B85125F063
:105660006EF9204610BD00BF68E4020890F82520BE
:1056700012B103685B691847704708B590F8263087
:105680000BB1FFF7F3FF08BD08B5FFF7EFFF08BD4B
:1056900090F825201AB190F8242002B118607047C4
:1056A00070B503685E6B124B1B6804468DB22BB954
:1056B000104B114A6C21114826F098FA1049828D3E
:1056C0000988914203D80F4B0B4A6D21F3E713F879
:1056D00012200D4B1B6853F8220003681B6B984780
:1056E000291A3346204609B2BDE87040184700BF6A
:1056F000E43F012074D70208B6D70208F1D70208A8
:10570000D83F012032D80208DC3F012010B500F557
:105710008054D4F8B4350133B42BC4F8B43506D171
:1057200012F02CFBFFF7CAF80023C4F8B43510BD03
:1057300000224FF0FF31C0E900218260704770B550
:10574000036804461B6B1546984723682946204684
:105750005B6BBDE87040184770B504461D46BDF947
:105760001060FFF7ECFF2368294620469B6B9847A3
:10577000236831462046DB6BBDE8704018470000C7
:105780004FF480714162084901600022FF21C0E9A5
:105790000122C0E90322C0E90522C0E9072280F8FE
:1057A00026108262704700BF0CF0020870B500231B
:1057B000124E8380124B0360336893F85C200546D9
:1057C0000AB1186D00B9986803681B6B9847336875
:1057D000B0FA80F4186D640930B103681B6B984708
:1057E000002808BF44F001042CB9064B064A0748BC
:1057F0002C2126F0FBF9284670BD00BF843F012014
:1058000040E3020870D80208CED8020807D902087F
:105810004FF4807141620D4901600D4981624FF67C
:10582000FF7181854FF47F01002241634FF0FF310A
:10583000C0E90122C0E90322C0E90522C0E907222C
:10584000C0E9101202630287C26370477CEF02084E
:1058500060E302082DE9F04F04468BB027464FF075
:10586000000B14F02BFBD64BC4F83CB047F8403B80
:1058700004F16C063846FFF783FF04F198083046C0
:10588000FFF77EFF4046FFF77BFF04F1C400FFF700
:1058900077FF04F1F0000DF0C5FD04F59C70FFF7F3
:1058A00085FFC84BC4F838312433C4F84031C64DA5
:1058B000C4F844B14FF0010904F5A670FFF760FF8A
:1058C00004F5D27AC4F84C5184F8709104F5BC7098
:1058D000FFF756FFC4F8785184F89C915046FFF7C3
:1058E00097FF04F5F670FFF793FF04F50D73184664
:1058F000B64D0393FFF78CFF04F52073C4F83452C0
:105900001846C4F87CB20393FFF782FF04F5805376
:10591000C4F88052C4F8C8B2F025C3F8B4B54FF447
:10592000965104F53D7010F013FC5A463846009528
:105930004FF4A073594604F10409FFF70DFF4FF02F
:105940007F433946A36648460AF0D7FE4FF0FF373B
:105950004FF4A0735A46304600955946FFF7FCFEB7
:105960003146C4F8947048460AF0C7FE0222EC2380
:105970001146404600934FF49F73FFF7EDFE944BA2
:10598000C4F8C030414648460AF0B7FE5A46009572
:105990000323A02104F1C400FFF7DEFEDC23C4F8DA
:1059A000EC7084F8EA3004F1C40148460AF0A5FE20
:1059B0000E237222601900939B21FFF7CDFEC023B6
:1059C000C4F824314FF43453C4F82C31814BC4F85B
:1059D000443149F66103A4F8483104F59C73611918
:1059E000C4E94755C4F8183128254846C4F830B1F1
:1059F000C4F828B10AF081FE05236422009508212D
:105A000004F5A670FFF7A8FEC4F8747104F5A6713A
:105A100048460AF072FE0523642200954FF49A71FD
:105A200004F5BC70FFF798FE4FF03408C4F8A0717D
:105A300004F5BC71484604AD0AF05FFE13235F22F3
:105A40005046CDF800807421FFF786FE5146C4F819
:105A5000D4712846A4F8D8B10EF04EFE95E80700A0
:105A600004F5F07686E807004FF00302514684F80B
:105A7000DD2128460EF040FE95E807004FF00103B7
:105A800086E80700514684F8DC3128460EF034FEE3
:105A900095E80700152386E8070050464E4EADF8FE
:105AA000243008A908960FF0FBF86FF0410184F844
:105AB000DA11484651460AF020FE13235F22CDF842
:105AC0000080BB2104F5F670FFF746FEC4F81C7297
:105AD00004F5F6712846A4F820B20EF00DFE95E804
