:020000040800F2
:1000000000000320D50201087DAA00087FAA00088D
:1000100081AA000883AA000885AA00080000000041
:10002000000000000000000000000000F1FA0008DD
:1000300087AA00080000000081FB000899F400086E
:1000400025030108250301082503010825030108EC
:1000500025030108250301082503010825030108DC
:1000600025030108250301082503010825030108CC
:1000700025030108250301082503010825030108BC
:1000800025030108250301082503010825030108AC
:10009000250301082503010825030108250301089C
:1000A000250301082503010825030108250301088C
:1000B000250301082503010825030108250301087C
:1000C000250301082503010825030108250301086C
:1000D000250301082503010825030108250301085C
:1000E000250301082503010825030108250301084C
:1000F000250301082503010825030108250301083C
:10010000250301082503010825030108250301082B
:10011000250301082503010889AA00082503010811
:10012000250301082503010825030108250301080B
:1001300025030108250301082503010825030108FB
:1001400025030108250301082503010825030108EB
:1001500025030108250301082503010825030108DB
:1001600025030108250301082503010825030108CB
:1001700025030108250301082503010800000000EC
:1001800025030108250301082503010825030108AB
:10019000250301082503010825030108250301089B
:0C01A00095AA000825030108A1AA000888
:1001B00010B5054C237833B9044B13B10448AFF3A1
:1001C00000800123237010BD6003002000000000A8
:1001D00004C9020808B5034B1BB103490348AFF338
:1001E000008008BD000000006403002004C902086C
:1001F00081F0004102E000BF83F0004330B54FEAD8
:1002000041044FEA430594EA050F08BF90EA020F44
:100210001FBF54EA000C55EA020C7FEA645C7FEAD7
:10022000655C00F0E2804FEA5454D4EB5555B8BFFA
:100230006D420CDD2C4480EA020281EA030382EA6B
:10024000000083EA010180EA020281EA0303362DFD
:1002500088BF30BD11F0004F4FEA01314FF4801CD0
:100260004CEA113102D0404261EB410113F0004FE2
:100270004FEA03334CEA133302D0524263EB430399
:1002800094EA050F00F0A780A4F10104D5F1200E37
:100290000DDB02FA0EFC22FA05F2801841F1000192
:1002A00003FA0EF2801843FA05F359410EE0A5F166
:1002B00020050EF1200E012A03FA0EFC28BF4CF097
:1002C000020C43FA05F3C01851EBE37101F000454D
:1002D00007D54FF0000EDCF1000C7EEB00006EEB5A
:1002E0000101B1F5801F1BD3B1F5001F0CD34908E4
:1002F0005FEA30004FEA3C0C04F101044FEA44523B
:1003000012F5800F80F09A80BCF1004F08BF5FEAC1
:10031000500C50F1000041EB045141EA050130BDA1
:100320005FEA4C0C404141EB0101013C28BFB1F5B3
:10033000801FE9D291F0000F04BF01460020B1FAFE
:1003400081F308BF2033A3F10B03B3F120020CDAD1
:100350000C3208DD02F1140CC2F10C0201FA0CF0AF
:1003600021FA02F10CE002F11402D8BFC2F1200C14
:1003700001FA02F120FA0CFCDCBF41EA0C019040CA
:10038000E41AA2BF01EB0451294330BD6FEA040413
:100390001F3C1CDA0C340EDC04F11404C4F12002FE
:1003A00020FA04F001FA02F340EA030021FA04F310
:1003B00045EA030130BDC4F10C04C4F1200220FA67
:1003C00002F001FA04F340EA0300294630BD21FAA5
:1003D00004F0294630BD94F0000F83F4801306BF6B
:1003E00081F480110134013D4EE77FEA645C18BF5F
:1003F0007FEA655C29D094EA050F08BF90EA020FF6
:1004000005D054EA000C04BF1946104630BD91EAED
:10041000030F1EBF0021002030BD5FEA545C05D1F0
:100420004000494128BF41F0004130BD14F580042F
:100430003CBF01F5801130BD01F0004545F0FE41A3
:1004400041F470014FF0000030BD7FEA645C1ABFD8
:10045000194610467FEA655C1CBF0B46024650EA0F
:10046000013406BF52EA033591EA030F41F400213B
:1004700030BD00BF90F0000F04BF0021704730B5C1
:100480004FF4806404F132044FF000054FF0000196
:1004900050E700BF90F0000F04BF0021704730B557
:1004A0004FF4806404F1320410F0004548BF40422C
:1004B0004FF000013EE700BF42004FEAE2014FEA81
:1004C00031014FEA02701FBF12F07F4393F07F4F5C
:1004D00081F06051704732F07F4208BF704793F05F
:1004E0007F4F04BF41F40021704730B54FF4607472
:1004F00001F0004521F000411CE700BF50EA010275
:1005000008BF704730B54FF000050AE050EA01021D
:1005100008BF704730B511F0004502D5404261EB8D
:1005200041014FF4806404F132045FEA915C3FF4CE
:10053000D8AE4FF003025FEADC0C18BF03325FEA6B
:10054000DC0C18BF033202EBDC02C2F1200300FA1C
:1005500003FC20FA02F001FA03FE40EA0E0021FA41
:1005600002F11444BDE600BF70B54FF0FF0C4CF42F
:10057000E06C1CEA11541DBF1CEA135594EA0C0FE1
:1005800095EA0C0F00F0DEF82C4481EA030621EA1C
:100590004C5123EA4C5350EA013518BF52EA033557
:1005A00041F4801143F4801338D0A0FB02CE4FF009
:1005B0000005E1FB02E506F00042E0FB03E54FF039
:1005C0000006E1FB03569CF0000F18BF4EF0010E31
:1005D000A4F1FF04B6F5007F64F5407404D25FEA2D
:1005E0004E0E6D4146EB060642EAC62141EA5551E0
:1005F0004FEAC52040EA5E504FEACE2EB4F1FD0C22
:1006000088BFBCF5E06F1ED8BEF1004F08BF5FEA9F
:10061000500E50F1000041EB045170BD06F0004651
:1006200046EA010140EA020081EA0301B4EB5C04FE
:10063000C2BFD4EB0C0541EA045170BD41F48011F6
:100640004FF0000E013C00F3AB8014F1360FDEBF1B
:10065000002001F0004170BDC4F10004203C35DAF7
:100660000C341BDC04F11404C4F1200500FA05F37A
:1006700020FA04F001FA05F240EA020001F000421B
:1006800021F0004110EBD37021FA04F642EB060191
:100690005EEA430E08BF20EAD37070BDC4F10C04BB
:1006A000C4F1200500FA04F320FA05F001FA04F27F
:1006B00040EA020001F0004110EBD37041F100016B
:1006C0005EEA430E08BF20EAD37070BDC4F1200576
:1006D00000FA05F24EEA020E20FA04F301FA05F2DE
:1006E00043EA020321FA04F001F0004121FA04F286
:1006F00020EA020000EBD3705EEA430E08BF20EA56
:10070000D37070BD94F0000F0FD101F0004640008F
:1007100041EB010111F4801F08BF013CF7D041EA11
:10072000060195F0000F18BF704703F00046520015
:1007300043EB030313F4801F08BF013DF7D043EAE6
:100740000603704794EA0C0F0CEA135518BF95EA9C
:100750000C0F0CD050EA410618BF52EA4306D1D123
:1007600081EA030101F000414FF0000070BD50EA42
:10077000410606BF1046194652EA430619D094EACC
:100780000C0F02D150EA013613D195EA0C0F05D1B6
:1007900052EA03361CBF104619460AD181EA03010A
:1007A00001F0004141F0FE4141F470014FF00000C2
:1007B00070BD41F0FE4141F4780170BD70B54FF05D
:1007C000FF0C4CF4E06C1CEA11541DBF1CEA1355DD
:1007D00094EA0C0F95EA0C0F00F0A7F8A4EB0504BF
:1007E00081EA030E52EA03354FEA013100F08880B6
:1007F0004FEA03334FF0805545EA131343EA12637F
:100800004FEA022245EA111545EA10654FEA002633
:100810000EF000419D4208BF964244F1FD0404F5EC
:10082000407402D25B084FEA3202B61A65EB030548
:100830005B084FEA32024FF480104FF4002CB6EB05
:10084000020E75EB030E22BFB61A754640EA0C0085
:100850005B084FEA3202B6EB020E75EB030E22BFC5
:10086000B61A754640EA5C005B084FEA3202B6EB06
:10087000020E75EB030E22BFB61A754640EA9C00C5
:100880005B084FEA3202B6EB020E75EB030E22BF95
:10089000B61A754640EADC0055EA060E18D04FEA53
:1008A000051545EA16754FEA06164FEAC30343EAF3
:1008B00052734FEAC2025FEA1C1CC0D111F4801FC0
:1008C0000BD141EA00014FF000004FF0004CB6E7B9
:1008D00011F4801F04BF01430020B4F1FD0C88BF58
:1008E000BCF5E06F3FF6AFAEB5EB030C04BFB6EB63
:1008F000020C5FEA500C50F1000041EB045170BD56
:100900000EF0004E4EEA113114EB5C04C2BFD4EB82
:100910000C0541EA045170BD41F480114FF0000E06
:10092000013C90E645EA060E8DE60CEA135594EA82
:100930000C0F08BF95EA0C0F3FF43BAF94EA0C0F85
:100940000AD150EA01347FF434AF95EA0C0F7FF4FA
:1009500025AF104619462CE795EA0C0F06D152EA4E
:1009600003353FF4FDAE1046194622E750EA410632
:1009700018BF52EA43067FF4C5AE50EA41047FF443
:100980000DAF52EA43057FF4EBAE12E74FF0FF3CA8
:1009900006E000BF4FF0010C02E000BF4FF0010C79
:1009A0004DF804CD4FEA410C7FEA6C5C4FEA430CF2
:1009B00018BF7FEA6C5C1BD001B050EA410C0CBF41
:1009C00052EA430C91EA030F02BF90EA020F0020A3
:1009D000704710F1000F91EA030F58BF994208BF0A
:1009E00090422CBFD8176FEAE37040F001007047C7
:1009F0004FEA410C7FEA6C5C02D150EA013C07D11E
:100A00004FEA430C7FEA6C5CD6D152EA033CD3D068
:100A10005DF8040B704700BF8446104662468C4662
:100A20001946634600E000BF01B5FFF7B7FF002895
:100A300048BF10F1000F01BD4DF808EDFFF7F4FFBE
:100A40000CBF012000205DF808FB00BF4DF808ED49
:100A5000FFF7EAFF34BF012000205DF808FB00BF6C
:100A60004DF808EDFFF7E0FF94BF012000205DF88E
:100A700008FB00BF4DF808EDFFF7CEFF94BF012043
:100A800000205DF808FB00BF4DF808EDFFF7C4FF3C
:100A900034BF012000205DF808FB00BF4FEA410C85
:100AA0007FEA6C5C02D150EA013C0AD14FEA430C68
:100AB0007FEA6C5C02D152EA033C02D14FF00000A5
:100AC00070474FF0010070474FEA4102B2F1E04336
:100AD00024BFB3F5001CDCF1FE5C0DD901F0004C25
:100AE0004FEAC0024CEA5070B2F1004F40EB830075
:100AF00008BF20F00100704711F0804F21D113F1A1
:100B00003872BCBF01F00040704741F480114FEAD9
:100B10005252C2F11802C2F1200C10FA0CF320FA62
:100B200002F018BF40F001004FEAC1234FEAD3237F
:100B300003FA0CFC40EA0C0023FA02F34FEA4303E9
:100B4000CCE77FEA625307D150EA01331EBF4FF072
:100B5000FE4040F44000704701F0004040F0FE408D
:100B600040F40000704700BF53B94AB9002908BFDC
:100B700000281CBF4FF0FF314FF0FF3000F088B964
:100B8000ADF1080C6DE904CE00F006F8DDF804E0E4
:100B9000DDE9022304B070472DE9F047089D0F46B8
:100BA00004468C46002B48D18A42164661D9B2FAD7
:100BB00082F34BB1C3F1200201FA03FC20FA02F2E6
:100BC0009E4042EA0C0C9C404FEA164EB7B2BCFB6A
:100BD000FEF1220C0EFB11CC42EA0C4201FB07F0A5
:100BE000904209D9B21801F1FF3C80F0EE809042AA
:100BF00040F2EB8002393244121AA4B2B2FBFEF08A
:100C00000EFB102244EA024400FB07F7A74209D971
:100C1000341900F1FF3280F0DA80A74240F2D78029
:100C20003444023840EA0140E41B00211DB1DC409D
:100C30000023C5E90043BDE8F0878B4206D90DB11A
:100C4000C5E9000100210846BDE8F087B3FA83F149
:100C5000002948D1BB4202D3824200F20781841AA4
:100C600067EB030201209446002DE4D0C5E9004C57
:100C7000E1E7002A00F09280B2FA82F3002B40F004
:100C8000A8808A1A4FEA164E1FFA86FC0121200C12
:100C9000B2FBFEF70EFB172240EA02420CFB07F004
:100CA000904207D9B21807F1FF3802D2904200F201
:100CB000E2804746121AA4B2B2FBFEF00EFB1022ED
:100CC00044EA02440CFB00FCA44507D9341900F1A6
:100CD000FF3202D2A44500F2CB801046A4EB0C04F4
:100CE00040EA0740A2E7C1F120068B4022FA06FC49
:100CF0004CEA030C07FA01F420FA06F3F7404FEA36
:100D00001C49234300FA01F81FFA8CFEB7FBF9F0E7
:100D10001C0C09FB107744EA074400FB0EF7A742BE
:100D200002FA01F20AD91CEB040400F1FF3A80F048
:100D30009B80A74240F2988002386444E41B9FB233
:100D4000B4FBF9F309FB134447EA044403FB0EFE2A
:100D5000A64509D91CEB040403F1FF3780F082801B
:100D6000A6457FD9023B644443EA0040A4EB0E044D
:100D7000A0FB02E7BC427346B94663D360D05DB1C5
:100D8000B8EB030264EB090404FA06F622FA01F355
:100D90001E43CC40C5E9006400214CE762084808C6
:100DA00042EAC1710B0C43EA00438AB242EA0342B1
:100DB000B3FBF6F1E407B4463746B6461F23B0FB53
:100DC000F6F0D21B41EA004161E7614614E71046A4
:100DD00028E7C3F1200120FA01F29E4027FA01F131
:100DE0009F403A434FEA164E1FFA86FCB1FBFEF7CE
:100DF0000EFB1710110C41EA004107FB0CF8884567
:100E000004FA03F43AD9711807F1FF3001D288458A
:100E10001FD8A1EB0801B1FBFEF808FB0CF70EFB95
:100E2000181192B242EA0142BA422FD2B21808F126
:100E3000FF31C6D2BA42C4D2A8F102013244C0E79F
:100E4000F0459CD2BEEB020367EB0C070138B946B4
:100E500095E7A6EB08084144B81EB1FBFEF808FB75
:100E60000CF7DCE73B467FE7504667E70846FBE6C2
:100E70003444023832E7023F32441BE7A1EB080159
:100E80003846B1FBFEF808FB0CF7C8E7414698E787
:100E9000704700BF000000000000000000000000DC
:100EA00001F0FF01102A2BDB10F0070F08D010F81B
:100EB000013B013A8B422DD010F0070F42B3F6D11F
:100EC000F0B441EA012141EA014122F007047FF038
:100ED00000070023F0E80256083C85EA010586EA8F
:100EE000010685FA47F5A3FA87F586FA47F6A5FACB
:100EF00087F68EB9EED1F0BC01F0FF0102F00702D7
:100F000032B110F8013B013A83EA010313B1F8D181
:100F10000020704701387047002D06BF3546033862
:100F2000073815F0010F07D1013015F4807F02BF9B
:100F3000013015F4C03F0130F0BC0138704700BFEC
:100F4000704700F598730868496803C37047704795
:100F500003F09EBA10B54FF4AE71044629F061FB60
:100F6000204610BD10B50446D0F8580103F054F9DE
:100F70002046BDE8104016F01FBE10B50446D0F85C
:100F8000400158B10368DB68984738B1D4F8400194
:100F900003689B6898470023C4F8403110BD0000E7
:100FA00010B5044603F040FA014B2360204610BD03
:100FB00088C90208704704387047704710B510217F
:100FC000044629F02EFB204610BDA0F10400F5E7F1
:100FD00000228260024A026018324260C16070479B
:100FE000DCC90208704770477047000010B5034B1A
:100FF0000360044604F06AF9204610BDA8DC02082C
:1010000010B50446FFF7F2FF204641F2BC5129F02B
:1010100008FB204610BD10B500F58052D2F8B81577
:10102000002907DD0139C2F8B8150368BDE8104092
:10103000DB6A184716F014FDBDE8104003F088BACB
:1010400010B5044604F050FA044B236004F58053B5
:10105000B422C3F8B825204610BD00BFA8DC0208A2
:1010600010B5044604F012F9236804F580522046B6
:10107000DB6AD2F8B815BDE8104018477829F8B5F2
:10108000054623DC3C2923DC0029D4BF00240124AD
:1010900005F53377234605F538760E4A0A2138469A
:1010A0001AF0BFF923460B4A0A2130461AF0B9F963
:1010B00005F50D70C5F87C72C5F8C86217F064FEBE
:1010C00005F52070BDE8F84017F05EBE0324DFE7A9
:1010D0000224DDE7FCC902087047043870477047F6
:1010E00010B51021044629F09CFA204610BDA0F14D
:1010F0000400F5E7806803F0A9B8000000228260D0
:10110000024A026018324260C1607047E0DC0208A7
:1011100008B5806803F086F816F0A2FCBDE8084028
:1011200003F036BA08F050BE10B5034B0360044616
:1011300004F032FC204610BD08DD020810B504465C
:10114000FFF7F2FF204641F2FC6129F06AFA2046DF
:1011500010BD10B4C4880368121B84885B6D091B22
:1011600012B25DF8044B09B21847000010B50446EE
:1011700004F02CFC194B236004F5805303F2BC628D
:101180001749116004F5B6521649116003F2C461A3
:10119000154A0A6003F5D96120460A60002203F26D
:1011A000EC6183F8CC26C3F8D026C3F8D426C3F864
:1011B000D826C3F8DC2683F8E026C3F8E42683F8B3
:1011C000E82600220A6003F5DE610A6003F2F4619A
:1011D00003F5DF630A601A6010BD00BF08DD020876
:1011E000000020430000A0423333B33F2DE9F34118
:1011F000B2F904E00546086849686B46BEF1000F85
:1012000003C319DDB2F90670002F15DDBDF90480A6
:10121000B2F90010B2F90230B8F1000F04DDBDF9E7
:1012200006C0BCF1000F41DCADF80010ADF8023093
:10123000ADF804E0ADF80670BDF90060B6F5A07F2A
:1012400031DABDF804403444A2B224B2002C2ADDC5
:10125000BDF90200EF2826DCBDF8061001448BB270
:1012600009B200291FDDB4F5A07F26EAE676A8BF03
:101270004FF4A072F02920EAE070A8BFF023921B7F
:1012800012B21B1A1BB2002AADF80420ADF80630CA
:10129000ADF80060ADF8020005DD002B03DD694606
:1012A000281D17F0BDFD02B0BDE8F081BDF90000BA
:1012B000BDF9022081420E46A8BF064693421C4655
:1012C0004044A8BF1446714462443B4400B209B292
:1012D00012B21BB2ADF80060ADF802408842ACBF5C
:1012E000C6EB0006C6EB01069A42ACBFC4EB020493
:1012F000C4EB0304ADF80460ADF806409CE7F0B51C
:1013000000F51C7585B004460E461746294668460A
:1013100017F0D0FD3A4631462846FFF71AFF294616
:1013200002A817F0C7FD02AA69462046FFF75EFF34
:1013300005B0F0BD00000000F0B52DED048B85B0C8
:10134000F0EE408AB3EE009A0546684611EE107A38
:10135000B0EE608A0C46164617F0ACFD78EEC98AEE
:101360002368FDEEE88A204618EE902A1B6B11B226
:10137000984738EE498A2368BDEEC88A204618EEA1
:10138000102A5B6B11B29847236820469B6B212182
:10139000984723682046DB6B212198474FF4007261
:1013A0001146204612F040FE3846FFF785F81FA38D
:1013B000D3E90023FFF7D8F81B4B0022FFF7FEF913
:1013C000FFF782FB08EE100AB0EE480A29F094F904
:1013D000F3EE0E8AF0EE499AE0EE289AB0EE480A53
:1013E00029F0C2F9A0EE289A2046F0EE497AFEEEE6
:1013F000ED7A17EE902AF0EE697AFEEEED7A17EEAE
:10140000901A12F01CFE214602A884F8256017F0FD
:1014100051FD02AA69462846FFF7E8FE05B0BDEC7B
:10142000048BF0BDAFF3008000806640182D44545B
:10143000FB2109402DE9F041054605F5805404F2F1
:10144000BC6704F0A7FA05F5B65808F09BFC00232A
:10145000334AC4F8D836C4F8DC3684F8E03604F2EF
:10146000C4613A602F4AC8F800202F4A0A6004F588
:10147000D96105F533700A6004F2EC61002284F84A
:10148000CC36C4F8D036C4F8D436C4F8E43684F880
:10149000E8360A6004F5DE6105F51C760A6004F2A0
:1014A000F4610A6004F5DF610A6085F8F13285F8BD
:1014B000753312F0C9FA05F5547012F0C5FA3046CA
:1014C00012F0C2FA98ED007AD7ED007ABDEEC77A35
:1014D000FDEEE77A17EE103A1AB217EE903A284668
:1014E00019B2FFF70CFF304612F0AEFAD4F8D83636
:1014F0000E4A0A2105F57A7019F093FF05F5CA70B6
:1015000017F042FCD4F8DC36084A05F575700A215C
:1015100019F087FF05F5A470BDE8F04117F034BC61
:10152000000020430000F0423333B33FFCC90208FF
:101530002DE9F0432DED028B044604F5805583B070
:10154000043017F021FC08F053FC95F8E036002B2E
:1015500040F06C81D84F386800231A460DF107011E
:101560000EF035F9002800F0758195F8CC3604F5B9
:10157000B65604F51C77002B40F02484384612F050
:1015800063FA05F2C46393ED006A05F2BC63D3ED20
:10159000007A76EE277A05F5D962C3ED007A92EDEE
:1015A000007AD6ED006A77EE266A4FF00008F5EE75
:1015B000C06AF1EE10FAC6ED006A40F16183C6F828
:1015C0000080B1EE477A82ED007AB4F9F420B4F9E4
:1015D000F830134407EE103AB8EEC77AF4EEC77A43
:1015E000F1EE10FA35D806EE902AF8EEE66AF4EE3F
:1015F000E67AF1EE10FA2CDBB4F97A32B4F9F6207F
:10160000D6ED005A06EE903A05EE102AF8EEE66A9C
:10161000B8EEC55A76EEA56AF4EEC56AF1EE10FA98
:1016200017DBB4F9FA30134406EE903AF8EEE66AA6
:10163000F4EEE65AF1EE10FA0BD805F2BC6383ED36
:10164000007AB1EE466A05F2C46383ED006AF0EEFB
:10165000477AB4F97812B4F9203107EE101AF8EE8F
:10166000C76A07EE103A36EEA76AB8EEC77AB4EE4C
:10167000C76AF1EE10FA3DDBB4F924211A4407EEF3
:10168000102AB8EEC77AB4EEC76AF1EE10FA31D874
:10169000B4F97A22B4F9220196ED006A07EE102A15
:1016A00005EE900AB8EEC77AF8EEE55A37EE067AFC
:1016B000B4EEE57AF1EE10FA1CDBB4F9262102440F
:1016C00007EE102AB8EEC77AB4EEC76AF1EE10FA48
:1016D00010D85B1A07EE903AF8EEE77A05F2BC6391
:1016E000C3ED007A05F2C46393ED007AB1EE477A58
:1016F00083ED007AF5EEC07AF1EE10FA40F1F08257
:10170000D5F8DC366D4A0133C5F8DC360A2104F51C
:10171000757019F086FE04F5A47017F035FB08F01B
:10172000A9FBD5F8DC360A2B06DD012385F8E03667
:10173000E06B0221FFF7ECFC002384F89532384679
:1017400012F082F93C23C5F8D0360122022385F835
:10175000CC26C5F8D436B4F97802B4F920319FED1F
:10176000581A1B1A0A3B00EE103AB8EEC00A05F2EE
:10177000BC6989ED000AB4F92631B4F97A1203EB99
:10178000D37CB4F9223107EE900A03EB6C0301EB32
:10179000D17CA3EB6C0300EE903AB8EEE77A07EE4B
:1017A000901AF8EEE00AF8EEE77A05F5DE63F6EE59
:1017B000006AC6ED000AA7EE260AC3F8008005F508
:1017C000DF63E7EEA60AC3F8008004F554712046F3
:1017D000FFF7B2FD96ED007AD9ED007ABDEEC77A3B
:1017E000FDEEE77A17EE103A1AB217EE903A20465D
:1017F00019B2FFF784FD96ED007A05F2BC65BDEEE7
:10180000C77AD5ED007A17EE103AFDEEE77A1AB2F4
:1018100017EE903A204619B2FFF771FD384612F0E4
:1018200013F903B0BDEC028BBDE8F08308F0CCFAED
:10183000002304F5337084F8F13284F8753312F024
:1018400003F904F5547003B0BDEC028BBDE8F0431E
:1018500012F0FAB89DF80730092B3FF67CAEDFE8AE
:1018600013F00A0023005000A60035004800C40011
:1018700015013501A001B4F9F6309E1C36B2C62E12
:10188000A8BFC626B3423FF466AE04F1F008404656
:1018900017F07AFAB4F9F41032464046FFF759FCD3
:1018A000404617F071FA56E6B4F9F6309E1E36B28D
:1018B000022EB8BF0226E5E7742F0020FCC90208FB
:1018C00000000000CDCC4C3E00003443B4F922317E
:1018D0009E1C36B2C62EA8BFC626B3423FF43BAE0E
:1018E00004F58E78404617F04FFAB4F920113246CD
:1018F000D3E7B4F922319E1E36B2022EB8BF0226BB
:10190000EBE795F8CC36002B3FF425AED5F8D4663E
:10191000012E7FF420AE05F2EC63D3ED007A1FEDCB
:10192000177A77EEC77AB8EE000AB4EEE70AF1EE5E
:1019300010FAD8BFB0EE670A83ED000AF0EE000A95
:1019400028F0B6FE5FED207A60EE277A17EE900A57
:10195000FEF7B2FDD8A3D3E90023FEF72FFFFFF770
:10196000B3F805F2F463F6EE006A1860B4F9783261
:1019700007EE903A05F2BC6393ED000AB4F97A32AF
:1019800007EE103A04F5B653F8EEE77AB8EEC77AE8
:10199000D3ED000AA7EEA60A3246E7EE260A01EECC
:1019A000100A04F533712046FFF7C6FCD3E595F81D
:1019B000CC36002B3FF4CFADD5F8D466012E7FF4A2
:1019C000CAAD05F2EC6393ED000ADFEDC17A30EEAB
:1019D000270AF0EE000AB4EEE00AF1EE10FAC8BFF2
:1019E000B0EE600A83ED000AAAE795F8CC36002B2A
:1019F0003FF4B1ADD5F8D436022B7FF4ACAD05F58C
:101A0000DE6393ED000ADFEDB27A30EE670AF8EE9E
:101A1000000AF4EEC00AF1EE10FAC8BFB0EE600A98
:101A200083ED000A28F044FEDFEDAA7A60EE277A03
:101A300017EE900AFEF740FD9FA3D3E90023FEF7BF
:101A4000BDFEFFF741F805F5DF63F6EE006A1860AA
:101A5000B4F9783207EE903A05F2BC6393ED000AD0
:101A6000B4F97A3207EE103A04F5B653F8EEE77A95
:101A7000B8EEC77AD3ED000AA7EEA60A0122E7EE78
:101A8000260A01EE100A04F554718CE795F8CC365D
:101A9000002B3FF460ADD5F8D436022B7FF45BAD5C
:101AA00005F5DE63D3ED007A9FED897A77EE877ACC
:101AB000B0EE000AF4EEC07AF1EE10FAD8BFB0EE44
:101AC000670A83ED000AF8EE000AABE795F8CC361A
:101AD000002B3FF440ADD5F8D436012B7FF43BAD5D
:101AE000002385F8CC3605F2EC63D3ED008AF1EEE5
:101AF000007AE8EEE87AB6EE008A17EE900AFEF772
:101B0000DBFC41EC100B28F09FFD51EC100BFEF7B5
:101B1000DBFF07EE900A05F2C463F4EEC87A05F520
:101B2000D962F1EE10FA1860C2ED008A0ED5F5EE1A
:101B3000C08AF1EE10FA83ED008A2EDB60A1D1E9B4
:101B40000001FEF7C1FF05F5D9663060012384F876
:101B5000953204F51C7011F077FFB4F97832002249
:101B600084F8F12207EE903A05F2BC6393ED000A87
:101B7000B4F97A3207EE103A04F5B653D3ED000A01
:101B8000F8EEE77AB8EEC77A05F2F463E7EE080AF2
:101B9000A7EE880A93ED001A03E74BA1D1E90001F3
:101BA000CFE795F8CC36002B3FF4D5ACD5F8D4363A
:101BB000022B7FF4D0AC002385F8CC3605F5DE632C
:101BC00093ED008AF1EE007AE8EE487AF6EE008AAC
:101BD00017EE900AFEF770FC41EC100B28F034FD74
:101BE00051EC100BFEF770FF07EE900AF4EEE87A66
:101BF00005F2C463B1EE677A05F5D962F1EE10FA29
:101C000083ED007A82ED008A0FD5B5EEC08A4FF0E1
:101C10003F42F1EE10FA1A602EDB29A1D1E9000152
:101C2000FEF752FF05F5D9663060012384F895323E
:101C300004F51C7011F008FFB4F97832002284F822
:101C4000752307EE903A05F2BC6393ED000AB4F9F0
:101C50007A3207EE103A04F5B653D3ED000AF8EEE7
:101C6000E77AB8EEC77A05F5DF63E7EE280AA7EE54
:101C7000A80A93ED001A06E713A1D1E90001CFE706
:101C8000B4F97A3205EE903AF8EEE55A75EEA66AA6
:101C9000DFED115AF4EEE56AF1EE10FA7FF795AC3C
:101CA000C3F1F00306EE903AF8EEE66AC6ED006A7C
:101CB00087E400BFAFF30080182D4454FB21094096
:101CC000DA4E4FB1DEFBFE3FDA4E4FB1DEFBFEBF18
:101CD000CDCC4C3E00003443000070430000A043D4
:101CE00076EEA76A5FED037AF4EEE76AF1EE10FA9A
:101CF0007FF781ADD5F8D8366C4A0133C5F8D836B0
:101D00000A2104F57A7019F08CFB04F5CA7017F0FB
:101D10003BF808F0AFF8D5F8D8360A2B05DD0121DD
:101D200085F8E016E06BFFF7F3F9002384F89532AD
:101D3000384611F089FE01223C2385F8CC26C5F8EF
:101D4000D036C5F8D426B4F9F810B4F9F4309FEDC4
:101D5000581A0B440A3300EE103AB8EEC00A05F2E6
:101D6000BC6989ED000AB4F9FA30B4F97A1203EBD0
:101D7000D370B4F9F63003EB600301EBD170A3EB41
:101D8000600300EE903A05F2EC63F8EEE00A07EE2D
:101D9000901AC6ED000AC3F8008005F2F463F8EE6D
:101DA000E77AC3F80080B4F9783207EE103AB8EE5B
:101DB000C77AF6EE006AE7EEA60A04F53371A7EEDD
:101DC000260A04E5D5F8D036002B09DD013BC5F81D
:101DD000D0362BB9012384F89532384611F034FE01
:101DE000D5F8D42605F2BC63012A93ED000A2DD163
:101DF000B4F9FA30B4F97A1203EBD370B4F9F630CF
:101E000003EB600301EBD170A3EB600300EE903AAB
:101E1000F8EEE00A07EE901AC6ED000AB4F978323F
:101E200007EE103AF8EEE77AB8EEC77AF6EE006AF7
:101E3000E7EEA60A05F2F46304F53371A7EE260A6D
:101E400093ED001A2046FFF777FAD4E4022A7FF4D4
:101E5000D2ACB4F92631B4F97A2203EBD371B4F9D8
:101E6000223103EB610302EBD271A3EB610300EEBD
:101E7000903AF8EEE00A07EE902AC6ED000AB4F9AF
:101E8000783207EE103AF8EEE77AB8EEC77AF6EE57
:101E9000006A05F5DF63E7EEA60A012204F5547136
:101EA000A7EE260A93ED001ACCE700BFFCC9020892
:101EB00000000000704704387047C0680368DB6AA0
:101EC0001847704710B51021044628F0AAFB204699
:101ED00010BDA0F10400F5E700228260024A026012
:101EE00018324260C16070473CDD0208806802F031
:101EF0009FB970477047000010B5034B036004465C
:101F000004F047F8204610BD64DD020810B5044611
:101F1000FFF7F2FF20464FF4CC7128F082FB2046F9
:101F200010BD000010B5044604F0AAF8014B236070
:101F3000204610BD64DD020804F02CB838B501213C
:101F40000446C06BFFF7D2FF00BBE06B0221FFF736
:101F5000CDFF031E18BF01235B0004F5BA750C4AC0
:101F60000A21284619F05DFA0023C4F8285104F12B
:101F7000E005A4F88631284612F0C2FC012384F85B
:101F800005312846BDE8384016F0FEBE0123E4E7DF
:101F9000FCC90208704704387047704710B510211B
:101FA000044628F03EFB204610BDA0F10400F5E7F2
:101FB00000228260024A026018324260C1607047AB
:101FC0009CDD02087047000010B5034B0360044617
:101FD00004F058F9204610BDC4DD020810B50446CF
:101FE000FFF7F2FF204641F2D46128F01AFB2046A9
:101FF00010BD10B500F58052D2F8D016002907DDCB
:102000000139C2F8D0160368BDE81040DB6A1847F2
:1020100015F026FDBDE8104002F05ABA10B504468E
:1020200004F088F9044B236004F58053B422C3F80C
:10203000D026204610BD00BFC4DD020810B50446FE
:1020400004F01EF9236804F580522046DB6AD2F8BA
:10205000D016BDE8104018477829F8B5054623DCAE
:102060003C2923DC0029D4BF0024012405F579771D
:10207000234605F57E760E4A0A21384619F0D1F935
:1020800023460B4A0A21304619F0CBF905F5277093
:10209000C5F8E472C5F8306316F076FE05F53A70BF
:1020A000BDE8F84016F070BE0324DFE70224DDE748
:1020B000FCC90208704704387047704710B51021FA
:1020C000044628F0AEFA204610BDA0F10400F5E762
:1020D00000228260024A026018324260C16070478A
:1020E000FCDD020808B5806802F09CF815F0B8FC29
:1020F000BDE8084002F04CBA07F066BE10B5034BCD
:102100000360044604F00CFC204610BD24DE0208E7
:1021100010B50446FFF7F2FF204641F6140128F0FF
:1021200080FA204610BD000010B5044604F012FCF1
:10213000194B236004F5805303F2D47217491160E0
:1021400003F5FB621649116003F2DC71154A0A605F
:1021500004F5BF5120460A60002203F6040183F80B
:10216000E427C3F8E827C3F8EC27C3F8F027C3F83F
:10217000F42783F8F827C3F8FC2783F80028002207
:102180000A6003F608010A6003F60C0103F5016317
:102190000A601A6010BD00BF24DE02080000204360
:1021A0000000F042CDCCCC3F2DE9F341B2F904E080
:1021B0000546086849686B46BEF1000F03C319DD88
:1021C000B2F90670002F15DDBDF90480B2F90010D8
:1021D000B2F90230B8F1000F04DDBDF906C0BCF160
:1021E000000F41DCADF80010ADF80230ADF804E0AE
:1021F000ADF80670BDF90060B6F5A07F31DABDF824
:1022000004403444A2B224B2002C2ADDBDF90200FD
:10221000EF2826DCBDF8061001448BB209B2002974
:102220001FDDB4F5A07F26EAE676A8BF4FF4A072C2
:10223000F02920EAE070A8BFF023921B12B21B1A0B
:102240001BB2002AADF80420ADF80630ADF80060EE
:10225000ADF8020005DD002B03DD6946281D16F0F0
:10226000DFFD02B0BDE8F081BDF90000BDF902203C
:1022700081420E46A8BF064693421C464044A8BF72
:102280001446714462443B4400B209B212B21BB21C
:10229000ADF80060ADF802408842ACBFC6EB000666
:1022A000C6EB01069A42ACBFC4EB0204C4EB0304C4
:1022B000ADF80460ADF806409CE7F0B500F5367562
:1022C00085B004460E4617462946684616F0F2FDCC
:1022D0003A4631462846FEF73CFF294602A816F04A
:1022E000E9FD02AA69462046FFF75EFF05B0F0BD92
:1022F000F0B52DED048B85B0F0EE408AB3EE009A78
:102300000546684611EE107AB0EE608A0C46164615
:1023100016F0D0FD78EEC98A2368FDEEE88A2046E3
:1023200018EE902A1B6B11B2984738EE498A236841
:10233000BDEEC88A204618EE102A5B6B11B2984792
:10234000236820469B6B2121984723682046DB6B3E
:10235000212198474FF400721146204611F064FE87
:102360003846FEF7A9F81FA3D3E90023FEF7FCF8CF
:102370001B4B0022FEF722FAFEF7A6FB08EE100A1E
:10238000B0EE480A28F0B8F9F3EE0E8AF0EE499A5A
:10239000E0EE289AB0EE480A28F0E6F9A0EE289A76
:1023A0002046F0EE497AFEEEED7A17EE902AF0EE36
:1023B000697AFEEEED7A17EE901A11F040FE214692
:1023C00002A884F8256016F075FD02AA6946284621
:1023D000FFF7EAFE05B0BDEC048BF0BDAFF3008063
:1023E00000806640182D4454FB2109402DE9F0413E
:1023F000054605F5805404F2D47704F08FFA04F50D
:10240000FB6807F0BFFC0023334AC4F8F037C4F878
:10241000F43784F8F83704F2DC713A602F4AC8F8D0
:1024200000202F4A0A6005F5BF5105F579700A6052
:1024300004F60401002284F8E437C4F8E837C4F84D
:10244000EC37C4F8FC3784F800380A6004F6080159
:1024500005F536760A6004F60C010A6004F50161A0
:102460000A6085F8093485F88D3411F0EDFA05F528
:102470008D6011F0E9FA304611F0E6FA98ED007A35
:10248000D7ED007ABDEEC77AFDEEE77A17EE103A87
:102490001AB217EE903A284619B2FFF70EFF3046EF
:1024A00011F0D2FAD4F8F0370E4A0A2105F5A060EF
:1024B00018F0B7FF05F5CA7016F066FCD4F8F437CB
:1024C000084A05F2EC400A2118F0ABFF05F5A470AC
:1024D000BDE8F04116F058BC000020430000F04277
:1024E000CDCCCC3FFCC902082DE9F0432DED028B89
:1024F000044604F5805583B0043016F045FC07F01F
:1025000077FC95F8F837002B40F01682D94F3868E1
:1025100000231A460DF107010DF059F9002800F0CB
:102520001F8295F8E49704F53677B9F1000F40F073
:102530004886384611F088FA05F2DC7393ED006A9C
:1025400005F2D473D3ED007A76EE277A05F5FB62B7
:10255000C3ED007A04F5BF5191ED007AD2ED006A27
:1025600077EE266A4FF00008F5EEC06AF1EE10FA39
:10257000C2ED006A40F10B84C2F80080B1EE477AE8
:1025800081ED007AB4F9F420B4F9F830134407EE81
:10259000103AB8EEC77AF4EEC77AF1EE10FA37D8EF
:1025A00006EE902AF8EEE66AF4EEE67AF1EE10FA1C
:1025B0002EDB05F5FB63D3ED005AB4F9E232B4F932
:1025C000F62006EE903A05EE102AF8EEE66AB8EE2E
:1025D000C55A76EEA56AF4EEC56AF1EE10FA17DB7D
:1025E000B4F9FA30134406EE903AF8EEE66AF4EEE7
:1025F000E65AF1EE10FA0BD805F2D47383ED007AA7
:10260000B1EE466A05F2DC7383ED006AF0EE477ABC
:10261000B4F9E012B4F9203107EE101A06EE903A40
:10262000B8EEC77AF8EEE66A37EE276AB4EEE66AE5
:10263000F1EE10FA3FDBB4F924211A4406EE902A99
:10264000F8EEE66AB4EEE66AF1EE10FA33D805F574
:10265000FB6292ED006AB4F9E222B4F9220106EEBF
:10266000902A05EE900AF8EEE66AF8EEE55A76EE64
:10267000866AF4EEE56AF1EE10FA1CDBB4F9262165
:10268000024406EE902AF8EEE66AB4EEE66AF1EE4F
:1026900010FA10D85B1A07EE903AF8EEE77A05F2D6
:1026A000D473C3ED007A05F2DC73D3ED006AF1EE6A
:1026B000666AC3ED006AB4F9382306EE902A37EE55
:1026C000277AF8EEE66AB4EEE67AF1EE10FAC0F296
:1026D0007883B4F93C33134406EE903AF8EEE66A98
:1026E000F4EEE76AF1EE10FAC0F26B8305F5FB63D6
:1026F00093ED006AB4F9E232B4F93A2306EE903A67
:1027000005EE902AF8EEE66AF8EEE55A76EE866A6D
:10271000F4EEE56AF1EE10FAC0F25383B4F93E33F9
:10272000134406EE903AF8EEE66AB4EEE66AF1EE8D
:1027300010FA00F2468305F2DC73D3ED006AF5EE81
:10274000C06AF1EE10FA40F33E8302264FF0010911
:10275000B4F9642306EE902AF8EEE66AB4EEE67A5F
:10276000F1EE10FA3CDBB4F96833134406EE903A0C
:10277000F8EEE66AF4EEE76AF1EE10FA30DB05F502
:10278000FB6393ED006AB4F9E232B4F9662306EE16
:10279000903A05EE902AF8EEE66AF8EEE55A76EE03
:1027A000866AF4EEE56AF1EE10FA19DBB4F96A33E1
:1027B000134406EE903AF8EEE66AB4EEE66AF1EEFD
:1027C00010FA0DD805F2DC73D3ED006AF5EEC06A9D
:1027D000F1EE10FAD3BF012602264FF00109B146EF
:1027E000B4F9902306EE902AF8EEE66AB4EEE67AA3
:1027F000F1EE10FA40DBB4F99433134406EE903A4C
:10280000F8EEE66AF4EEE76AF1EE10FA34DB05F56D
:10281000FB6393ED006AB4F9E232B4F9922306EE59
:10282000903A05EE902AF8EEE66AF8EEE55A76EE72
:10283000866AF4EEE56AF1EE10FA1DDBB4F9963320
:10284000134406EE903AF8EEE66AB4EEE66AF1EE6C
:1028500010FA11D805F2DC73D3ED006AF5EEC06A08
:10286000F1EE10FAD3BF012602264FF00109B1465E
:1028700002E000BF742F0020B4F9BC2306EE902ABA
:10288000F8EEE66AB4EEE67AF1EE10FA2FDBB4F970
:10289000C033134407EE103AB8EEC77AB4EEE77AC5
:1028A000F1EE10FA23DB05F5FB63D3ED006AB4F912
:1028B000E232B4F9BE2307EE103A06EE102AB8EE63
:1028C000C77AB8EEC66A37EE267AB4EEC67AF1EE6B
:1028D00010FA0CDBB4F9C233134407EE103AB8EE29
:1028E000C77AF4EEC76AF1EE10FA40F27082B9F1DD
:1028F000000F00F01B83022E40F07482D5F8F437ED
:10290000B34A0133C5F8F4370A2104F2EC4018F059
:1029100088FD04F5A47016F037FA07F0ABFAD5F885
:10292000F4370A2B06DD012385F8F837E06B022126
:10293000FFF7D8FB022670E207F046FA002304F501
:10294000797084F8093484F88D3411F07DF804F539
:102950008D6003B0BDEC028BBDE8F04311F074B89C
:102960009DF80730092B3FF6D2ADDFE813F00A00DF
:10297000230046009C002B003E00BA000B013901E9
:10298000A301B4F9F6309E1C36B2C62EA8BFC626E7
:102990009E423FF4BCAD04F1F008404616F0F4F955
:1029A000B4F9F41032464046FEF7D3FB404616F029
:1029B000EBF9ACE5B4F9F6309E1E36B2022EB8BF84
:1029C0000226E5E7B4F922319E1C36B2C62EA8BF16
:1029D000C6269E423FF49BAD04F58E78404616F025
:1029E000D3F9B4F920113246DDE7B4F922319E1E45
:1029F00036B2022EB8BF0226EBE795F8E437002B7B
:102A00003FF485ADD5F8EC67012E7FF480AD05F677
:102A10000403D3ED007A9FED6F7A77EEC77AB8EEB4
:102A2000000AB4EEE70AF1EE10FAD8BFB0EE670A7A
:102A300083ED000AF0EE000A27F03AFEDFED667A39
:102A400060EE277A17EE900AFDF736FD5EA3D3E914
:102A50000023FDF7B3FEFEF737F805F60C03F6EE9C
:102A6000006A1860B4F9E03207EE903A05F2D473C8
:102A700093ED000AB4F9E23207EE103A05F5FB6374
:102A8000F8EEE77AB8EEC77AD3ED000AA7EEA60A09
:102A90003246E7EE260A01EE100A04F57971204667
:102AA000FFF726FC33E595F8E437002B3FF42FAD14
:102AB000D5F8EC67012E7FF42AAD05F6040393EDFB
:102AC000000ADFED447A30EE270AF0EE000AB4EE99
:102AD000E00AF1EE10FAC8BFB0EE600A83ED000A1A
:102AE000AAE795F8E437002B3FF411ADD5F8EC37A1
:102AF000022B7FF40CAD05F6080393ED000ADFED21
:102B0000357A30EE670AF8EE000AF4EEC00AF1EE0C
:102B100010FAC8BFB0EE600A83ED000A27F0C8FDC6
:102B2000DFED2D7A60EE277A17EE900AFDF7C4FCF0
:102B300025A3D3E90023FDF741FEFDF7C5FF05F509
:102B40000163F6EE006A1860B4F9E03207EE903ADD
:102B500005F2D47393ED000AB4F9E23207EE103AAD
:102B600005F5FB63F8EEE77AB8EEC77AD3ED000A15
:102B7000A7EEA60A0122E7EE260A01EE100A04F5E6
:102B80008D618CE795F8E437002B3FF4C0ACD5F8A5
:102B9000EC37022B7FF4BBAC05F60803D3ED007ACB
:102BA0009FED0C7A77EE877AB0EE000AF4EEC07AE9
:102BB000F1EE10FAD8BFB0EE670A83ED000AF8EE26
:102BC000000AABE7AFF30080182D4454FB21094005
:102BD000FCC90208CDCC4C3E00003443AE47A940AE
:102BE00095F8E437002B3FF492ACD5F8EC37012B85
:102BF0007FF48DAC002385F8E43705F60403D3EDAC
:102C0000008A5FED0A7AE8EEE87A04F5BF56B6EE80
:102C1000008A17EE900AFDF74FFC41EC100B27F0ED
:102C200013FD51EC100BFDF74FFF07EE900A05F274
:102C3000DC73F4EEC87AF1EE10FA1860C6ED008A83
:102C40000DD5F5EEC08AF1EE10FA83ED008A2DDB8A
:102C50000FF21C41D1E90001FDF736FF306001237E
:102C600084F8FD3204F5367010F0EEFEB4F9E0326F
:102C7000002284F8092407EE903A05F2D47393ED0C
:102C8000000AB4F9E23207EE103A05F5FB63D3ED22
:102C9000000AF8EEE77AB8EEC77A05F60C03E7EE1D
:102CA000080AA7EE880A93ED001AF6E6F2A1D1E928
:102CB0000001D1E795F8E437002B3FF428ACD5F8B4
:102CC000EC37022B7FF423AC002385F8E43705F6BC
:102CD000080393ED008ADFEDEA7AE8EE487A04F51E
:102CE000BF56F6EE008A17EE900AFDF7E5FB41ECC1
:102CF000100B27F0A9FC51EC100BFDF7E5FE07EED9
:102D0000900AF4EEE87A05F2DC73B1EE677AF1EE40
:102D100010FA83ED007A86ED008A0DD5B5EEC08AF3
:102D20004FF03F42F1EE10FA1A602CDBD0A1D1E94E
:102D30000001FDF7C9FE3060012384F8FD3204F57F
:102D4000367010F081FEB4F9E032002284F88D2450
:102D500007EE903A05F2D47393ED000AB4F9E2322B
:102D600007EE103A05F5FB63D3ED000AF8EEE77ABB
:102D7000B8EEC77A05F50163E7EE280AA7EEA80AC0
:102D800093ED001AFBE6BCA1D1E90001D1E7B4F94B
:102D9000E23205EE903AF8EEE55A75EEA66ADFEDFE
:102DA000B95AF4EEE56AF1EE10FA7FF7EBABC3F136
:102DB000F00306EE903AF8EEE66AC2ED006AFFF71D
:102DC000DDBB0026C4E44FF001094E46C0E405F225
:102DD000DC73D3ED007AF5EEC07AF1EE10FA3FF72E
:102DE0008DAD0126D5F8F037A74A0133C5F8F03785
:102DF0000A2104F5A06018F014FB04F5CA7015F060
:102E0000C3FF07F037F8D5F8F0370A2B05DD0121AD
:102E100085F8F817E06BFFF765F9002384F8FD32B9
:102E2000384610F011FE01223C2385F8E427C5F84E
:102E3000E837C5F8EC67B4F9E232B4F9E0E207EE3E
:102E4000103A07EE90EAB8EEC77AB8EEE70A03EB5D
:102E5000D371F6EE007A964220EE270A27EE277A03
:102E600041FA02F105F2D47C05F5FB6033D1B4F9E7
:102E7000F820B4F9F4309FED851A13440A3307EEB5
:102E8000903AF8EEE77ACCED007AB4F9FA3003EB39
:102E9000D372B4F9F63003EB62035B1A00EE903A9A
:102EA00005F60403F8EEE00A37EE800AC0ED000AEA
:102EB000C3F8008005F60C0370EE870AC3F80080A3
:102EC000324604F579712046FFF712FA05F5FB63E7
:102ED00093ED007A6EE1B4F920319FED6C1AA3EB0B
:102EE0000E030A3B07EE903AF8EEE77ACCED007A53
:102EF000B4F9263103EBD376B4F9223103EB660340
:102F00005B1A00EE903A05F60803F8EEE00A37EE99
:102F1000800AC0ED000AC3F8008005F5016370EE79
:102F2000870AC3F8008004F58D61CCE7DFED586AAD
:102F3000F4EEE67A05F5FB63F1EE10FA93ED007A14
:102F400040F3AC80DFED537AB4EEE77AF1EE10FA9D
:102F500040F32481DFED507AB4EEE77AF1EE10FA17
:102F600040F11C81D5F8F037474A0133C5F8F037F6
:102F70000A2104F5A06018F054FA04F5CA7015F09F
:102F800003FF06F077FFD5F8F0370A2B05DD0121A6
:102F900085F8F817E06BFFF7A5F8002384F8FD32F9
:102FA000384610F051FD01223C2385F8E427C5F88E
:102FB000E837C5F8EC27B4F9F810B4F9F4309FED10
:102FC000331A0B440A3300EE103AB8EEC00A05F289
:102FD000D47686ED000AB4F9FA30B4F9E21203EBC4
:102FE000D370B4F9F63003EB600301EBD170A3EBBF
:102FF000600300EE903A05F5FB6905F60403F8EE70
:10300000E00A05F60C05C9ED000AC3F80080C5F812
:103010000080B4F9E03207EE901A07EE103AF8EEAD
:10302000E77AB8EEC77AF6EE006AE7EEA60A04F58C
:103030007971A7EE260A2046FFF75AF999ED007A32
:10304000D6ED007ABDEEC77A17EE103AFDEEE77ABC
:103050001AB217EE903A204619B2FFF72EF9384609
:1030600010F0F2FC03B0BDEC028BBDE8F08300BFB2
:10307000836DE7A2BFF50140836DE7A2BFF501C0F4
:10308000AE47A94000007043FCC9020800000000E0
:1030900000809F430000704200003543F7EE006A55
:1030A000F4EEE67AF1EE10FA40F184805FED077AF3
:1030B000B4EEE77AF1EE10FA70DD5FED097AB4EE66
:1030C000E77AF1EE10FA69D5D5F8F437754A01338D
:1030D000C5F8F4370A2104F2EC4018F0A2F904F51F
:1030E000A47015F051FE06F0C5FED5F8F4370A2B92
:1030F00006DD012385F8F837E06B0221FEF7F2FFC9
:10310000002384F8FD32384610F09EFC3C23C5F8BD
:10311000E8370122022385F8E427C5F8EC37B4F933
:10312000E002B4F920319FED601A1B1A0A3B00EE51
:10313000103AB8EEC00A05F2D47686ED000AB4F96A
:103140002631B4F9E21203EBD37CB4F9223107EE55
:10315000900A03EB6C0301EBD17CA3EB6C0300EE54
:10316000903AB8EEE77A07EE901AF8EEE00A05F525
:10317000FB6905F60803F8EEE77A05F50165F6EE5A
:10318000006AC9ED000AA7EE260AC3F8008004F51C
:103190008D61E7EEA60AC5F800804CE705F2D4730E
:1031A000C3ED006A05F2DC73D3ED007AF1EE677AC5
:1031B000C3ED007A05F2D475BDEEC77AD5ED007A7D
:1031C00042E7D5F8E837002B09DD013BC5F8E837C1
:1031D0002BB9012384F8FD32384610F035FCD5F8C0
:1031E000EC2705F2D473012A93ED000A2AD1B4F931
:1031F000FA30B4F9E21203EBD370B4F9F63003EB12
:10320000600301EBD170A3EB600300EE903AF8EE9F
:10321000E00A05F5FB63C3ED000AB4F9E03207EEFE
:10322000901A07EE103AF8EEE77AB8EEC77AF6EEA3
:10323000006A05F60C03E7EEA60AA7EE260A93ED50
:10324000001A3EE6022A7FF441AEB4F92631B4F901
:10325000E22203EBD371B4F9223103EB610302EBF9
:10326000D271A3EB610300EE903AF8EEE00A05F5A7
:10327000FB63C3ED000AB4F9E03207EE902A07EED3
:10328000103AF8EEE77AB8EEC77AF6EE006A05F57E
:103290000163E7EEA60A0122A7EE260A93ED001AC3
:1032A00041E600BFFCC90208000000007047043876
:1032B0007047704710B51021044627F0B2F9204638
:1032C00010BDA0F10400F5E700228260024A02600E
:1032D00018324260C160704758DE02087047000033
:1032E00010B5034B0360044603F0C6FE204610BD34
:1032F00080DE020810B50446FFF7F2FF204641F2D7
:10330000246127F08EF9204610BD10B500F58052DB
:10331000D2F82016002907DD0139C2F8201603680B
:10332000BDE81040DB6A184714F09AFBBDE8104076
:1033300001F0EEB810B5044603F0CAFE044B23605A
:1033400004F58053B422C3F82026204610BD00BFE8
:1033500080DE020810B5044603F08CFE236804F5F5
:1033600080522046DB6AD2F82016BDE8104018478C
:103370007829F8B5054623DC3C2923DC0029D4BF95
:103380000024012405F54D77234605F552760E4AB3
:103390000A21384618F045F823460B4A0A213046E0
:1033A00018F03FF805F50D70C5F87C72C5F830636C
:1033B00015F0EAFC05F53A70BDE8F84015F0E4BCFC
:1033C0000324DFE70224DDE7FCC902087047043864
:1033D0007047704710B51021044627F022F92046A7
:1033E00010BDA0F10400F5E7806800F02FBF0000D9
:1033F00000228260024A026018324260C160704757
:10340000B8DE020808B5806800F00CFF14F028FB55
:10341000BDE8084001F0BCB806F0D6BC10B5034BBF
:103420000360044604F0F2F8204610BDE0DE020816
:1034300010B50446FFF7F2FF204641F2647127F011
:10344000F0F8204610BD000010B5044604F0F8F86E
:10345000194B236004F5805303F22472174911605D
:1034600003F5E5621649116003F22C71154A0A60F2
:1034700003F5E66120460A60002203F2547183F8E6
:103480003427C3F83827C3F83C27C3F84027C3F8CC
:10349000442783F84827C3F84C2783F85027002295
:1034A0000A6003F5EB6103F25C730A601A6004F5CD
:1034B000BB531A6010BD00BFE0DE020800002043CD
:1034C0000000F0423333B33F2DE9F341B2F904E099
:1034D0000546086849686B46BEF1000F03C319DD55
:1034E000B2F90670002F15DDBDF90480B2F90010A5
:1034F000B2F90230B8F1000F04DDBDF906C0BCF12D
:10350000000F41DCADF80010ADF80230ADF804E07A
:10351000ADF80670BDF90060B6F5A07F31DABDF8F0
:1035200004403444A2B224B2002C2ADDBDF90200CA
:10353000EF2826DCBDF8061001448BB209B2002941
:103540001FDDB4F5A07F26EAE676A8BF4FF4A0728F
:10355000F02920EAE070A8BFF023921B12B21B1AD8
:103560001BB2002AADF80420ADF80630ADF80060BB
:10357000ADF8020005DD002B03DD6946281D15F0BE
:103580004FFC02B0BDE8F081BDF90000BDF902209A
:1035900081420E46A8BF064693421C464044A8BF3F
:1035A0001446714462443B4400B209B212B21BB2E9
:1035B000ADF80060ADF802408842ACBFC6EB000633
:1035C000C6EB01069A42ACBFC4EB0204C4EB030491
:1035D000ADF80460ADF806409CE7F0B500F536752F
:1035E00085B004460E4617462946684615F062FC2B
:1035F0003A4631462846FDF7ACFD294602A815F0AB
:1036000059FC02AA69462046FFF75EFF05B0F0BDEF
:10361000F0B52DED048B85B0F0EE408AB3EE009A44
:103620000546684611EE107AB0EE608A0C461646E2
:1036300015F040FC78EEC98A2368FDEEE88A204642
:1036400018EE902A1B6B11B2984738EE498A23680E
:10365000BDEEC88A204618EE102A5B6B11B298475F
:10366000236820469B6B2121984723682046DB6B0B
:10367000212198474FF400721146204610F0D4FCE7
:103680003846FCF719FF1FA3D3E90023FCF76CFFB2
:103690001B4B0022FDF792F8FDF716FA08EE100A10
:1036A000B0EE480A27F028F8F3EE0E8AF0EE499AB9
:1036B000E0EE289AB0EE480A27F056F8A0EE289AD5
:1036C0002046F0EE497AFEEEED7A17EE902AF0EE03
:1036D000697AFEEEED7A17EE901A10F0B0FC2146F2
:1036E00002A884F8256015F0E5FB02AA6946284681
:1036F000FFF7EAFE05B0BDEC048BF0BDAFF3008030
:1037000000806640182D4454FB2109402DE9F0410A
:10371000054605F5805404F2247703F075FF04F59F
:10372000E56806F02FFB0023334AC4F84037C4F89D
:10373000443784F8483704F22C713A602F4AC8F8AD
:1037400000202F4A0A6004F5E66105F54D700A6015
:1037500004F25471002284F83437C4F83837C4F8BE
:103760003C37C4F84C3784F850370A6004F5EB61F5
:1037700005F536760A6004F25C710A6005F5BB5106
:103780000A6085F8593385F8DD3310F05DF905F5E9
:103790006E7010F059F9304610F056F998ED007A35
:1037A000D7ED007ABDEEC77AFDEEE77A17EE103A54
:1037B0001AB217EE903A284619B2FFF70EFF3046BC
:1037C00010F042F9D4F840370E4A0A2105F58A6014
:1037D00017F027FE05F5CA7015F0D6FAD4F844376D
:1037E000084A05F23C400A2117F01BFE05F5A470BB
:1037F000BDE8F04115F0C8BA000020430000F042D7
:103800003333B33FFCC902082DE9F0412DED028BA3
:10381000044604F5805582B0043015F0B5FA06F080
:10382000E7FA95F84837002B40F06081DC4F3868A4
:1038300000231A460DF107010BF0C9FF002800F024
:10384000698195F8343704F53676002B40F05784BB
:10385000304610F0F9F805F22C73D3ED005A9FEDC5
:10386000D18A05F2247393ED007A35EE877A05F557
:10387000E66183ED007A05F5E563D1ED006AD3EDED
:10388000007A76EEA77AF4EEC87AF1EE10FAC3ED7C
:10389000007A40F15C83F1EE666A83ED008AF0EE17
:1038A000487AC1ED006AB4F9F420B4F9F830134451
:1038B00006EE903AF8EEE66AB4EEE67AF1EE10FA29
:1038C00033D806EE102AB8EEC66AB4EEC67AF1EE28
:1038D00010FA2ADBB4F9E232B4F9F62006EE103A17
:1038E00005EE102AB8EEC66AB8EEC55A36EE276A5B
:1038F000B4EEC56AF1EE10FA17DBB4F9FA301344EE
:1039000006EE103AB8EEC66AB4EEE76AF1EE10FAC7
:103910000BDB05F22473C3ED006AF1EE655A05F284
:103920002C73C3ED005AB0EE667AB4F9E012B4F924
:10393000203106EE901AB8EEE66A06EE903A36EEC0
:10394000076AF8EEE66AB4EEE66AF1EE10FA3BDBDF
:10395000B4F924211A4406EE902AF8EEE66AB4EE91
:10396000E66AF1EE10FA2FD8B4F9E222B4F9220196
:1039700006EE902A06EE100AF8EEE66AB8EEC66A7F
:1039800076EEA76AF4EEC66AF1EE10FA1CDBB4F923
:103990002621024406EE902AF8EEE66AF4EEE76A83
:1039A000F1EE10FA10DB5B1A07EE103AB8EEC77AA8
:1039B00005F2247383ED007A05F22C73D3ED006ACF
:1039C000F1EE666AC3ED006ADFED776AB4EEE67A7F
:1039D000F1EE10FA40F3EE829FED747AF4EEC77ABE
:1039E000F1EE10FA40F366839FED717AF4EEC77A38
:1039F000F1EE10FA40F15E83D5F840376D4A01339D
:103A0000C5F840370A2104F58A6017F00AFD04F56D
:103A1000CA7015F0B9F906F02DFAD5F840370A2B1F
:103A200005DD012185F84817E06BFFF7EBFC00236B
:103A300084F8FD32304610F007F801223C2385F867
:103A40003427C5F83837C5F83C27B4F9F810B4F96D
:103A5000F4309FED541A0B440A3300EE103AB8EEDE
:103A6000C00A05F2247787ED000AB4F9FA30B4F9F8
:103A7000E21203EBD370B4F9F63003EB600301EB11
:103A8000D170A3EB600300EE903AF8EEE00A05F285
:103A9000547305F5E56805F25C75C8ED000A83ED21
:103AA000008A85ED008AB4F9E03207EE901A07EE3D
:103AB000103AF8EEE77AB8EEC77AF6EE006AE7EE6B
:103AC000A60A04F54D71A7EE260A2046FFF7A0FDD1
:103AD00098ED007AD7ED007ABDEEC77A17EE103A6E
:103AE000FDEEE77A1AB217EE903AFCE206F06CF9B6
:103AF000002304F54D7084F8593384F8DD330FF05A
:103B0000A3FF04F56E7002B0BDEC028BBDE8F0417E
:103B10000FF09ABF9DF80730092B3FF688AEDFE81B
:103B200013F00A0023005700AD002C004F00CB001B
:103B30001C013C01A701B4F9F6309E1C36B2C62E1A
:103B4000A8BFC626B3423FF472AE04F1F008404667
:103B500015F01AF9B4F9F41032464046FDF7F9FAB7
:103B6000404615F011F962E6B4F9F6309E1E36B201
:103B7000022EB8BF02269E42E5E7B4F922319E1C10
:103B800036B2C62EA8BFC6269E423FF450AE04F5FC
:103B90008E78404615F0F8F8B4F920113246DCE78B
:103BA000742F00200000000000809F43000070423E
:103BB00000003543FCC90208CDCC4C3E0000344324
:103BC000B4F922319E1E36B2022EB8BF0226DBE7C0
:103BD00095F83437002B3FF42AAED5F83C67012E18
:103BE0007FF425AE05F25473D3ED007A1FED0E7A03
:103BF00077EEC77AB8EE000AB4EEE70AF1EE10FAF3
:103C0000D8BFB0EE670A83ED000AF0EE000A26F096
:103C10004FFD5FED167A60EE277A17EE900AFCF7FB
:103C20004BFCD9A3D3E90023FCF7C8FDFCF74CFFFC
:103C300005F25C73F6EE006A1860B4F9E03207EE44
:103C4000903A05F2247393ED000AB4F9E23207EEDC
:103C5000103A05F5E563F8EEE77AB8EEC77AD3EDEA
:103C6000000AA7EEA60A3246E7EE260A01EE100A7F
:103C700004F54D712046FFF7CBFCD8E595F83437B5
:103C8000002B3FF4D4ADD5F83C67012E7FF4CFADC7
:103C900005F2547393ED000ADFEDC17A30EE270A86
:103CA000F0EE000AB4EEE00AF1EE10FAC8BFB0EE92
:103CB000600A83ED000AAAE795F83437002B3FF439
:103CC000B6ADD5F83C37022B7FF4B1AD05F5EB630B
:103CD00093ED000ADFEDB27A30EE670AF8EE000AE3
:103CE000F4EEC00AF1EE10FAC8BFB0EE600A83ED40
:103CF000000A26F0DDFCDFEDAB7A60EE277A17EEE6
:103D0000900AFCF7D9FBA0A3D3E90023FCF756FDEA
:103D1000FCF7DAFE04F5BB53F6EE006A1860B4F95E
:103D2000E03207EE903A05F2247393ED000AB4F9FD
:103D3000E23207EE103A05F5E563F8EEE77AB8EE01
:103D4000C77AD3ED000AA7EEA60A0122E7EE260AFB
:103D500001EE100A04F56E718CE795F83437002BEC
:103D60003FF465ADD5F83C37022B7FF460AD05F527
:103D7000EB63D3ED007A9FED8A7A77EE877AB0EE27
:103D8000000AF4EEC07AF1EE10FAD8BFB0EE670A7E
:103D900083ED000AF8EE000AABE795F83437002B04
:103DA0003FF445ADD5F83C37012B7FF440AD0023FF
:103DB00085F8343705F25473D3ED008AF1EE007ABA
:103DC000E8EEE87AB6EE008A17EE900AFCF774FB8C
:103DD00041EC100B26F038FC51EC100BFCF774FE94
:103DE00007EE900A05F22C73F4EEC87A05F5E66248
:103DF000F1EE10FA1860C2ED008A0ED5F5EEC08A19
:103E0000F1EE10FA83ED008A2EDB61A1D1E9000109
:103E1000FCF75AFE05F5E6663060012384F8FD32B2
:103E200004F536700FF010FEB4F9E032002284F889
:103E3000592307EE903A05F2247393ED000AB4F982
:103E4000E23207EE103A05F5E563D3ED000AF8EE2D
:103E5000E77AB8EEC77A05F25C73E7EE080AA7EED8
:103E6000880A93ED001A03E74BA1D1E90001CFE7DF
:103E700095F83437002B3FF4DAACD5F83C37022BF9
:103E80007FF4D5AC002385F8343705F5EB6393ED6B
:103E9000008AF1EE007AE8EE487AF6EE008A17EE34
:103EA000900AFCF709FB41EC100B26F0CDFB51EC1E
:103EB000100BFCF709FE07EE900AF4EEE87A05F223
:103EC0002C73B1EE677A05F5E662F1EE10FA83ED38
:103ED000007A82ED008A0FD5B5EEC08A4FF03F42DE
:103EE000F1EE10FA1A602EDB29A1D1E90001FCF7EE
:103EF000EBFD05F5E6663060012384F8FD3204F53C
:103F000036700FF0A1FDB4F9E032002284F8DD2311
:103F100007EE903A05F2247393ED000AB4F9E23209
:103F200007EE103A05F5E563D3ED000AF8EEE77AFF
:103F3000B8EEC77A04F5BB53E7EE280AA7EEA80A45
:103F400093ED001A06E714A1D1E90001CFE7B4F917
:103F5000E2229FED155A06EE102AB8EEC66A36EE3A
:103F6000276AB4EEC56AF1EE10FA7FF79CACC2F195
:103F7000F00207EE902AF8EEE77AF1EE666AC3EDFA
:103F8000007AC1ED006A8EE4182D4454FB210940EB
:103F9000DA4E4FB1DEFBFE3FDA4E4FB1DEFBFEBF25
:103FA000CDCC4C3E00003443000070430000704212
:103FB00000003543F7EE006AB4EEE67AF1EE10FA4F
:103FC00040F184801FED077AF4EEC77AF1EE10FA23
:103FD00070DD1FED097AF4EEC77AF1EE10FA69D5BB
:103FE000D5F84437864A0133C5F844370A2104F22C
:103FF0003C4017F016FA04F5A47014F0C5FE05F065
:1040000039FFD5F844370A2B06DD012385F84837F8
:10401000E06B0221FFF7F6F9002384F8FD32304609
:104020000FF012FD3C23C5F838370122022385F832
:104030003427C5F83C37B4F9E002B4F920319FEDDC
:10404000711A1B1A0A3B00EE103AB8EEC00A05F2CC
:10405000247787ED000AB4F92631B4F9E21203EBB4
:10406000D37CB4F9223107EE900A03EB6C0301EB29
:10407000D17CA3EB6C0300EE903AB8EEE77A07EE42
:10408000901AF8EEE00AF8EEE77A05F5E568F6EE44
:10409000006A05F5EB6504F5BB53C8ED000AA7EE11
:1040A000260A04F56E7185ED008AE7EEA60A83ED17
:1040B000008A0AE505F22473C3ED006A05F22C7349
:1040C00093ED007AB1EE477A83ED007A05F224751C
:1040D000FDEEE77A95ED007A17EE903ABDEEC77ADD
:1040E0001AB217EE103A19B22046FFF776FA3046A8
:1040F0000FF0AAFC02B0BDEC028BBDE8F081D5F850
:104100003837002B09DD013BC5F838372BB90123BF
:1041100084F8FD3230460FF097FCD5F83C2705F2C5
:104120002473012A93ED000A39D1B4F9FA30B4F9B5
:10413000E21203EBD370B4F9F63003EB600301EB4A
:10414000D170A3EB600300EE903AF8EEE00A05F5BB
:10415000E563C3ED000AB4F9E03207EE901A07EE0A
:10416000103AF8EEE77AB8EEC77AF6EE006AE7EEB4
:10417000A60A05F25C7304F54D71A7EE260A93EDCD
:10418000001A2046FFF744FA05F5E56393ED007A3F
:1041900005F22475BDEEC77AD5ED007A9EE4022AB9
:1041A000F2D1B4F92631B4F9E22203EBD371B4F9B8
:1041B000223103EB610302EBD271A3EB610300EE4A
:1041C000903AF8EEE00A05F5E563C3ED000AB4F9AC
:1041D000E03207EE902A07EE103AF8EEE77AB8EEF2
:1041E000C77AF6EE006A04F5BB53E7EEA60A012291
:1041F00004F56E71A7EE260A93ED001AC1E700BF21
:10420000FCC90208000000000022C0E90022C0E949
:104210000222027470470000014B02681A60704766
:104220007C0300204160014827F00ABDFFC9020855
:1042300010B544680448631A5C425C41224627F08A
:10424000FFFC204610BD00BF15CA02080023C0E9CC
:1042500002330374436070477047043870477047F7
:1042600010B51021044626F0DCF9204610BDA0F15F
:104270000400F5E700228260024A026018324260C0
:10428000C160704714DF02087047704710B5034BD8
:104290000360044603F010FD204610BD3CDF020819
:1042A00010B50446FFF7F2FF204641F67C0126F0E8
:1042B000B8F9204610BD000010B5044603F042FDD9
:1042C000014B2360204610BD3CDF020803F0D3BC45
:1042D00070477047704741607047704770470123CF
:1042E0000372704770477047704710B4D0E90232CC
:1042F0004168541001EB6200D20748BF0A595DF8CB
:10430000044B48BFD35818470346406830B19A68F9
:104310001AB9D86800F0010070470120704710B545
:104320000C21044626F07DF9204610BD10B514215D
:10433000044626F076F9204610BD10B5102104463B
:1043400026F06FF9204610BD10B54FF4AE7104464B
:1043500026F067F9204610BD10B513F081FB036805
:10436000BDE81040DB6B184710B513F079FB03680C
:10437000BDE810405B6B184713B50446807A637A3A
:104380000130C0B29842A07205D9012323720023E4
:10439000A37202B010BDB4F90C20002115F0A1FDEC
:1043A000C30706D500284FF6FF73C8BF0123184482
:1043B00000B2144AE08112880023ADF8023083B2C3
:1043C000D21AADF80020228A20829B1AADF8043060
:1043D0000D4B1B88ADF8063013F042FB036802AAB0
:1043E0001B6C12E906009847A37A012BD1D1074B29
:1043F0001B78002BCDD013F033FB02B0BDE810408A
:1044000013F034BB823F0120803F01207B3F01201D
:10441000044B1B6893F85C200AB1186D00B99868CA
:10442000704700BF843F0120F8B5174604460E468A
:1044300013F002FC124B1C60124B2360124B002540
:10444000C4E95135114BC4E94F55C4E95355C4E98A
:1044500055761868036829469B689847284604F0F3
:104460008FFAFFF7D5FF1EF0ACF9FFF7D1FF1EF072
:1044700023FAFFF7CDFF1EF02BFA2046F8BD00BF50
:10448000D43F01208CDF020874DF0208843F012042
:10449000064BC0F84C310023C0F8503100F5A27330
:1044A000C0F84801C0F84031704700BFE54A000835
:1044B000064BC0F84C310023C0F8503100F5A27310
:1044C000C0F84801C0F84031704700BF655000088F
:1044D000064BC0F84C310023C0F8503100F5A273F0
:1044E000C0F84801C0F84031704700BF9949000842
:1044F000064BC0F84C310023C0F8503100F5A273D0
:10450000C0F84801C0F84031704700BF014F0008B3
:10451000064BC0F84C310023C0F8503100F5A273AF
:10452000C0F84801C0F84031704700BF4D4800084E
:10453000064BC0F84C310023C0F8503100F5A2738F
:10454000C0F84801C0F84031704700BF9D4D0008D9
:10455000064BC0F84C310023C0F8503100F5A2736F
:10456000C0F84801C0F84031704700BF014700085B
:10457000064BC0F84C310023C0F8503100F5A2734F
:10458000C0F84801C0F84031704700BF394C0008FE
:10459000064BC0F84C310023C0F8503100F5A2732F
:1045A000C0F84801C0F84031704700BFB945000865
:1045B00003685B6A184700002DE9F14FD0E9556A9E
:1045C0000746B06803681B6A9847B0F5CC7F05D2F0
:1045D000434B444AA321444827F07AF970680368A2
:1045E0001B6A98470F2803D8404B3E4AA421F2E7A4
:1045F000F06803681B6A98470B2803D83C4B394A7C
:10460000A521E8E713F02CFADFF8EC90043013F062
:1046100072FAD9F8000010B10368DB689847D9F83E
:10462000000010B103681B689847DFF8D080D8F805
:10463000000010B103685B699847D7F83C0110B1DE
:1046400003685B689847D8F8000010B103681B68DE
:104650009847D7F83C0110B103689B689847F06809
:104660000021FFF7A5FF4FF0000B224BC0F804B06C
:1046700080F808B003600446B068036859465B6A76
:1046800098470546FDF74EFC7068036859465B6A1B
:10469000984729460646FDF71FFC331DC7F83C61C5
:1046A000C9F80040C8F80050CAF80030C6F808A0A1
:1046B0002B68EE632846DB689847336830461B68F2
:1046C00098472146284615F006FC236820461B69BA
:1046D000984723685B69204601B0BDE8F04F184752
:1046E0003FCA0208CDCA0208A3CB0208E4CB0208E5
:1046F00087CC0208E0DF0208CC3F0120D03F012038
:104700002DE9F14FD0E9556A0746B06803681B6A86
:10471000984741F2FB63984205D8444B444AA32191
:10472000444827F0D5F8706803681B6A98470F283B
:1047300003D8414B3E4AA421F2E7F06803681B6AA4
:1047400098470B2803D83D4B394AA521E8E713F0D9
:1047500087F9DFF8F090043013F0CDF9D9F80000B4
:1047600010B10368DB689847D9F8000010B10368FE
:104770001B689847DFF8D080D8F8000010B10368B4
:104780005B699847D7F83C0110B103685B689847AC
:10479000D8F8000010B103681B689847D7F83C01AF
:1047A00010B103689B689847F0680021FFF700FF8D
:1047B0004FF0000B224BC0F804B080F808B0036043
:1047C0000446B068036859465B6A98470546FCF79B
:1047D000CDFC7068036859465B6A984729460646CF
:1047E000FCF78CFC331DC7F83C61C9F80040C8F8E1
:1047F0000050CAF80030C6F808A02B68EE632846BF
:10480000DB689847336830461B689847214628463E
:1048100015F061FB236820461B69984723685B6994
:10482000204601B0BDE8F04F184700BF3FCA02085C
:104830002ACD0208A3CB0208E4CB020887CC0208E9
:10484000E0DF0208CC3F0120D03F01202DE9F14FED
:10485000D0E9556A0746B06803681B6A984741F279
:104860006373984205D8444B444AA321444827F037
:104870002FF8706803681B6A98470F2803D8414BCC
:104880003E4AA421F2E7F06803681B6A98470B28A8
:1048900003D83D4B394AA521E8E713F0E1F8DFF8EA
:1048A000F090043013F027F9D9F8000010B1036834
:1048B000DB689847D9F8000010B103681B68984777
:1048C000DFF8D080D8F8000010B103685B69984722
:1048D000D7F83C0110B103685B689847D8F800002E
:1048E00010B103681B689847D7F83C0110B1036802
:1048F0009B689847F0680021FFF75AFE4FF0000BC5
:10490000224BC0F804B080F808B003600446B068D9
:10491000036859465B6A98470546FEF795FD70683F
:10492000036859465B6A984729460646FEF760FDCC
:10493000331DC7F83C61C9F80040C8F80050CAF8F8
:104940000030C6F808A02B68EE632846DB6898475D
:10495000336830461B6898472146284615F0BBFA55
:10496000236820461B69984723685B69204601B08D
:10497000BDE8F04F184700BF3FCA020802CE020848
:10498000A3CB0208E4CB020887CC0208E0DF0208D0
:10499000CC3F0120D03F01202DE9F14FD0E9556AED
:1049A0000746B06803681B6A984741F613039842AC
:1049B00005D8444B444AA321444826F089FF706837
:1049C00003681B6A98470F2803D8414B3E4AA4212D
:1049D000F2E7F06803681B6A98470B2803D83D4B41
:1049E000394AA521E8E713F03BF8DFF8F0900430EE
:1049F00013F081F8D9F8000010B10368DB6898471C
:104A0000D9F8000010B103681B689847DFF8D08020
:104A1000D8F8000010B103685B699847D7F83C01EB
:104A200010B103685B689847D8F8000010B10368BC
:104A30001B689847D7F83C0110B103689B689847FA
:104A4000F0680021FFF7B4FD4FF0000B224BC0F8D7
:104A500004B080F808B003600446B06803685946A3
:104A60005B6A98470546FDF75FFB70680368594627
:104A70005B6A984729460646FDF72AFB331DC7F8AF
:104A80003C61C9F80040C8F80050CAF80030C6F8C8
:104A900008A02B68EE632846DB68984733683046E9
:104AA0001B6898472146284615F015FA23682046CA
:104AB0001B69984723685B69204601B0BDE8F04F49
:104AC000184700BF3FCA0208DECE0208A3CB020887
:104AD000E4CB020887CC0208E0DF0208CC3F0120CB
:104AE000D03F01202DE9F14FD0E9556A0746B06863
:104AF00003681B6A984741F67B03984205D8444BEC
:104B0000444AA321444826F0E3FE706803681B6A08
:104B100098470F2803D8414B3E4AA421F2E7F0689A
:104B200003681B6A98470B2803D83D4B394AA521D7
:104B3000E8E712F095FFDFF8F090043012F0DBFFA9
:104B4000D9F8000010B10368DB689847D9F8000075
:104B500010B103681B689847DFF8D080D8F80000D0
:104B600010B103685B699847D7F83C0110B103683E
:104B70005B689847D8F8000010B103681B68984735
:104B8000D7F83C0110B103689B689847F068002192
:104B9000FFF70EFD4FF0000B224BC0F804B080F879
:104BA00008B003600446B068036859465B6A9847DA
:104BB0000546FFF781FB7068036859465B6A9847B2
:104BC00029460646FFF756FB331DC7F83C61C9F876
:104BD0000040C8F80050CAF80030C6F808A02B689A
:104BE000EE632846DB689847336830461B68984771
:104BF0002146284615F06FF9236820461B6998471F
:104C000023685B69204601B0BDE8F04F184700BF3C
:104C10003FCA0208B6CF0208A3CB0208E4CB0208C1
:104C200087CC0208E0DF0208CC3F0120D03F012002
:104C300003685B6A184700002DE9F14FD0E955BAC7
:104C40000746DBF8080003681B6A984741F2BB532C
:104C5000984205D8484B494AA321494826F038FED6
:104C6000DBF8040003681B6A98470F2803D8454BFC
:104C7000424AA421F1E7DBF80C0003681B6A98475D
:104C8000132803D8404B3D4AA521E6E712F0E8FE81
:104C9000DFF80091043012F02EFFD9F8000010B1B7
:104CA0000368DB689847D9F8000010B103681B68F7
:104CB0009847DFF8E480D8F8000010B103685B691A
:104CC0009847D7F83C0110B103685B689847D8F85B
:104CD000000010B103681B689847D7F83C0110B179
:104CE00003689B689847DBF80C000021FFF7A0FFE2
:104CF000264B036014234372254B00261B88466015
:104D000006728672C681068283810446DBF808003B
:104D1000036831465B6A98470546FCF791F9DBF872
:104D20000400036831465B6A984729460646FCF74B
:104D30004FF9331DC7F83C61C9F80040C8F800506E
:104D4000CAF80030C6F808A02B68EE632846DB6876
:104D50009847336830461B6898472146284615F027
:104D6000BAF8236820461B69984723685B69204688
:104D700001B0BDE8F04F18473FCA020890D00208C2
:104D8000A3CB0208E4CB020887CC020804E00208A7
:104D9000823F0120CC3F0120D03F01202DE9F14F7F
:104DA000D0E955BA0746DBF8080003681B6A984744
:104DB00041F22363984205D8484B494AA321494808
:104DC00026F086FDDBF8040003681B6A98470F286D
:104DD00003D8454B424AA421F1E7DBF80C000368F5
:104DE0001B6A9847132803D8404B3D4AA521E6E7A4
:104DF00012F036FEDFF80091043012F07CFED9F894
:104E0000000010B10368DB689847D9F8000010B1C2
:104E100003681B689847DFF8E480D8F8000010B1F9
:104E200003685B699847D7F83C0110B103685B6879
:104E30009847D8F8000010B103681B689847D7F866
:104E40003C0110B103689B689847DBF80C00002117
:104E5000FFF7EEFE264B036014234372254B00261A
:104E60001B88466006728672C6810682838104466C
:104E7000DBF80800036831465B6A98470546FEF791
:104E800059FADBF80400036831465B6A9847294603
:104E90000646FEF719FA331DC7F83C61C9F8004011
:104EA000C8F80050CAF80030C6F808A02B68EE63B6
:104EB0002846DB689847336830461B689847214688
:104EC000284615F008F8236820461B699847236890
:104ED0005B69204601B0BDE8F04F18473FCA0208A1
:104EE00084D10208A3CB0208E4CB020887CC0208D5
:104EF00004E00208823F0120CC3F0120D03F012086
:104F00002DE9F14FD0E955BA0746DBF808000368F0
:104F10001B6A984741F2D363984205D8484B494AE7
:104F2000A321494826F0D4FCDBF8040003681B6A7F
:104F300098470F2803D8454B424AA421F1E7DBF8F4
:104F40000C0003681B6A9847132803D8404B3D4A5E
:104F5000A521E6E712F084FDDFF80091043012F09D
:104F6000CAFDD9F8000010B10368DB689847D9F88A
:104F7000000010B103681B689847DFF8E480D8F898
:104F8000000010B103685B699847D7F83C0110B185
:104F900003685B689847D8F8000010B103681B6885
:104FA0009847D7F83C0110B103689B689847DBF835
:104FB0000C000021FFF73CFE264B036014234372D4
:104FC000254B00261B88466006728672C6810682C3
:104FD00083810446DBF80800036831465B6A984722
:104FE0000546FDF71BF8DBF80400036831465B6AF1
:104FF000984729460646FCF7DBFF331DC7F83C619E
:10500000C9F80040C8F80050CAF80030C6F808A037
:105010002B68EE632846DB689847336830461B6888
:1050200098472146284614F056FF236820461B69FE
:10503000984723685B69204601B0BDE8F04F1847E8
:105040003FCA02087CD20208A3CB0208E4CB0208C4
:1050500087CC020804E00208823F0120CC3F0120F7
:10506000D03F01202DE9F14FD0E955BA0746DBF8D2
:10507000080003681B6A984741F67B03984205D8ED
:10508000484B494AA321494826F022FCDBF804009A
:1050900003681B6A98470F2803D8454B424AA4214E
:1050A000F1E7DBF80C0003681B6A9847132803D864
:1050B000404B3D4AA521E6E712F0D2FCDFF8009113
:1050C000043012F018FDD9F8000010B10368DB6855
:1050D0009847D9F8000010B103681B689847DFF8BB
:1050E000E480D8F8000010B103685B699847D7F8EE
:1050F0003C0110B103685B689847D8F8000010B114
:1051000003681B689847D7F83C0110B103689B6897
:105110009847DBF80C000021FFF78AFD264B03605F
:1051200014234372254B00261B8846600672867244
:10513000C681068283810446DBF808000368314695
:105140005B6A98470546FFF7B7F8DBF80400036889
:1051500031465B6A984729460646FFF78BF8331DB0
:10516000C7F83C61C9F80040C8F80050CAF80030E0
:10517000C6F808A02B68EE632846DB6898473368BA
:1051800030461B6898472146284614F0A4FE236841
:1051900020461B69984723685B69204601B0BDE83B
:1051A000F04F18473FCA020870D30208A3CB020889
:1051B000E4CB020887CC020804E00208823F012009
:1051C000CC3F0120D03F01200020704781807047F4
:1051D000C1807047018170474181704770477047B7
:1051E0007047704770474FF6FF7383814FF0FF336E
:1051F00003621368C36110607047704770470020F6
:105200007047B1F9043083800120704770477047C0
:1052100030B5036885B00181D3F884300146044677
:10522000684698479DE807003C3484E8070005B0CD
:1052300030BD30B5036885B04181D3F88430014674
:105240000446684698479DE807003C3484E8070018
:1052500005B030BD0022028042808280C28070474B
:1052600080F83610704770B5036804461B6B15460E
:1052700098472368294620465B6EBDE87040184772
:1052800000207047806C704770477047704710B5BA
:105290000821044625F0C5F9204610BD10B54C2163
:1052A000044625F0BEF9204610BD10B52C21044659
:1052B00025F0B7F9204610BD0B898A89D21A4B898F
:1052C000C988591A12B209B213F0DABD10B5034BEE
:1052D0000360044610F096FD204610BD50E1020820
:1052E00010B5064B0360044610F08CFD204641F2D9
:1052F000B85125F096F9204610BD00BF50E10208D4
:1053000090F8252012B103685B691847704708B50B
:1053100090F826300BB1FFF7F3FF08BD08B5FFF793
:10532000EFFF08BD90F825201AB190F8242002B1B3
:105330001860704770B503685E6B124B1B680446BB
:105340008DB22BB9104B114A6C21114826F0C0FACE
:105350001049828D0988914203D80F4B0B4A6D2169
:10536000F3E713F812200D4B1B6853F82200036873
:105370001B6B9847291A3346204609B2BDE8704096
:10538000184700BFE43F01205CD402089ED4020805
:10539000D9D40208D83F01201AD50208DC3F0120E9
:1053A00010B500F58054D4F8B4350133B42BC4F8EB
:1053B000B43506D112F054FBFFF7CAF80023C4F845
:1053C000B43510BD00224FF0FF31C0E900218260EA
:1053D000704770B5036804461B6B154698472368F1
:1053E000294620465B6BBDE87040184770B50446FF
:1053F0001D46BDF91060FFF7ECFF236829462046E3
:105400009B6B9847236831462046DB6BBDE87040B4
:10541000184700004FF48071416208490160002282
:10542000FF21C0E90122C0E90322C0E90522C0E949
:10543000072280F826108262704700BFF4EC020851
:1054400070B50023124E8380124B0360336893F8CB
:105450005C2005460AB1186D00B9986803681B6B9B
:1054600098473368B0FA80F4186D640930B1036866
:105470001B6B9847002808BF44F001042CB9064B69
:10548000064A07482C2126F023FA284670BD00BFA3
:10549000843F012028E0020858D50208B6D502084A
:1054A000EFD502084FF4807141620D4901600D494A
:1054B00081624FF6FF7181854FF47F0100224163C5
:1054C0004FF0FF31C0E90122C0E90322C0E9052203
:1054D000C0E90722C0E9101202630287C263704765
:1054E00064EC020848E002082DE9F04F04468BB056
:1054F00027464FF0000B14F053FBD64BC4F83CB0DA
:1055000047F8403B04F16C063846FFF783FF04F18F
:1055100098083046FFF77EFF4046FFF77BFF04F117
:10552000C400FFF777FF04F1F0000DF0CBFD04F5A8
:105530009C70FFF785FFC84BC4F838312433C4F89A
:105540004031C64DC4F844B14FF0010904F5A670CE
:10555000FFF760FF04F5D27AC4F84C5184F87091DB
:1055600004F5BC70FFF756FFC4F8785184F89C919D
:105570005046FFF797FF04F5F670FFF793FF04F529
:105580000D731846B64D0393FFF78CFF04F5207397
:10559000C4F834521846C4F87CB20393FFF782FF74
:1055A00004F58053C4F88052C4F8C8B2F025C3F89B
:1055B000B4B54FF4965104F53D7010F019FC5A46FD
:1055C000384600954FF4A073594604F10409FFF7DB
:1055D0000DFF4FF07F433946A36648460AF0DDFED3
:1055E0004FF0FF374FF4A0735A46304600955946A6
:1055F000FFF7FCFE3146C4F8947048460AF0CDFE31
:105600000222EC231146404600934FF49F73FFF7AC
:10561000EDFE944BC4F8C030414648460AF0BDFE4A
:105620005A4600950323A02104F1C400FFF7DEFED3
:10563000DC23C4F8EC7084F8EA3004F1C401484675
:105640000AF0ABFE0E237222601900939B21FFF734
:10565000CDFEC023C4F824314FF43453C4F82C31A8
:10566000814BC4F8443149F66103A4F8483104F58C
:105670009C736119C4E94755C4F818312825484678
:10568000C4F830B1C4F828B10AF087FE05236422BB
:105690000095082104F5A670FFF7A8FEC4F8747100
:1056A00004F5A67148460AF078FE052364220095A9
:1056B0004FF49A7104F5BC70FFF798FE4FF0340870
:1056C000C4F8A07104F5BC71484604AD0AF065FE4B
:1056D00013235F225046CDF800807421FFF786FE29
:1056E0005146C4F8D4712846A4F8D8B10EF054FE3F
:1056F00095E8070004F5F07686E807004FF003020E
:10570000514684F8DD2128460EF046FE95E8070054
:105710004FF0010386E80700514684F8DC31284643
:105720000EF03AFE95E80700152386E8070050467C
:105730004E4EADF8243008A908960FF001F96FF02D
:10574000410184F8DA11484651460AF026FE132337
:105750005F22CDF80080BB2104F5F670FFF746FE0E
:10576000C4F81C7204F5F6712846A4F820B20EF0B5
:1057700013FE95E8070004F50A7888E807004FF063
:10578000030284F8252204F5F671284617460EF028
:1057900003FE95E8070088E8070084F8247204F502
:1057A000F67128460EF0F8FD95E8070088E8070036
:1057B00008AA1223114604F5F670ADF824300896B5
:1057C0000FF0BEF86FF0410184F82212484604F54C
:1057D000F6710AF0E2FD7022352104F50D70FFF735
:1057E000F8FD234BC4F86432D4F83432A4F868B21C
:1057F000D3F88430DFF890A004F50D71284698475F
:1058000095E8070004F51C7787E807004FF00103CF
:1058100084F86C32D4F8343204F50D71D3F8843046
:105820002846984795E80700DAF8003087E807002F
:1058300004F533772BB90F4B0F4A60210F4826F040
:1058400047F80F4B1B88092B20D80E4B0A4A6121C1
:10585000F4E700BF50E1020850E90208E8E002085E
:1058600058E0020837380CFF0C0C99FF48E002089A
:105870005FABDEFF5CD402084BD60208D9D4020825
:10588000D83F01201AD50208E43F0120DFF800814B
:105890000921D8F8000003F0AFF83A4A03460A217C
:1058A000384615F0BEFDC4F87C7204F50D700FF09B
:1058B00027F8D227142308A904F50D70ADF8243079
:1058C00008960FF03DF804F50D71484684F86A72A9
:1058D0000AF063FD6F22F32104F52070FFF779FDD4
:1058E000294BC4F8B032D4F88032A4F8B4B22846B8
:1058F000D3F8843004F52071984795E8070004F543
:105900002F7B8BE807004FF0030384F8B832D4F8FC
:1059100080322846D3F8843004F52071984795E802
:105920000700DAF800308BE8070004F53875002B23
:1059300081D0164B1B88092B87D9D8F80000092184
:1059400003F05AF80F4A03460A21284615F069FD6C
:1059500004F52070C4F8C8520EF0D2FF132308A932
:1059600004F52070ADF8243008960EF0E9FF4846A3
:1059700084F8B67204F520710AF00FFD20460BB0D2
:10598000BDE8F08F96D602085FABDEFFD83F01205E
:10599000E03F01207047000010B5034B0360044650
:1059A00010F030FA204610BD84E1020810B5064B15
:1059B0000360044610F026FA204641F2BC6124F050
:1059C00030FE204610BD00BF84E102082DE9F04FF3
:1059D00004468BB02546002614F0E2F8974BE663A8
:1059E00045F8403B04F16C0A2846FFF713FD50468A
:1059F000FFF710FD04F1C40804F19800FFF70AFD59
:105A00004046FFF707FD8E4F4FF0010904F1F0000B
:105A1000FFF700FD04F5A47BC4F8F07084F814913E
:105A200004F58E70FFF7F6FCC4F81C7184F8409101
:105A3000844F584604F5CA79FFF734FDC4F848711D
:105A4000C4F890614846FFF72DFD04F5F073C4F8E3
:105A500094711846C4F8DC610393FFF723FD04F545
:105A60000A7318460393FFF71DFD04F51C731846CF
:105A7000754F03930DF026FB04F52E731846039320
:105A8000FFF7DEFC07F12403C4F8C03204F53373DA
:105A9000C4F8B8721846C4F8C46203930EF0A8F9AB
:105AA00004F54F7318460393FFF7CAFC07F124036C
:105AB000C4F8443304F55473C4F83C731846C4F86E
:105AC000486303930EF094F904F57073184603933A
:105AD000FFF7B6FC07F12403C4F8C073C4F8C83359
