:020000040800F2
:1000000000000320950401087DAF00087FAF0008C1
:1000100081AF000883AF000885AF00080000000032
:10002000000000000000000000000000B1FC00081B
:1000300087AF00080000000041FD000865F60008D9
:10004000E5040108E5040108E5040108E5040108E8
:10005000E5040108E5040108E5040108E5040108D8
:10006000E5040108E5040108E5040108E5040108C8
:10007000E5040108E5040108E5040108E5040108B8
:10008000E5040108E5040108E5040108E5040108A8
:10009000E5040108E5040108E5040108E504010898
:1000A000E5040108E5040108E5040108E504010888
:1000B000E5040108E5040108E5040108E504010878
:1000C000E5040108E5040108E5040108E504010868
:1000D000E5040108E5040108E5040108E504010858
:1000E000E5040108E5040108E5040108E504010848
:1000F000E5040108E5040108E5040108E504010838
:10010000E5040108E5040108E5040108E504010827
:10011000E5040108E504010889AF000895AF00086F
:10012000E5040108E5040108E5040108E504010807
:10013000E5040108E5040108E5040108E5040108F7
:10014000E5040108E5040108E5040108E5040108E7
:10015000E5040108E5040108E5040108E5040108D7
:10016000E5040108E5040108E5040108E5040108C7
:10017000E5040108E5040108E504010800000000A9
:10018000E5040108E5040108E5040108E5040108A7
:10019000E5040108E5040108E5040108E504010897
:0C01A000A1AF0008E5040108ADAF0008A5
:1001B00010B5054C237833B9044B13B10448AFF3A1
:1001C00000800123237010BD6003002000000000A8
:1001D00080CA020808B5034B1BB103490348AFF3BB
:1001E000008008BD000000006403002080CA0208EF
:1001F00081F0004102E000BF83F0004330B54FEAD8
:1002000041044FEA430594EA050F08BF90EA020F44
:100210001FBF54EA000C55EA020C7FEA645C7FEAD7
:10022000655C00F0E2804FEA5454D4EB5555B8BFFA
:100230006D420CDD2C4480EA020281EA030382EA6B
:10024000000083EA010180EA020281EA0303362DFD
:1002500088BF30BD11F0004F4FEA01314FF4801CD0
:100260004CEA113102D0404261EB410113F0004FE2
:100270004FEA03334CEA133302D0524263EB430399
:1002800094EA050F00F0A780A4F10104D5F1200E37
:100290000DDB02FA0EFC22FA05F2801841F1000192
:1002A00003FA0EF2801843FA05F359410EE0A5F166
:1002B00020050EF1200E012A03FA0EFC28BF4CF097
:1002C000020C43FA05F3C01851EBE37101F000454D
:1002D00007D54FF0000EDCF1000C7EEB00006EEB5A
:1002E0000101B1F5801F1BD3B1F5001F0CD34908E4
:1002F0005FEA30004FEA3C0C04F101044FEA44523B
:1003000012F5800F80F09A80BCF1004F08BF5FEAC1
:10031000500C50F1000041EB045141EA050130BDA1
:100320005FEA4C0C404141EB0101013C28BFB1F5B3
:10033000801FE9D291F0000F04BF01460020B1FAFE
:1003400081F308BF2033A3F10B03B3F120020CDAD1
:100350000C3208DD02F1140CC2F10C0201FA0CF0AF
:1003600021FA02F10CE002F11402D8BFC2F1200C14
:1003700001FA02F120FA0CFCDCBF41EA0C019040CA
:10038000E41AA2BF01EB0451294330BD6FEA040413
:100390001F3C1CDA0C340EDC04F11404C4F12002FE
:1003A00020FA04F001FA02F340EA030021FA04F310
:1003B00045EA030130BDC4F10C04C4F1200220FA67
:1003C00002F001FA04F340EA0300294630BD21FAA5
:1003D00004F0294630BD94F0000F83F4801306BF6B
:1003E00081F480110134013D4EE77FEA645C18BF5F
:1003F0007FEA655C29D094EA050F08BF90EA020FF6
:1004000005D054EA000C04BF1946104630BD91EAED
:10041000030F1EBF0021002030BD5FEA545C05D1F0
:100420004000494128BF41F0004130BD14F580042F
:100430003CBF01F5801130BD01F0004545F0FE41A3
:1004400041F470014FF0000030BD7FEA645C1ABFD8
:10045000194610467FEA655C1CBF0B46024650EA0F
:10046000013406BF52EA033591EA030F41F400213B
:1004700030BD00BF90F0000F04BF0021704730B5C1
:100480004FF4806404F132044FF000054FF0000196
:1004900050E700BF90F0000F04BF0021704730B557
:1004A0004FF4806404F1320410F0004548BF40422C
:1004B0004FF000013EE700BF42004FEAE2014FEA81
:1004C00031014FEA02701FBF12F07F4393F07F4F5C
:1004D00081F06051704732F07F4208BF704793F05F
:1004E0007F4F04BF41F40021704730B54FF4607472
:1004F00001F0004521F000411CE700BF50EA010275
:1005000008BF704730B54FF000050AE050EA01021D
:1005100008BF704730B511F0004502D5404261EB8D
:1005200041014FF4806404F132045FEA915C3FF4CE
:10053000D8AE4FF003025FEADC0C18BF03325FEA6B
:10054000DC0C18BF033202EBDC02C2F1200300FA1C
:1005500003FC20FA02F001FA03FE40EA0E0021FA41
:1005600002F11444BDE600BF70B54FF0FF0C4CF42F
:10057000E06C1CEA11541DBF1CEA135594EA0C0FE1
:1005800095EA0C0F00F0DEF82C4481EA030621EA1C
:100590004C5123EA4C5350EA013518BF52EA033557
:1005A00041F4801143F4801338D0A0FB02CE4FF009
:1005B0000005E1FB02E506F00042E0FB03E54FF039
:1005C0000006E1FB03569CF0000F18BF4EF0010E31
:1005D000A4F1FF04B6F5007F64F5407404D25FEA2D
:1005E0004E0E6D4146EB060642EAC62141EA5551E0
:1005F0004FEAC52040EA5E504FEACE2EB4F1FD0C22
:1006000088BFBCF5E06F1ED8BEF1004F08BF5FEA9F
:10061000500E50F1000041EB045170BD06F0004651
:1006200046EA010140EA020081EA0301B4EB5C04FE
:10063000C2BFD4EB0C0541EA045170BD41F48011F6
:100640004FF0000E013C00F3AB8014F1360FDEBF1B
:10065000002001F0004170BDC4F10004203C35DAF7
:100660000C341BDC04F11404C4F1200500FA05F37A
:1006700020FA04F001FA05F240EA020001F000421B
:1006800021F0004110EBD37021FA04F642EB060191
:100690005EEA430E08BF20EAD37070BDC4F10C04BB
:1006A000C4F1200500FA04F320FA05F001FA04F27F
:1006B00040EA020001F0004110EBD37041F100016B
:1006C0005EEA430E08BF20EAD37070BDC4F1200576
:1006D00000FA05F24EEA020E20FA04F301FA05F2DE
:1006E00043EA020321FA04F001F0004121FA04F286
:1006F00020EA020000EBD3705EEA430E08BF20EA56
:10070000D37070BD94F0000F0FD101F0004640008F
:1007100041EB010111F4801F08BF013CF7D041EA11
:10072000060195F0000F18BF704703F00046520015
:1007300043EB030313F4801F08BF013DF7D043EAE6
:100740000603704794EA0C0F0CEA135518BF95EA9C
:100750000C0F0CD050EA410618BF52EA4306D1D123
:1007600081EA030101F000414FF0000070BD50EA42
:10077000410606BF1046194652EA430619D094EACC
:100780000C0F02D150EA013613D195EA0C0F05D1B6
:1007900052EA03361CBF104619460AD181EA03010A
:1007A00001F0004141F0FE4141F470014FF00000C2
:1007B00070BD41F0FE4141F4780170BD70B54FF05D
:1007C000FF0C4CF4E06C1CEA11541DBF1CEA1355DD
:1007D00094EA0C0F95EA0C0F00F0A7F8A4EB0504BF
:1007E00081EA030E52EA03354FEA013100F08880B6
:1007F0004FEA03334FF0805545EA131343EA12637F
:100800004FEA022245EA111545EA10654FEA002633
:100810000EF000419D4208BF964244F1FD0404F5EC
:10082000407402D25B084FEA3202B61A65EB030548
:100830005B084FEA32024FF480104FF4002CB6EB05
:10084000020E75EB030E22BFB61A754640EA0C0085
:100850005B084FEA3202B6EB020E75EB030E22BFC5
:10086000B61A754640EA5C005B084FEA3202B6EB06
:10087000020E75EB030E22BFB61A754640EA9C00C5
:100880005B084FEA3202B6EB020E75EB030E22BF95
:10089000B61A754640EADC0055EA060E18D04FEA53
:1008A000051545EA16754FEA06164FEAC30343EAF3
:1008B00052734FEAC2025FEA1C1CC0D111F4801FC0
:1008C0000BD141EA00014FF000004FF0004CB6E7B9
:1008D00011F4801F04BF01430020B4F1FD0C88BF58
:1008E000BCF5E06F3FF6AFAEB5EB030C04BFB6EB63
:1008F000020C5FEA500C50F1000041EB045170BD56
:100900000EF0004E4EEA113114EB5C04C2BFD4EB82
:100910000C0541EA045170BD41F480114FF0000E06
:10092000013C90E645EA060E8DE60CEA135594EA82
:100930000C0F08BF95EA0C0F3FF43BAF94EA0C0F85
:100940000AD150EA01347FF434AF95EA0C0F7FF4FA
:1009500025AF104619462CE795EA0C0F06D152EA4E
:1009600003353FF4FDAE1046194622E750EA410632
:1009700018BF52EA43067FF4C5AE50EA41047FF443
:100980000DAF52EA43057FF4EBAE12E74FF0FF3CA8
:1009900006E000BF4FF0010C02E000BF4FF0010C79
:1009A0004DF804CD4FEA410C7FEA6C5C4FEA430CF2
:1009B00018BF7FEA6C5C1BD001B050EA410C0CBF41
:1009C00052EA430C91EA030F02BF90EA020F0020A3
:1009D000704710F1000F91EA030F58BF994208BF0A
:1009E00090422CBFD8176FEAE37040F001007047C7
:1009F0004FEA410C7FEA6C5C02D150EA013C07D11E
:100A00004FEA430C7FEA6C5CD6D152EA033CD3D068
:100A10005DF8040B704700BF8446104662468C4662
:100A20001946634600E000BF01B5FFF7B7FF002895
:100A300048BF10F1000F01BD4DF808EDFFF7F4FFBE
:100A40000CBF012000205DF808FB00BF4DF808ED49
:100A5000FFF7EAFF34BF012000205DF808FB00BF6C
:100A60004DF808EDFFF7E0FF94BF012000205DF88E
:100A700008FB00BF4DF808EDFFF7CEFF94BF012043
:100A800000205DF808FB00BF4DF808EDFFF7C4FF3C
:100A900034BF012000205DF808FB00BF4FEA410C85
:100AA0007FEA6C5C02D150EA013C0AD14FEA430C68
:100AB0007FEA6C5C02D152EA033C02D14FF00000A5
:100AC00070474FF0010070474FEA4102B2F1E04336
:100AD00024BFB3F5001CDCF1FE5C0DD901F0004C25
:100AE0004FEAC0024CEA5070B2F1004F40EB830075
:100AF00008BF20F00100704711F0804F21D113F1A1
:100B00003872BCBF01F00040704741F480114FEAD9
:100B10005252C2F11802C2F1200C10FA0CF320FA62
:100B200002F018BF40F001004FEAC1234FEAD3237F
:100B300003FA0CFC40EA0C0023FA02F34FEA4303E9
:100B4000CCE77FEA625307D150EA01331EBF4FF072
:100B5000FE4040F44000704701F0004040F0FE408D
:100B600040F40000704700BF53B94AB9002908BFDC
:100B700000281CBF4FF0FF314FF0FF3000F088B964
:100B8000ADF1080C6DE904CE00F006F8DDF804E0E4
:100B9000DDE9022304B070472DE9F047089D0F46B8
:100BA00004468C46002B48D18A42164661D9B2FAD7
:100BB00082F34BB1C3F1200201FA03FC20FA02F2E6
:100BC0009E4042EA0C0C9C404FEA164EB7B2BCFB6A
:100BD000FEF1220C0EFB11CC42EA0C4201FB07F0A5
:100BE000904209D9B21801F1FF3C80F0EE809042AA
:100BF00040F2EB8002393244121AA4B2B2FBFEF08A
:100C00000EFB102244EA024400FB07F7A74209D971
:100C1000341900F1FF3280F0DA80A74240F2D78029
:100C20003444023840EA0140E41B00211DB1DC409D
:100C30000023C5E90043BDE8F0878B4206D90DB11A
:100C4000C5E9000100210846BDE8F087B3FA83F149
:100C5000002948D1BB4202D3824200F20781841AA4
:100C600067EB030201209446002DE4D0C5E9004C57
:100C7000E1E7002A00F09280B2FA82F3002B40F004
:100C8000A8808A1A4FEA164E1FFA86FC0121200C12
:100C9000B2FBFEF70EFB172240EA02420CFB07F004
:100CA000904207D9B21807F1FF3802D2904200F201
:100CB000E2804746121AA4B2B2FBFEF00EFB1022ED
:100CC00044EA02440CFB00FCA44507D9341900F1A6
:100CD000FF3202D2A44500F2CB801046A4EB0C04F4
:100CE00040EA0740A2E7C1F120068B4022FA06FC49
:100CF0004CEA030C07FA01F420FA06F3F7404FEA36
:100D00001C49234300FA01F81FFA8CFEB7FBF9F0E7
:100D10001C0C09FB107744EA074400FB0EF7A742BE
:100D200002FA01F20AD91CEB040400F1FF3A80F048
:100D30009B80A74240F2988002386444E41B9FB233
:100D4000B4FBF9F309FB134447EA044403FB0EFE2A
:100D5000A64509D91CEB040403F1FF3780F082801B
:100D6000A6457FD9023B644443EA0040A4EB0E044D
:100D7000A0FB02E7BC427346B94663D360D05DB1C5
:100D8000B8EB030264EB090404FA06F622FA01F355
:100D90001E43CC40C5E9006400214CE762084808C6
:100DA00042EAC1710B0C43EA00438AB242EA0342B1
:100DB000B3FBF6F1E407B4463746B6461F23B0FB53
:100DC000F6F0D21B41EA004161E7614614E71046A4
:100DD00028E7C3F1200120FA01F29E4027FA01F131
:100DE0009F403A434FEA164E1FFA86FCB1FBFEF7CE
:100DF0000EFB1710110C41EA004107FB0CF8884567
:100E000004FA03F43AD9711807F1FF3001D288458A
:100E10001FD8A1EB0801B1FBFEF808FB0CF70EFB95
:100E2000181192B242EA0142BA422FD2B21808F126
:100E3000FF31C6D2BA42C4D2A8F102013244C0E79F
:100E4000F0459CD2BEEB020367EB0C070138B946B4
:100E500095E7A6EB08084144B81EB1FBFEF808FB75
:100E60000CF7DCE73B467FE7504667E70846FBE6C2
:100E70003444023832E7023F32441BE7A1EB080159
:100E80003846B1FBFEF808FB0CF7C8E7414698E787
:100E9000704700BF000000000000000000000000DC
:100EA00001F0FF01102A2BDB10F0070F08D010F81B
:100EB000013B013A8B422DD010F0070F42B3F6D11F
:100EC000F0B441EA012141EA014122F007047FF038
:100ED00000070023F0E80256083C85EA010586EA8F
:100EE000010685FA47F5A3FA87F586FA47F6A5FACB
:100EF00087F68EB9EED1F0BC01F0FF0102F00702D7
:100F000032B110F8013B013A83EA010313B1F8D181
:100F10000020704701387047002D06BF3546033862
:100F2000073815F0010F07D1013015F4807F02BF9B
:100F3000013015F4C03F0130F0BC0138704700BFEC
:100F4000704700F598730868496803C37047704795
:100F500003F094BC10B54FF4AE71044629F01FFCA9
:100F6000204610BD10B50446D0F8580103F04AFBE6
:100F70002046BDE8104016F0DDBE10B50446D0F89E
:100F8000400158B10368DB68984738B1D4F8400194
:100F900003689B6898470023C4F8403110BD0000E7
:100FA00010B5044603F036FC014B2360204610BD0B
:100FB00000CB0208704704387047704710B5102105
:100FC000044629F0ECFB204610BDA0F10400F5E733
:100FD00000228260024A026018324260C16070479B
:100FE00054CB0208704770477047000010B5034BA0
:100FF0000360044604F060FB204610BD20DE0208BA
:1010000010B50446FFF7F2FF204641F2BC5129F02B
:10101000C6FB204610BD10B500F58052D2F8B815B9
:10102000002907DD0139C2F8B8150368BDE8104092
:10103000DB6A184716F0D2FDBDE8104003F07EBC15
:1010400010B5044604F046FC044B236004F58053BD
:10105000B422C3F8B825204610BD00BF20DE020828
:1010600010B5044604F008FB236804F580522046BE
:10107000DB6AD2F8B815BDE8104018477829F8B5F2
:10108000054623DC3C2923DC0029D4BF00240124AD
:1010900005F53377234605F538760E4A0A2138469A
:1010A0001AF07DFA23460B4A0A2130461AF077FAE5
:1010B00005F50D70C5F87C72C5F8C86217F022FFFF
:1010C00005F52070BDE8F84017F01CBF0324DFE7EA
:1010D0000224DDE774CB020870470438704770477C
:1010E00010B51021044629F05AFB204610BDA0F18E
:1010F0000400F5E7806803F09FBA000000228260D8
:10110000024A026018324260C160704758DE02082D
:1011100008B5806803F07CFA16F060FDBDE8084071
:1011200003F02CBC09F09EB810B5034B03600446D5
:1011300004F028FE204610BD80DE020810B50446EB
:10114000FFF7F2FF204641F2FC6129F028FB204620
:1011500010BD00002DE9F8432DED048BB0EE408A60
:1011600092ED000AD1ED007A0D9C9DF83890DFEDEC
:10117000489A20EE000A9846A7EEA70A06460D46B2
:10118000174629F055FBB4F90A3007EE903AF8EE0D
:10119000E77AB6EE009A67EE897AF5EEC07AF1EE5C
:1011A00010FA66DDB4F90630DDED0C6A07EE103A90
:1011B000F8EEE66AB8EEC77AA6EE898A37EE277AA5
:1011C00038EE478A88EE277AFFEE007AB4EEE77AA7
:1011D000F1EE10FA08D4F7EE007AB4EEE77AF1EE09
:1011E00010FAD8BFF0EE477ADFED2A8A60EE288A3F
:1011F00020EE008A68EEA78AB0EE480AA8EEE80A58
:10120000C7ED008A29F014FBB4EEC90AF1EE10FA1A
:101210001BD5F5EE007A38EE670AF5EEC08AF1EEDE
:1012200010FAB5EEC00AACBFB7EE008ABFEE008A76
:10123000F1EE10FAD8BFB0EE690A29F0F9FA20EE03
:10124000080A87ED000AB6EE000AB9F1000F13D0C4
:1012500085ED000AB4F90430B4F90820134407EE10
:10126000903AF8EEE77AC6ED007ABDEC048BBDE863
:10127000F883F0EE697AB7E7B1EE400A85ED000A2F
:10128000B4F90420A2EB080207EE902AE9E700BFB8
:10129000000000009A99593F10B4C4880368121BDB
:1012A00084885B6D091B12B25DF8044B09B21847C4
:1012B00010B5044604F080FD194B236004F58053FB
:1012C00003F2BC621749116004F5B6521649116069
:1012D00003F2C461154A0A6003F5D96120460A6029
:1012E000002203F2EC6183F8CC26C3F8D026C3F8C1
:1012F000D426C3F8D826C3F8DC2683F8E026C3F842
:10130000E42683F8E82600220A6003F5DE610A601D
:1013100003F2F46103F5DF630A601A6010BD00BFD9
:1013200080DE0208000020430000A0423333B33FB8
:101330002DE9F341B2F904E00546086849686B46B7
:10134000BEF1000F03C319DDB2F90670002F15DDE1
:10135000BDF90480B2F90010B2F90230B8F1000F03
:1013600004DDBDF906C0BCF1000F41DCADF8001092
:10137000ADF80230ADF804E0ADF80670BDF90060DC
:10138000B6F5A07F31DABDF804403444A2B224B2ED
:10139000002C2ADDBDF90200EF2826DCBDF806107E
:1013A00001448BB209B200291FDDB4F5A07F26EA03
:1013B000E676A8BF4FF4A072F02920EAE070A8BF3B
:1013C000F023921B12B21B1A1BB2002AADF80420A4
:1013D000ADF80630ADF80060ADF8020005DD002B79
:1013E00003DD6946281D17F0D9FD02B0BDE8F08184
:1013F000BDF90000BDF9022081420E46A8BF064695
:1014000093421C464044A8BF1446714462443B4486
:1014100000B209B212B21BB2ADF80060ADF80240E2
:101420008842ACBFC6EB0006C6EB01069A42ACBFD1
:10143000C4EB0204C4EB0304ADF80460ADF806404D
:101440009CE7F0B500F51C7585B004460E461746BE
:101450002946684617F0ECFD3A4631462846FFF724
:101460001BFF294602A817F0E3FD02AA69462046A1
:10147000FFF75EFF05B0F0BDF0B52DED048B85B034
:10148000F0EE408AB3EE009A0546684611EE107AF7
:10149000B0EE608A0C46164617F0CAFD78EEC98A8F
:1014A0002368FDEEE88A204618EE902A1B6B11B2E5
:1014B000984738EE498A2368BDEEC88A204618EE60
:1014C000102A5B6B11B29847236820469B6B212141
:1014D000984723682046DB6B212198474FF4007220
:1014E0001146204612F080FE3846FEF7E5FF1FA3A6
:1014F000D3E90023FFF738F81B4B0022FFF75EF912
:10150000FFF7E2FA08EE100AB0EE480A29F0B2F945
:10151000F3EE0E8AF0EE499AE0EE289AB0EE480A11
:1015200029F0E0F9A0EE289A2046F0EE497AFEEE86
:10153000ED7A17EE902AF0EE697AFEEEED7A17EE6C
:10154000901A12F05CFE214602A884F8256017F07C
:101550006FFD02AA69462846FFF7EAFE05B0BDEC1A
:10156000048BF0BDAFF3008000806640182D44541A
:10157000FB2109402DE9F041054605F5805404F2B0
:10158000BC6704F0FDFB05F5B65808F039FE0023F2
:10159000334AC4F8D836C4F8DC3684F8E03604F2AE
:1015A000C4613A602F4AC8F800202F4A0A6004F547
:1015B000D96105F533700A6004F2EC61002284F809
:1015C000CC36C4F8D036C4F8D436C4F8E43684F83F
:1015D000E8360A6004F5DE6105F51C760A6004F25F
:1015E000F4610A6004F5DF610A6085F8F13285F87C
:1015F000753312F009FB05F5547012F005FB304607
:1016000012F002FB98ED007AD7ED007ABDEEC77AB2
:10161000FDEEE77A17EE103A1AB217EE903A284626
:1016200019B2FFF70EFF304612F0EEFAD4F8D836B2
:101630000E4A0A2105F57A7019F0B1FF05F5CA7056
:1016400017F060FCD4F8DC36084A05F575700A21FD
:1016500019F0A5FF05F5A470BDE8F04117F052BCE4
:10166000000020430000F0423333B33F74CB020844
:101670002DE9F0432DED028B044604F5805587B02B
:10168000043017F03FFC08F011FE95F8E036002B0F
:1016900040F08581E14F386800231A460DF11701AB
:1016A0000EF07BF9002800F08E8195F8CC3604F519
:1016B000B65604F51C77002B40F04284384612F0F1
:1016C000A3FA05F2BC6205F2C463D2ED007A93ED91
:1016D000007A77EE877A4FF00009C2ED007A05F5BF
:1016E000D962D2ED007A96ED007A37EE877AB5EEC0
:1016F000C07AF1EE10FA86ED007A40F17B83C6F8ED
:101700000090F1EE677AC2ED007A08F02FFE05F244
:10171000BC6393ED007AB4F9F420B4F9F8301344C3
:1017200007EE903AF8EEE77AB4EEE77AF1EE10FAC7
:101730003ED807EE902AF8EEE77AB4EEE77AF1EEBB
:1017400010FA35DBB4F97A22B4F9F61096ED000AF6
:1017500007EE902A07EE101AF8EEE77AB8EEC77A8D
:1017600077EE807AF4EEC77AF1EE10FA20DBB4F966
:10177000FA300B4407EE903AF8EEE77AB4EEE70A57
:10178000F1EE10FA14D80123029304F1F003CDE92D
:10179000002304F5B65104F5B65204F5B550B4F97A
:1017A0007832083204311C30FFF7D4FC08F0D6FD43
:1017B000B4F97832B4F9201107EE903A05F2BC6220
:1017C000B8EEE77AD2ED007A37EE277A07EE901A74
:1017D000F8EEE77AB4EEE77AF1EE10FA3FDBB4F90F
:1017E00024210A4407EE902AF8EEE77AB4EEE77A6D
:1017F000F1EE10FA33D8B4F97A12B4F9220196ED69
:10180000000A07EE901A07EE100AF8EEE77AB8EE33
:10181000C77A77EE807AF4EEC77AF1EE10FA1EDB23
:10182000B4F92621024407EE902AF8EEE77AB4EEE6
:10183000E70AF1EE10FA12D80022029204F58E7235
:10184000CDE9001204F5B55004F5B65204F5B651D1
:10185000083204311C30FFF77DFC08F07FFD05F2F3
:10186000BC6393ED007AB5EEC07AF1EE10FA40F168
:10187000EF82D5F8DC366A4A0133C5F8DC360A2136
:1018800004F5757019F08BFE04F5A47017F03AFB9F
:1018900008F05CFDD5F8DC360A2B06DD012385F85F
:1018A000E036E06B0221FFF733FC002384F8953229
:1018B000384612F0A9F93C23C5F8D036012202239C
:1018C00085F8CC26C5F8D436B4F97802B4F92031BD
:1018D0009FED541A1B1A0A3B00EE103AB8EEC00AEC
:1018E00005F2BC6888ED000AB4F92631B4F97A1221
:1018F00003EBD37CB4F9223107EE900A03EB6C03BF
:1019000001EBD17CA3EB6C0300EE903AB8EEE77AE2
:1019100007EE901AF8EEE00AF8EEE77A05F5DE63D6
:10192000F6EE006AC6ED000AA7EE260AC3F800909C
:1019300005F5DF63E7EEA60AC3F8009004F55471DD
:101940002046FFF799FD96ED007AD8ED007ABDEEBE
:10195000C77AFDEEE77A17EE103A1AB217EE903A10
:10196000204619B2FFF76DFD96ED007A05F2BC65D1
:10197000BDEEC77AD5ED007A17EE103AFDEEE77AA4
:101980001AB217EE903A204619B2FFF75AFD3846C0
:1019900012F03AF907B0BDEC028BBDE8F08308F015
:1019A00061FC002304F5337084F8F13284F8753358
:1019B00012F02AF904F5547007B0BDEC028BBDE8B3
:1019C000F04312F021B99DF81730092B3FF663AEB2
:1019D000DFE813F00A002E005100A700360049008E
:1019E000C50016013601A101B4F9F6309E1C36B2CD
:1019F000C62EA8BFC626B3423FF44DAE04F1F00890
:101A0000404617F07FFAB4F9F41032464046FFF72B
:101A100043FC404617F076FA3DE600BF7C2F0020DD
:101A200074CB020800000000CDCC4C3E00003443D3
:101A3000B4F9F6309E1E36B2022EB8BF0226DAE79F
:101A4000B4F922319E1C36B2C62EA8BFC626B342B8
:101A50003FF421AE04F58E78404617F053FAB4F9FE
:101A600020113246D2E7B4F922319E1E36B2022E40
:101A7000B8BF0226EBE795F8CC36002B3FF40BAE4F
:101A8000D5F8D466012E7FF406AE05F2EC63D3EDF3
:101A9000007A1FED1B7A77EEC77AB8EE000AB4EE33
:101AA000E70AF1EE10FAD8BFB0EE670A83ED000A3C
:101AB000F0EE000A28F0BAFE5FED247A60EE277A95
:101AC00017EE900AFEF7F8FCD7A3D3E90023FEF740
:101AD00075FEFEF7F9FF05F2F463F6EE006A186092
:101AE000B4F9783207EE903A05F2BC6393ED000A40
:101AF000B4F97A3207EE103A04F5B653F8EEE77A05
:101B0000B8EEC77AD3ED000AA7EEA60A3246E7EE92
:101B1000260A01EE100A04F533712046FFF7ACFCEB
:101B2000B9E595F8CC36002B3FF4B5ADD5F8D466C1
:101B3000012E7FF4B0AD05F2EC6393ED000ADFED0A
:101B4000C07A30EE270AF0EE000AB4EEE00AF1EEB9
:101B500010FAC8BFB0EE600A83ED000AAAE795F854
:101B6000CC36002B3FF497ADD5F8D436022B7FF45A
:101B700092AD05F5DE6393ED000ADFEDB17A30EE4C
:101B8000670AF8EE000AF4EEC00AF1EE10FAC8BFD8
:101B9000B0EE600A83ED000A28F048FEDFEDA97A76
:101BA00060EE277A17EE900AFEF786FC9EA3D3E933
:101BB0000023FEF703FEFEF787FF05F5DF63F6EE71
:101BC000006A1860B4F9783207EE903A05F2BC6307
:101BD00093ED000AB4F97A3207EE103A04F5B653E1
:101BE000F8EEE77AB8EEC77AD3ED000AA7EEA60AB8
:101BF0000122E7EE260A01EE100A04F554718CE783
:101C000095F8CC36002B3FF446ADD5F8D436022BF0
:101C10007FF441AD05F5DE63D3ED007A9FED887A60
:101C200077EE877AB0EE000AF4EEC07AF1EE10FAA1
:101C3000D8BFB0EE670A83ED000AF8EE000AABE702
:101C400095F8CC36002B3FF426ADD5F8D436012BD1
:101C50007FF421AD002385F8CC3605F2EC63D3ED9B
:101C6000008AF1EE007AE8EEE87AB6EE008A17EE26
:101C7000900AFEF721FC41EC100B28F0A3FD51EC7B
:101C8000100BFEF721FF07EE900A05F2C463F4EE95
:101C9000C87A05F5D962F1EE10FA1860C2ED008A33
:101CA0000ED5F5EEC08AF1EE10FA83ED008A2EDB38
:101CB0005FA1D1E90001FEF707FF05F5D9663060A5
:101CC000012384F8953204F51C7011F09DFFB4F9DE
:101CD0007832002284F8F12207EE903A05F2BC63D4
:101CE00093ED000AB4F97A3207EE103A04F5B653D0
:101CF000D3ED000AF8EEE77AB8EEC77A05F2F4639E
:101D0000E7EE080AA7EE880A93ED001A03E74AA156
:101D1000D1E90001CFE795F8CC36002B3FF4BBACFE
:101D2000D5F8D436022B7FF4B6AC002385F8CC3638
:101D300005F5DE6393ED008AF1EE007AE8EE487A6D
:101D4000F6EE008A17EE900AFEF7B6FB41EC100B98
:101D500028F038FD51EC100BFEF7B6FE07EE900AA6
:101D6000F4EEE87A05F2C463B1EE677A05F5D9625C
:101D7000F1EE10FA83ED007A82ED008A0FD5B5EE10
:101D8000C08A4FF03F42F1EE10FA1A602EDB28A114
:101D9000D1E90001FEF798FE05F5D9663060012310
:101DA00084F8953204F51C7011F02EFFB4F97832E6
:101DB000002284F8752307EE903A05F2BC6393ED98
:101DC000000AB4F97A3207EE103A04F5B653D3EDAF
:101DD000000AF8EEE77AB8EEC77A05F5DF63E7EEBA
:101DE000280AA7EEA80A93ED001A06E712A1D1E986
:101DF0000001CFE7B4F97A3206EE903AF8EEE66ADF
:101E000036EE877ADFED106AB4EEE67AF1EE10FA7C
:101E10007FF77DACC3F1F00307EE103AB8EEC77A56
:101E200086ED007A6DE400BF182D4454FB21094073
:101E3000DA4E4FB1DEFBFE3FDA4E4FB1DEFBFEBFA6
:101E4000CDCC4C3E00003443000070430000A04362
:101E5000B4F9783207EE903AF8EEE77A77EE877ABF
:101E60001FED067AF4EEC77AF1EE10FA7FF77CAD3B
:101E7000D5F8D8366C4A0133C5F8D8360A2104F5AE
:101E80007A7019F08CFB04F5CA7017F03BF808F073
:101E90005DFAD5F8D8360A2B05DD012185F8E01664
:101EA000E06BFFF735F9002384F89532384611F0DE
:101EB000ABFE01223C2385F8CC26C5F8D036C5F808
:101EC000D426B4F9F810B4F9F4309FED581A0B4445
:101ED0000A3300EE103AB8EEC00A05F2BC6888ED8D
:101EE000000AB4F9FA30B4F97A1203EBD370B4F9FA
:101EF000F63003EB600301EBD170A3EB600300EE5F
:101F0000903A05F2EC63F8EEE00A07EE901AC6ED9F
:101F1000000AC3F8009005F2F463F8EEE77AC3F81C
:101F20000090B4F9783207EE103AB8EEC77AF6EEC0
:101F3000006AE7EEA60A04F53371A7EE260AFFE46D
:101F4000D5F8D036002B09DD013BC5F8D0362BB9CA
:101F5000012384F89532384611F056FED5F8D42680
:101F600005F2BC63012A93ED000A2DD1B4F9FA30D1
:101F7000B4F97A1203EBD370B4F9F63003EB6003D3
:101F800001EBD170A3EB600300EE903AF8EEE00AAB
:101F900007EE901AC6ED000AB4F9783207EE103A4F
:101FA000F8EEE77AB8EEC77AF6EE006AE7EEA60A30
:101FB00005F2F46304F53371A7EE260A93ED001AD7
:101FC0002046FFF759FACFE4022A7FF4CDACB4F9EA
:101FD0002631B4F97A2203EBD371B4F9223103EB41
:101FE000610302EBD271A3EB610300EE903AF8EECD
:101FF000E00A07EE902AC6ED000AB4F9783207EE3F
:10200000103AF8EEE77AB8EEC77AF6EE006A05F510
:10201000DF63E7EEA60A012204F55471A7EE260A53
:1020200093ED001ACCE700BF74CB0208000000005B
:10203000704704387047C0680368DB6A1847704708
:1020400010B51021044628F0AAFB204610BDA0F1CF
:102050000400F5E700228260024A02601832426002
:10206000C1607047B4DE0208806802F0D7BA7047DA
:102070007047000010B5034B0360044604F07FF97D
:10208000204610BDDCDE020810B50446FFF7F2FF63
:1020900020464FF4CC7128F082FB204610BD000092
:1020A00010B5044604F0E2F9014B2360204610BD50
:1020B000DCDE020804F064B938B501210446C06BC7
:1020C000FFF7D2FF00BBE06B0221FFF7CDFF031E3D
:1020D00018BF01235B0004F5BA750C4A0A21284693
:1020E00019F05DFA0023C4F8285104F1E005A4F8C2
:1020F0008631284612F0E4FC012384F80531284695
:10210000BDE8384016F0FEBE0123E4E774CB0208B8
:10211000704704387047704710B51021044628F006
:102120003EFB204610BDA0F10400F5E700228260CE
:10213000024A026018324260C160704714DF020830
:102140007047000010B5034B0360044604F090FA9A
:10215000204610BD3CDF020810B50446FFF7F2FF31
:10216000204641F2D46128F01AFB204610BD10B57C
:1021700000F58052D2F8D016002907DD0139C2F8E7
:10218000D0160368BDE81040DB6A184715F026FD3D
:10219000BDE8104002F092BB10B5044604F0C0FA4E
:1021A000044B236004F58053B422C3F8D0262046A4
:1021B00010BD00BF3CDF020810B5044604F056FA1B
:1021C000236804F580522046DB6AD2F8D016BDE8B9
:1021D000104018477829F8B5054623DC3C2923DC54
:1021E0000029D4BF0024012405F57977234605F59D
:1021F0007E760E4A0A21384619F0D1F923460B4A59
:102200000A21304619F0CBF905F52770C5F8E472BC
:10221000C5F8306316F076FE05F53A70BDE8F84073
:1022200016F070BE0324DFE70224DDE774CB02085A
:10223000704704387047704710B51021044628F0E5
:10224000AEFA204610BDA0F10400F5E7002282603E
:10225000024A026018324260C160704774DF0208AF
:1022600008B5806802F0D4F915F0B8FCBDE8084064
:1022700002F084BB07F0F6BF10B5034B03600446C1
:1022800004F044FD204610BD9CDF020810B5044652
:10229000FFF7F2FF204641F6140128F080FA2046AD
:1022A00010BD00002DE9F8432DED048BB0EE408AFF
:1022B00092ED000AD1ED007A0D9C9DF83890DFED8B
:1022C000489A20EE000A9846A7EEA70A06460D4651
:1022D000174628F0ADFAB4F90A3007EE903AF8EE56
:1022E000E77AB6EE009A67EE897AF5EEC07AF1EEFB
:1022F00010FA66DDB4F90630DDED0C6A07EE103A2F
:10230000F8EEE66AB8EEC77AA6EE898A37EE277A43
:1023100038EE478A88EE277AFFEE007AB4EEE77A45
:10232000F1EE10FA08D4F7EE007AB4EEE77AF1EEA7
:1023300010FAD8BFF0EE477ADFED2A8A60EE288ADD
:1023400020EE008A68EEA78AB0EE480AA8EEE80AF6
:10235000C7ED008A28F06CFAB4EEC90AF1EE10FA63
:102360001BD5F5EE007A38EE670AF5EEC08AF1EE7D
:1023700010FAB5EEC00AACBFB7EE008ABFEE008A15
:10238000F1EE10FAD8BFB0EE690A28F051FA20EE4B
:10239000080A87ED000AB6EE000AB9F1000F13D063
:1023A00085ED000AB4F90430B4F90820134407EEAF
:1023B000903AF8EEE77AC6ED007ABDEC048BBDE802
:1023C000F883F0EE697AB7E7B1EE400A85ED000ACE
:1023D000B4F90420A2EB080207EE902AE9E700BF57
:1023E000000000009A99593F10B5B1F900408A8861
:1023F000B0F90030224412B2934215DA82881344B5
:102400001BB29C4210DAB1F90230C988B0F902203F
:10241000194409B28A4207DAC1880A4412B29342C7
:10242000ACBF0020012010BD0020FCE710B5044621
:1024300004F086FC194B236004F5805303F2D47238
:102440001749116003F5FB621649116003F2DC7154
:10245000154A0A6004F5BF5120460A60002203F6BF
:10246000040183F8E427C3F8E827C3F8EC27C3F88E
:10247000F027C3F8F42783F8F827C3F8FC2783F87C
:10248000002800220A6003F608010A6003F60C0126
:1024900003F501630A601A6010BD00BF9CDF0208EB
:1024A000000020430000F042CDCCCC3F73B500F5D6
:1024B0001C760D4604463146684616F0B9FD69465D
:1024C0002846FFF791FF10B1304616F01BFD04F5CA
:1024D00029763146684616F0ABFD69462846FFF777
:1024E00083FF10B1304616F00DFD04F54D763146F0
:1024F000684616F09DFD69462846FFF775FF10B146
:10250000304616F0FFFC04F558763146684616F062
:102510008FFD69462846FFF767FF10B1304616F079
:10252000F1FC04F563763146684616F081FD694694
:102530002846FFF759FF10B1304616F0E3FC04F5CA
:102540006E742146684616F073FD69462846FFF70B
:102550004BFF28B1204602B0BDE8704016F0D2BC57
:1025600002B070BD2DE9FF41B2F904E004460868ED
:1025700049686B46BEF1000F03C319DDB2F906705E
:10258000002F15DDBDF90480B2F90010B2F9023058
:10259000B8F1000F04DDBDF906C0BCF1000F45DC49
:1025A000ADF80010ADF80230ADF804E0ADF80670FB
:1025B000334B002202A96846CDE90223FFF714FF3E
:1025C00088B3BDF90020BDF80430BDF9021022EA3D
:1025D000E2751A4493B212B2B2F5A07FA8BF4FF4CD
:1025E000A0735B1B1AB2BDF80630ADF8042021EAD7
:1025F000E17019448BB209B2F029A8BFF0231B1A6D
:102600001BB2002AADF80630ADF80050ADF802005C
:1026100009DD002B07DD6946201D16F0BFFC694669
:102620002046FFF743FF04B0BDE8F081BDF900008C
:10263000BDF9022081420E46A8BF064693421D46C0
:102640004044A8BF1546714462443B4400B209B2FD
:1026500012B21BB2ADF80060ADF802508842ACBFB8
:10266000C6EB0006C6EB01069A42ACBFC5EB0205FD
:10267000C5EB0305ADF80460ADF8065098E700BF60
:102680004001F000F0B500F5367585B004460E4601
:1026900017462946684616F0CBFC3A46314628468E
:1026A000FEF7FAFD294602A816F0C2FC02AA694606
:1026B0002046FFF757FF05B0F0BD00000000000006
:1026C000F0B52DED048B85B0F0EE408AB3EE009AA4
:1026D0000546684611EE107AB0EE608A0C46164642
:1026E00016F0A6FC78EEC98A2368FDEEE88A20463B
:1026F00018EE902A1B6B11B2984738EE498A23686E
:10270000BDEEC88A204618EE102A5B6B11B29847BE
:10271000236820469B6B2121984723682046DB6B6A
:10272000212198474FF400721146204611F05CFDBC
:102730003846FDF7C1FE1FA3D3E90023FDF714FFC0
:102740001B4B0022FEF73AF8FEF7BEF908EE100A1E
:10275000B0EE480A28F08EF8F3EE0E8AF0EE499AB1
:10276000E0EE289AB0EE480A28F0BCF8A0EE289ACD
:102770002046F0EE497AFEEEED7A17EE902AF0EE62
:10278000697AFEEEED7A17EE901A11F038FD2146C7
:1027900002A884F8256016F04BFC02AA6946284678
:1027A000FFF7E0FE05B0BDEC048BF0BDAFF3008099
:1027B00000806640182D4454FB21094038B52DEDAA
:1027C000028BB0F9E03200F5805507EE903A05F241
:1027D000D47393ED008AB0F9E232F8EEE77AB6EE00
:1027E000007AA7EE878A00F57971002207EE903A09
:1027F00005F5FB63D3ED008AF8EEE77A05F60C03E6
:10280000E7EE878A044605F5016593ED001AF0EEC0
:10281000680AB0EE480AFFF753FFF0EE680AB0EE20
:10282000480ABDEC028B95ED001A04F58D61204637
:102830000022BDE83840FFF743BF38B504460D46D7
:10284000FFF7BCFFB4F9E03207EE903A04F580538D
:1028500003F2D472F8EEE77A92ED000AB4F9E222BC
:10286000B6EE007AA7EE870A012D07EE902A03F54F
:10287000FB62F8EEE77AD2ED000AE7EE870A0BD1A9
:1028800003F60C0393ED001A2A4604F579712046ED
:10289000BDE83840FFF714BF022D07D103F50163EF
:1028A00093ED001A012204F58D61F0E738BD10B5F3
:1028B0000446403016F026FB04F16C0016F022FBB3
:1028C00004F1980016F01EFB04F1C40016F01AFB88
:1028D00004F51C7016F016FB04F5297016F012FBB7
:1028E00004F54D7016F00EFB04F5587016F00AFB57
:1028F00004F5637016F006FB04F56E70BDE8104039
:1029000016F000BB2DE9F041054605F5805404F2B0
:10291000D47704F0F9F904F5FB6807F071FC0023A3
:102920002F4AC4F8F037C4F8F43784F8F83704F2C3
:10293000DC713A602B4AC8F800202B4A0A6005F582
:10294000BF5128460A6004F6040284F8E437C4F84C
:10295000E837C4F8EC37C4F8FC3784F800380023B3
:10296000136004F6080205F53676136004F60C02CF
:10297000136004F501621360FFF720FF304611F089
:1029800043F998ED007AD7ED007ABDEEC77AFDEEF7
:10299000E77A17EE103A1AB217EE903A284619B2B3
:1029A000FFF770FE304611F02FF9D4F8F0370F4AD8
:1029B0000A2105F5A06018F0F2FD05F5CA7016F0C1
:1029C000A1FAD4F8F437094A05F2EC400A2118F0CC
:1029D000E6FD05F5A470BDE8F04116F093BA00BF1E
:1029E000000020430000F042CDCCCC3F74CB020865
:1029F0002DE9F0432DED028B044687B0043004F539
:102A0000805516F07FFA2046FFF751FF07F04EFC85
:102A100095F8F837002B40F03182C34F3868002317
:102A20001A460DF117010CF0B8FF002800F03082B3
:102A300095F8E49704F53677B9F1000F40F07A8500
:102A4000384611F0E1F805F2D47205F2DC73D2EDEC
:102A5000007A93ED007A77EE877A04F5BF56C2EDDF
:102A6000007A05F5FB62D6ED007A92ED007A37EE3A
:102A7000877A4FF00008B5EEC07AF1EE10FA82EDD9
:102A8000007A40F17083C2F80080F1EE677AC6EDFB
:102A9000007A07F06BFC05F2D47393ED007AB4F979
:102AA000F420B4F9F830134407EE903AF8EEE77AE0
:102AB000B4EEE77AF1EE10FA3ED807EE902AF8EE7F
:102AC000E77AB4EEE77AF1EE10FA35DBB4F9E222F8
:102AD000B4F9F61007EE902A05F5FB6393ED000AB2
:102AE000F8EEE77A07EE101A77EE807AB8EEC77A3A
:102AF000F4EEC77AF1EE10FA1EDBB4F9FA300B44AB
:102B000007EE903AF8EEE77AB4EEE70AF1EE10FA43
:102B100012D80123029304F1F003CDE9002304F558
:102B2000BE5104F5BE50B4F9E03232461C311430C7
:102B3000FFF7B8FB07F012FCB4F9E032B4F920114A
:102B400007EE903A05F2D472B8EEE77AD2ED007A49
:102B500037EE277A07EE901AF8EEE77AB4EEE77AC6
:102B6000F1EE10FA3FDBB4F924210A4407EE902A73
:102B7000F8EEE77AB4EEE77AF1EE10FA33D8B4F96A
:102B8000E212B4F9220107EE901A05F5FB6292ED0C
:102B9000000AF8EEE77A07EE100A77EE807AB8EED0
:102BA000C77AF4EEC77AF1EE10FA1CDBB4F92621ED
:102BB000024407EE902AF8EEE77AB4EEE70AF1EE67
:102BC00010FA10D80022029204F58E72CDE900129C
:102BD00004F5BE5004F5BE5132461C311430FFF7E7
:102BE00061FB07F0BBFB05F2D473D3ED006AB4F9C7
:102BF000E032B4F9382307EE903A07EE102AF8EEE7
:102C0000E77AB8EEC77A77EEA67AF4EEC77AF1EEF5
:102C100010FAC0F2D782B4F93C33134407EE103AED
:102C2000B8EEC77AF4EEC76AF1EE10FA00F2CA8283
:102C300005F5FB6393ED006AB4F9E232B4F93A2387
:102C400007EE103A05EE902AB8EEC77AF8EEE55A8C
:102C500037EE067AB4EEE57AF1EE10FAC0F2B282FF
:102C6000B4F93E33134407EE103AB8EEC77AB4EE27
:102C7000C76AF1EE10FA00F2A58205F2DC7393ED5B
:102C8000007AB5EEC07AF1EE10FA40F39D8202268A
:102C90004FF00109B4F9642307EE102AB8EEC77AA1
:102CA000F4EEC77AF1EE10FA40DBB4F9683313445E
:102CB00007EE103AB8EEC77AF4EEC76AF1EE10FAF2
:102CC00034D805F5FB6393ED006AB4F9E232B4F948
:102CD000662307EE103A05EE902AB8EEC77AF8EEB2
:102CE000E55A37EE067AB4EEE57AF1EE10FA1DDB1E
:102CF000B4F96A33134407EE103AB8EEC77AB4EE6B
:102D0000C76AF1EE10FA11D805F2DC7393ED007A80
:102D1000B5EEC07AF1EE10FAD3BF012602264FF0CD
:102D20000109B14602E000BF7C2F0020B4F99023D6
:102D300007EE102AB8EEC77AF4EEC77AF1EE10FA71
:102D40003CDBB4F99433134407EE103AB8EEC77A7B
:102D5000F4EEC76AF1EE10FA30D805F5FB6393ED97
:102D6000006AB4F9E232B4F9922307EE103A05EEA4
:102D7000902AB8EEC77AF8EEE55A37EE067AB4EE46
:102D8000E57AF1EE10FA19DBB4F99633134407EE45
:102D9000103AB8EEC77AB4EEC76AF1EE10FA0DD861
:102DA00005F2DC7393ED007AB5EEC07AF1EE10FA1D
:102DB000D3BF012602264FF00109B146B4F9BC2366
:102DC00007EE102AB8EEC77AF4EEC77AF1EE10FAE1
:102DD0002FDBB4F9C033134407EE903AF8EEE77AEC
:102DE000F4EEE76AF1EE10FA23D805F5FB6393EDF4
:102DF000007AB4F9E232B4F9BE2307EE903A06EE57
:102E0000102AF8EEE77AB8EEC66A77EE877AF4EE23
:102E1000C67AF1EE10FA0CDBB4F9C233134407EEB4
:102E2000903AF8EEE77AB4EEE77AF1EE10FA40F273
:102E3000CF81B9F1000F00F05882022E40F0D3810B
:102E4000D5F8F437DA4A0133C5F8F4370A2104F229
:102E5000EC4018F0A4FB04F5A47016F053F807F04A
:102E600075FAD5F8F4370A2B06DD012385F8F83713
:102E7000E06B0221FFF7F4F90226CFE107F0F2F947
:102E8000204607B0BDEC028BBDE8F043FFF796BCCF
:102E90009DF81730092B3FF6C1ADDFE813F00A00AB
:102EA000230046007F002B003E009D00BF00DF0096
:102EB0002C01B4F9F6309E1C36B2C62EA8BFC62629
:102EC0009E423FF4ABAD04F1F008404616F01AF80C
:102ED000B4F9F41032464046FEF7DEF9404616F0EB
:102EE00011F89BE5B4F9F6309E1E36B2022EB8BF3B
:102EF0000226E5E7B4F922319E1C36B2C62EA8BFE1
:102F0000C6269E423FF48AAD04F58E78404615F001
:102F1000F9FFB4F920113246DDE7B4F922319E1EE3
:102F200036B2022EB8BF0226EBE795F8E437002B45
:102F30003FF474ADD5F8EC67012E7FF46FAD05F664
:102F40000403D3ED007A9FED9B7A77EEC77AB8EE53
:102F5000000AB4EEE70AF1EE10FAD8BFB0EE670A45
:102F600083ED000AF0EE000A27F060FC05F60C087D
:102F7000DFED917A60EE277A17EE900AFDF79CFA62
:102F800085A3D3E90023FDF719FCFDF79DFD31462C
:102F9000C8F800002046FFF750FC3FE595F8E437FD
:102FA000002B3FF43BADD5F8EC67012E7FF436AD36
:102FB00005F6040393ED000ADFED7E7A30EE270A72
:102FC000F0EE000AB4EEE00AF1EE10FAC8BFB0EE7F
:102FD000600A83ED000AC7E795F8E437002B3FF459
:102FE0001DADD5F8EC67022E7FF418AD05F6080389
:102FF00093ED000ADFED6F7A30EE670AF8EE000A13
:10300000F4EEC00AF1EE10FAC8BFB0EE600A83ED2C
:10301000000A27F00BFC05F50168A9E795F8E437ED
:10302000002B3FF4FBACD5F8EC67022E7FF4F6AC36
:1030300005F60803D3ED007A9FED5E7A77EE877A86
:10304000B0EE000AF4EEC07AF1EE10FAD8BFB0EE9E
:10305000670A83ED000AF8EE000ADAE795F8E4372C
:10306000002B3FF4DBACD5F8EC37012B7FF4D6AC6A
:10307000002385F8E43705F6040393ED008ADFEDBD
:103080004F7AE8EE487A04F5BF5617EE900AFDF73E
:1030900013FA41EC100B27F095FB51EC100BFDF7E8
:1030A00013FD07EE900AB6EE007A05F2DC73F4EE3B
:1030B000C77AF1EE10FA186086ED008A10D583ED1C
:1030C000007AB5EEC08AF1EE10FA03DB34A1D1E943
:1030D000000102E034A1D1E90001FDF7F5FC306008
:1030E000012304F5367084F8FD3210F08DFD204682
:1030F000FFF764FB92E495F8E437002B3FF48EACC5
:10310000D5F8EC37022B7FF489AC002385F8E4373F
:1031100005F6080393ED008ADFED287AE8EE487A99
:1031200004F5BF5617EE900AFDF7C6F941EC100BF7
:1031300027F048FB51EC100BFDF7C6FC07EE900A98
:1031400005F2DC73B1EE677A83ED007AB6EE007AB1
:10315000F4EEC77AF1EE10FA86ED008AC0D54FF092
:103160003F421A60ADE7B4F9E23206EE903AF8EE6B
:10317000E66A36EE877ADFED126AB4EEE67AF1EEB1
:1031800010FA7FF788ACC3F1F00307EE103AB8EEFF
:10319000C77A82ED007A78E4182D4454FB21094067
:1031A000836DE7A2BFF50140836DE7A2BFF501C0C3
:1031B00074CB0208CDCC4C3E00003443AE47A9404E
:1031C00000007043002665E54FF001094E4661E5B9
:1031D00005F2DC73D3ED007AF5EEC07AF1EE10FA69
:1031E0003FF72EAE0126D5F8F037E74A0133C5F890
:1031F000F0370A2104F5A06018F0D1F904F5CA707F
:1032000015F080FE07F0A2F8D5F8F0370A2B05DD9F
:10321000012185F8F817E06BFFF722F8002384F806
:10322000FD32384610F0F0FC012385F8E4373C23EA
:10323000C5F8E837C5F8EC67B4F9E222012E02EBD5
:10324000D2724FEA620205F2D47005F5FB6127D114
:10325000B4F9F430B4F9F8C063440A3307EE903A95
:10326000F8EEE77AC0ED007AB4F9FA3003EBD370E8
:10327000B4F9F63003EB60039B1A07EE903A05F6BB
:103280000403F8EEE77AC1ED007AC3F8008005F692
:103290000C033146C3F800802046FFF7CEFA3EE12A
:1032A000B4F92031B4F9E0629B1B0A3B07EE903A77
:1032B000F8EEE77AC0ED007AB4F9263103EBD3706B
:1032C000B4F9223103EB60039B1A07EE903A05F63E
:1032D0000803F8EEE77AC1ED007AC3F8008005F53F
:1032E00001630221C3F80080D6E7DFEDA87AF4EE8F
:1032F000E76AF1EE10FA40F3918005F5FB6393ED78
:10330000007ADFEDA36AB4EEE67AF1EE10FA77DD2B
:10331000DFEDA06AB4EEE67AF1EE10FA70D5D5F8DA
:10332000F037994A0133C5F8F0370A2104F5A06057
:1033300018F035F904F5CA7015F0E4FD07F006F849
:10334000D5F8F0370A2B05DD012185F8F817E06B79
:10335000FEF786FF002384F8FD32384610F054FC57
:1033600001213C2385F8E417C5F8E837C5F8EC17C8
:10337000B4F9F820B4F9F43013440A3307EE903A64
:10338000F8EEE77A05F2D476C6ED007AB4F9FA30B1
:1033900003EBD372B4F9F63003EB6203B4F9E22223
:1033A00002EBD272A3EB620307EE903A05F6040338
:1033B000F8EEE77A05F5FB69C9ED007A05F60C052C
:1033C000C3F80080C5F800802046FFF736FA99ED73
:1033D000007AD6ED007ABDEEC77A17EE103AFDEE10
:1033E000E77A1AB217EE903A204619B2FFF74AF977
:1033F000384610F009FC07B0BDEC028BBDE8F08345
:1034000005F2D473C3ED007A05F2DC73D3ED007AD4
:10341000F1EE677AC3ED007A06F0A8FF05F2D473E7
:1034200093ED007AF7EE007AB4EEE77AF1EE10FA57
:1034300075D505F5FB6393ED007ADFED556AB4EEC3
:10344000E67AF1EE10FA5CDDDFED526AB4EEE67A70
:10345000F1EE10FA55D5D5F8F4374B4A0133C5F8DB
:10346000F4370A2104F2EC4018F099F804F5A4703E
:1034700015F048FD06F06AFFD5F8F4370A2B06DD93
:10348000012385F8F837E06B0221FEF7E9FE0023FF
:1034900084F8FD32384610F0B7FB012385F8E43795
:1034A00002213C23C5F8E837C5F8EC17B4F9E0224F
:1034B000B4F920319B1A0A3B07EE903AF8EEE77A0E
:1034C00005F2D476C6ED007AB4F9263103EBD37257
:1034D000B4F9223103EB6203B4F9E22202EBD272B7
:1034E000A3EB620307EE903A05F60803F8EEE77ADD
:1034F00005F5FB69C9ED007A05F50165C3F80080A3
:1035000060E705F2D473C3ED007A05F2DC73D3ED06
:10351000007AF1EE677AC3ED007A06F027FF05F531
:10352000FB6393ED007A05F2D475BDEEC77AD5ED55
:10353000007A52E7D5F8E837002B09DD013BC5F8E2
:10354000E8372BB9012384F8FD32384610F05CFBD4
:10355000D5F8EC1701291FD1B4F9FA3003EBD37277
:10356000B4F9F63005F5FB6003EB6203B4F9E2222F
:1035700002EBD272A3EB620307EE903AF8EEE77A21
:10358000C0ED007A88E600BF74CB020800809F433C
:1035900000007042000035430229C0D1B4F9263141
:1035A00005F5FB6003EBD372B4F92231DCE700BF11
:1035B000704704387047704710B51021044627F053
:1035C000EEF8204610BDA0F10400F5E7002282606D
:1035D000024A026018324260C1607047D0DF0208C0
:1035E0007047000010B5034B0360044603F03AFF38
:1035F000204610BDF8DF020810B50446FFF7F2FFC1
:10360000204641F2246127F0CAF8204610BD10B5CB
:1036100000F58052D2F82016002907DD0139C2F8E2
:1036200020160368BDE81040DB6A184714F0D6FA8C
:10363000BDE8104001F062B910B5044603F03EFF4A
:10364000044B236004F58053B422C3F8202620469F
:1036500010BD00BFF8DF020810B5044603F000FFFC
:10366000236804F580522046DB6AD2F82016BDE8B4
:10367000104018477829F8B5054623DC3C2923DC9F
:103680000029D4BF0024012405F54D77234605F514
:1036900052760E4A0A21384617F081FF23460B4A1C
:1036A0000A21304617F07BFF05F50D70C5F87C72D6
:1036B000C5F8306315F026FC05F53A70BDE8F84012
:1036C00015F020BC0324DFE70224DDE774CB0208F9
:1036D000704704387047704710B51021044627F032
:1036E0005EF8204610BDA0F10400F5E7806800F008
:1036F000A3BF000000228260024A026018324260CA
:10370000C160704730E0020808B5806800F080FFB3
:1037100014F064FABDE8084001F030B906F0A2BD2B
:1037200010B5034B0360044604F066F9204610BD53
:1037300058E0020810B50446FFF7F2FF204641F2B8
:10374000647127F02CF8204610BD00002DE9F843E5
:103750002DED048BB0EE408A92ED000AD1ED007A97
:103760000D9C9DF83890DFED489A20EE000A9846AF
:10377000A7EEA70A06460D46174627F059F8B4F9F2
:103780000A3007EE903AF8EEE77AB6EE009A67EE66
:10379000897AF5EEC07AF1EE10FA66DDB4F90630FA
:1037A000DDED0C6A07EE103AF8EEE66AB8EEC77A7D
:1037B000A6EE898A37EE277A38EE478A88EE277A8E
:1037C000FFEE007AB4EEE77AF1EE10FA08D4F7EEE5
:1037D000007AB4EEE77AF1EE10FAD8BFF0EE477A4D
:1037E000DFED2A8A60EE288A20EE008A68EEA78A3A
:1037F000B0EE480AA8EEE80AC7ED008A27F018F8EC
:10380000B4EEC90AF1EE10FA1BD5F5EE007A38EEE7
:10381000670AF5EEC08AF1EE10FAB5EEC00AACBF49
:10382000B7EE008ABFEE008AF1EE10FAD8BFB0EE14
:10383000690A26F0FDFF20EE080A87ED000AB6EEC1
:10384000000AB9F1000F13D085ED000AB4F9043075
:10385000B4F90820134407EE903AF8EEE77AC6ED83
:10386000007ABDEC048BBDE8F883F0EE697AB7E727
:10387000B1EE400A85ED000AB4F90420A2EB08027B
:1038800007EE902AE9E700BF000000009A99593F2F
:1038900010B5044604F0CAF8194B236004F58053B0
:1038A00003F224721749116003F5E56216491160AD
:1038B00003F22C71154A0A6003F5E66120460A609E
:1038C000002203F2547183F83427C3F83827C3F871
:1038D0003C27C3F84027C3F8442783F84827C3F898
:1038E0004C2783F8502700220A6003F5EB6103F2AE
:1038F0005C730A601A6004F5BB531A6010BD00BF08
:1039000058E00208000020430000F0423333B33F88
:1039100073B500F529760D4604463146684615F024
:1039200087FB69462846FEF75FFD10B1304615F06B
:10393000E9FA04F51C742146684615F079FB6946DE
:103940002846FEF751FD28B1204602B0BDE8704080
:1039500015F0D8BA02B070BD2DE9FF41B2F904E00C
:103960000446086849686B46BEF1000F03C319DDC1
:10397000B2F90670002F15DDBDF90480B2F9001010
:10398000B2F90230B8F1000F04DDBDF906C0BCF198
:10399000000F45DCADF80010ADF80230ADF804E0E2
:1039A000ADF80670334B002202A96846CDE9022328
:1039B000FEF71AFD88B3BDF90020BDF80430BDF94B
:1039C000021022EAE2751A4493B212B2B2F5A07F55
:1039D000A8BF4FF4A0735B1B1AB2BDF80630ADF858
:1039E000042021EAE17019448BB209B2F029A8BF82
:1039F000F0231B1A1BB2002AADF80630ADF80050B8
:103A0000ADF8020009DD002B07DD6946201D15F029
:103A1000C5FA69462046FFF77BFF04B0BDE8F08198
:103A2000BDF90000BDF9022081420E46A8BF06463E
:103A300093421D464044A8BF1546714462443B442E
:103A400000B209B212B21BB2ADF80060ADF802507C
:103A50008842ACBFC6EB0006C6EB01069A42ACBF7B
:103A6000C5EB0205C5EB0305ADF80460ADF80650E3
:103A700098E700BF4001F000F0B500F5367585B05D
:103A800004460E4617462946684615F0D1FA3A46CE
:103A900031462846FDF700FC294602A815F0C8FA71
:103AA00002AA69462046FFF757FF05B0F0BD0000A7
:103AB000F0B52DED048B85B0F0EE408AB3EE009AA0
:103AC0000546684611EE107AB0EE608A0C4616463E
:103AD00015F0AEFA78EEC98A2368FDEEE88A204632
:103AE00018EE902A1B6B11B2984738EE498A23686A
:103AF000BDEEC88A204618EE102A5B6B11B29847BB
:103B0000236820469B6B2121984723682046DB6B66
:103B1000212198474FF400721146204610F064FBB3
:103B20003846FCF7C9FC1FA3D3E90023FCF71CFDB2
:103B30001B4B0022FCF742FEFCF7C6FF08EE100A02
:103B4000B0EE480A26F096FEF3EE0E8AF0EE499AA1
:103B5000E0EE289AB0EE480A26F0C4FEA0EE289ABD
:103B60002046F0EE497AFEEEED7A17EE902AF0EE5E
:103B7000697AFEEEED7A17EE901A10F040FB2146BE
:103B800002A884F8256015F053FA02AA694628466F
:103B9000FFF7E2FE05B0BDEC048BF0BDAFF3008093
:103BA00000806640182D4454FB21094010B52DEDCE
:103BB000028BB0F9E03207EE903A00F5805303F241
:103BC000247292ED008AB0F9E222F8EEE77AB6EEBE
:103BD000007AA7EE878A00F54D71044607EE902A19
:103BE00003F5E562D2ED008AF8EEE77A03F25C7342
:103BF000E7EE878A002293ED001AF0EE680AB0EE35
:103C0000480AFFF755FFF0EE680AB0EE480ABDEC2F
:103C1000028B04F5BB5304F56E71204693ED001A38
:103C2000BDE810400022FFF743BF38B504460D46FB
:103C3000FFF7BCFFB4F9E03207EE903A04F5805389
:103C400003F22472F8EEE77A92ED000AB4F9E22268
:103C5000B6EE007AA7EE870A012D07EE902A03F54B
:103C6000E562F8EEE77AD2ED000AE7EE870A0BD1BB
:103C700003F25C7393ED001A2A4604F54D71204659
:103C8000BDE83840FFF714BF022D07D104F5BB5340
:103C900093ED001A012204F56E71F0E738BD10B5FE
:103CA0000446403015F02EF904F16C0015F02AF9A5
:103CB00004F1980015F026F904F1C40015F022F97A
:103CC00004F5297015F01EF904F51C70BDE81040CC
:103CD00015F018B92DE9F041054605F5805404F2B8
:103CE000247703F087FE04F5E56806F089FA0023DF
:103CF0002F4AC4F84037C4F8443784F8483704F2F0
:103D00002C713A602B4AC8F800202B4A0A6004F54F
:103D1000E66128460A6004F2547284F83437C4F825
:103D20003837C4F83C37C4F84C3784F85037002390
:103D3000136004F5EB6205F53676136004F25C72ED
:103D4000136005F5BB521360FFF730FF30460FF0EC
:103D50005BFF98ED007AD7ED007ABDEEC77AFDEEF5
:103D6000E77A17EE103A1AB217EE903A284619B2CF
:103D7000FFF782FE30460FF047FFD4F840370F4A76
:103D80000A2105F58A6017F00AFC05F5CA7015F0DE
:103D9000B9F8D4F84437094A05F23C400A2117F033
:103DA000FEFB05F5A470BDE8F04115F0ABB800BF0F
:103DB000000020430000F0423333B33F74CB0208CD
:103DC0002DE9F0432DED028B054687B0043005F553
:103DD000805415F097F82846FFF761FF06F066FA61
:103DE00094F84837002B40F07A81DB4F3868002385
:103DF0001A460DF117010BF0D0FD002800F0798173
:103E000094F8343705F53676002B40F0A38330461E
:103E10000FF0FAFE04F2247204F22C73D2ED007A51
:103E200093ED007A77EE877A04F5E661C2ED007AC9
:103E300004F5E562D1ED007A92ED007A37EE877AEB
:103E40004FF00008B5EEC07AF1EE10FA82ED007A7C
:103E500040F1CB82C2F80080F1EE677AC1ED007AC2
:103E600006F084FA04F2247393ED007AB5F9F42095
:103E7000B5F9F830134407EE903AF8EEE77AB4EE6D
:103E8000E77AF1EE10FA40D807EE902AF8EEE77ADA
:103E9000B4EEE77AF1EE10FA37DBB5F9E222B5F9C4
:103EA000F61007EE902A04F5E56393ED000AF8EEAC
:103EB000E77A07EE101A77EE807AB8EEC77AF4EE5A
:103EC000C77AF1EE10FA20DBB5F9FA300B4407EEB1
:103ED000903AF8EEE77AF4EEC07AF1EE10FA14DBDD
:103EE0000123029305F1F003CDE9002305F5B95153
:103EF00005F5B95205F5B950B5F9E03210320C317B
:103F00000430FFF723FC06F029FAB5F9E032B5F9E1
:103F1000201107EE903A04F22472B8EEE77AD2ED5F
:103F2000007A37EE277A07EE901AF8EEE77AB4EEC9
:103F3000E77AF1EE10FA41DBB5F924210A4407EEE5
:103F4000902AF8EEE77AB4EEE77AF1EE10FA35D877
:103F5000B5F9E212B5F9220107EE901A04F5E5620F
:103F600092ED000AF8EEE77A07EE100A77EE807A13
:103F7000B8EEC77AF4EEC77AF1EE10FA1EDBB5F9A7
:103F80002621024407EE902AF8EEE77AF4EEC07A92
:103F9000F1EE10FA12DB0022029205F58E72CDE9E5
:103FA000001205F5B95005F5B95205F5B9511032B1
:103FB0000C310430FFF7CAFB06F0D0F904F2247389
:103FC000DFED667A93ED007AB4EEE77AF1EE10FA5F
:103FD00040F3328204F5E56393ED007ADFED606A29
:103FE000B4EEE67AF1EE10FA40F31882DFED5D6A86
:103FF000B4EEE67AF1EE10FA40F11082D4F84037D0
:10400000594A0133C4F840370A2105F58A6017F090
:10401000C6FA05F5CA7014F075FF06F097F9D4F8E2
:1040200040370A2B05DD012184F84817E86BFFF7BC
:104030006BFB002385F8FD3230460FF0E5FD0121D2
:104040003C2384F83417C4F83837C4F83C17B5F962
:10405000F820B5F9F43013440A3307EE903AF8EE3D
:10406000E77A04F22477C7ED007AB5F9FA3003EB6A
:10407000D372B5F9F63003EB6203B5F9E22202EB35
:10408000D272A3EB620307EE903A04F5E56904F2FD
:104090005473F8EEE77A04F25C74C9ED007AC3F861
:1040A0000080C4F800802846FFF7BFFD99ED007A34
:1040B000D7ED007ABDEEC77A17EE103AFDEEE77A3B
:1040C0001AB217EE903A284619B2FFF7D5FC3046DF
:1040D0000FF09AFD07B0BDEC028BBDE8F08306F04F
:1040E000C1F8284607B0BDEC028BBDE8F043FFF7EE
:1040F0005DBD9DF81730092B3FF678AEDFE813F071
:104100000A00230055008E003A004D00AC00CE009E
:10411000EE003D01B5F9F6309E1C36B2C62EA8BFA2
:10412000C626B3423FF462AE05F1F008404614F0F3
:10413000E9FEB5F9F41032464046FDF7ADF84046C9
:1041400014F0E0FE52E6B5F9F6309E1E36B2022EAD
:10415000B8BF02269E42E5E77C2F002000809F43E7
:10416000000070420000354374CB0208CDCC4C3EB9
:1041700000003443B5F922319E1C36B2C62EA8BFCA
:10418000C6269E423FF432AE05F58E78404614F0C6
:10419000B9FEB5F920113246CEE7B5F922319E1E9F
:1041A00036B2022EB8BF0226EBE794F83437002B64
:1041B0003FF41CAED4F83C67012E7FF417AE04F236
:1041C0005473D3ED007A1FED177A77EEC77AB8EE05
:1041D000000AB4EEE70AF1EE10FAD8BFB0EE670AB3
:1041E00083ED000AF0EE000A26F020FB04F25C7872
:1041F0005FED217A60EE277A17EE900AFCF75CF902
:10420000F4A3D3E90023FCF7D9FAFCF75DFC3146AF
:10421000C8F800002846FFF708FDE7E594F83437B2
:10422000002B3FF4E3ADD4F83C67012E7FF4DEAD04
:1042300004F2547393ED000ADFEDE17A30EE270AC1
:10424000F0EE000AB4EEE00AF1EE10FAC8BFB0EEEC
:10425000600A83ED000AC7E794F83437002B3FF477
:10426000C5ADD4F83C67022E7FF4C0AD04F5EB6316
:1042700093ED000ADFEDD27A30EE670AF8EE000A1D
:10428000F4EEC00AF1EE10FAC8BFB0EE600A83ED9A
:10429000000A26F0CBFA05F5BB58A9E794F83437A5
:1042A000002B3FF4A3ADD4F83C67022E7FF49EAD03
:1042B00004F5EB63D3ED007A9FEDC17A77EE877A50
:1042C000B0EE000AF4EEC07AF1EE10FAD8BFB0EE0C
:1042D000670A83ED000AF8EE000ADAE794F834374B
:1042E000002B3FF483ADD4F83C37012B7FF47EAD37
:1042F000002384F8343704F2547393ED008AF1EE0E
:10430000007AE8EE487A17EE900AFCF7D5F841EC0F
:10431000100B26F057FA51EC100BFCF7D5FB07EE0B
:10432000900AB6EE007A04F22C73F4EEC77A04F524
:10433000E662F1EE10FA186082ED008A12D583ED84
:10434000007AB5EEC08AF1EE10FA03DB98A1D1E94C
:10435000000102E098A1D1E90001FCF7B5FB04F5EA
:10436000E6663060012305F5367085F8FD320FF002
:104370004BFC2846FFF71AFC38E594F83437002B3D
:104380003FF434ADD4F83C37022B7FF42FAD00233B
:1043900084F8343704F5EB6393ED008AF1EE007A8C
:1043A000E8EE487A17EE900AFCF786F841EC100B1D
:1043B00026F008FA51EC100BFCF786FB07EE900A8A
:1043C00004F22C73B1EE677A83ED007AB6EE007AD0
:1043D000F4EEC77A04F5E662F1EE10FA82ED008A97
:1043E000C0D54FF03F421A60ABE7B5F9E23206EEB6
:1043F000903AF8EEE66A36EE877ADFED726AB4EE4E
:10440000E67AF1EE10FA7FF72DADC3F1F00307EE77
:10441000103AB8EEC77A82ED007A1DE504F22473F3
:10442000C3ED007A04F22C73D3ED007AF1EE677AD3
:10443000C3ED007A05F09AFF04F2247393ED007A3D
:10444000F7EE007AB4EEE77AF1EE10FA77D504F5DC
:10445000E56393ED007ADFED5C6AB4EEE67AF1EEA7
:1044600010FA5EDDDFED596AB4EEE67AF1EE10FA8D
:1044700057D5D4F84437564A0133C4F844370A2193
:1044800005F23C4017F08BF805F5A47014F03AFDE6
:1044900005F05CFFD4F844370A2B06DD012384F8CD
:1044A0004837E86B0221FFF72FF9002385F8FD322A
:1044B00030460FF0A9FB012384F8343702213C2356
:1044C000C4F83837C4F83C17B5F9E022B5F9203103
:1044D0009B1A0A3B07EE903AF8EEE77A04F224774B
:1044E000C7ED007AB5F9263103EBD372B5F9223165
:1044F00003EB6203B5F9E22202EBD272A3EB620393
:1045000007EE903A04F5E569F8EEE77A04F5EB6416
:1045100005F5BB53C9ED007AC4F80080C3F80080EC
:10452000C1E504F22473C3ED007A04F22C73D3EDD9
:10453000007AF1EE677AC3ED007A05F017FF04F513
:10454000E56393ED007A04F22474BDEEC77AD4EDEE
:10455000007AB1E5D4F83837002B09DD013BC4F807
:1045600038372BB9012385F8FD3230460FF04CFB6C
:10457000D4F83C17012931D1B5F9FA3003EBD372E5
:10458000B5F9F63004F5E56003EB6203B5F9E22214
:1045900002EBD272A3EB620307EE903AF8EEE77AF1
:1045A000C0ED007A2846FFF740FBC8E7AFF3008074
:1045B000DA4E4FB1DEFBFE3FDA4E4FB1DEFBFEBFFF
:1045C000CDCC4C3E000070430000704200003543EB
:1045D00074CB0208182D4454FB2109400229AED1A6
:1045E000B5F9263104F5E56003EBD372B5F9223154
:1045F000CAE700BF0022C0E90022C0E9022202741B
:1046000070470000014B02681A6070477C0300206D
:104610004160014827F0D2BB77CB020810B544684F
:104620000448631A5C425C41224627F0C7FB2046DF
:1046300010BD00BF8DCB02080023C0E90233037414
:1046400043607047704704387047704710B51021B9
:10465000044626F0A4F8204610BDA0F10400F5E7BA
:1046600000228260024A026018324260C1607047D4
:104670008CE002087047704710B5034B0360044696
:1046800003F010FD204610BDB4E0020810B504464A
:10469000FFF7F2FF204641F67C0126F080F8204625
:1046A00010BD000010B5044603F042FD014B23602D
:1046B000204610BDB4E0020803F0D3BC7047704739
:1046C000704741607047704770470123037270471D
:1046D00070477047704710B4D0E9023241685410F7
:1046E00001EB6200D20748BF0A595DF8044B48BF8E
:1046F000D35818470346406830B19A681AB9D86849
:1047000000F0010070470120704710B50C210446ED
:1047100026F045F8204610BD10B51421044626F0B9
:104720003EF8204610BD10B51021044626F037F89B
:10473000204610BD10B54FF4AE71044626F02FF898
:10474000204610BD10B513F049FA0368BDE81040CB
:10475000DB6B184710B513F041FA0368BDE8104051
:104760005B6B184713B50446807A637A0130C0B298
:104770009842A07205D9012323720023A37202B0CC
:1047800010BDB4F90C20002115F069FCC30706D553
:1047900000284FF6FF73C8BF0123184400B2144A23
:1047A000E08112880023ADF8023083B2D21AADF84E
:1047B0000020228A20829B1AADF804300D4B1B8802
:1047C000ADF8063013F00AFA036802AA1B6C12E96E
:1047D00006009847A37A012BD1D1074B1B78002BF9
:1047E000CDD013F0FBF902B0BDE8104013F0FCB9D6
:1047F0008A3F0120883F0120833F0120044B1B6832
:1048000093F85C200AB1186D00B99868704700BF32
:104810008C3F0120F8B5174604460E4613F0CAFA3D
:10482000124B1C60124B2360124B0025C4E951351A
:10483000114BC4E94F55C4E95355C4E9557618687E
:10484000036829469B689847284604F08FFAFFF7CB
:10485000D5FF1EF074F8FFF7D1FF1EF0EBF8FFF75D
:10486000CDFF1EF0F3F82046F8BD00BFDC3F01206D
:1048700004E10208ECE002088C3F0120064BC0F87E
:104880004C310023C0F8503100F5A273C0F8480144
:10489000C0F84031704700BFD14E0008064BC0F849
:1048A0004C310023C0F8503100F5A273C0F8480124
:1048B000C0F84031704700BF51540008064BC0F8A3
:1048C0004C310023C0F8503100F5A273C0F8480104
:1048D000C0F84031704700BF854D0008064BC0F856
:1048E0004C310023C0F8503100F5A273C0F84801E4
:1048F000C0F84031704700BFED520008064BC0F8C9
:104900004C310023C0F8503100F5A273C0F84801C3
:10491000C0F84031704700BF394C0008064BC0F862
:104920004C310023C0F8503100F5A273C0F84801A3
:10493000C0F84031704700BF89510008064BC0F8ED
:104940004C310023C0F8503100F5A273C0F8480183
:10495000C0F84031704700BFED4A0008064BC0F870
:104960004C310023C0F8503100F5A273C0F8480163
:10497000C0F84031704700BF25500008064BC0F812
:104980004C310023C0F8503100F5A273C0F8480143
:10499000C0F84031704700BFA549000803685B6A52
:1049A000184700002DE9F14FD0E9556A0746B06875
:1049B00003681B6A9847B0F5CC7F05D2434B444A45
:1049C000A321444827F042F8706803681B6A98479F
:1049D0000F2803D8404B3E4AA421F2E7F068036851
:1049E0001B6A98470B2803D83C4B394AA521E8E7B6
:1049F00013F0F4F8DFF8EC90043013F03AF9D9F83A
:104A0000000010B10368DB689847D9F8000010B1C6
:104A100003681B689847DFF8D080D8F8000010B111
:104A200003685B699847D7F83C0110B103685B687D
:104A30009847D8F8000010B103681B689847D7F86A
:104A40003C0110B103689B689847F0680021FFF7AC
:104A5000A5FF4FF0000B224BC0F804B080F808B05F
:104A600003600446B068036859465B6A9847054688
:104A7000FDF716FB7068036859465B6A984729463C
:104A80000646FDF7E7FA331DC7F83C61C9F8004058
:104A9000C8F80050CAF80030C6F808A02B68EE63CA
:104AA0002846DB689847336830461B68984721469C
:104AB000284615F0CEFA236820461B6998472368DC
:104AC0005B69204601B0BDE8F04F1847B7CB02083C
:104AD00045CC02081BCD02085CCD0208FFCD0208C0
:104AE00058E10208D43F0120D83F01202DE9F14FC1
:104AF000D0E9556A0746B06803681B6A984741F2D7
:104B0000FB63984205D8444B444AA321444826F00D
:104B10009DFF706803681B6A98470F2803D8414BB4
:104B20003E4AA421F2E7F06803681B6A98470B2805
:104B300003D83D4B394AA521E8E713F04FF8DFF8D9
:104B4000F090043013F095F8D9F8000010B1036824
:104B5000DB689847D9F8000010B103681B689847D4
:104B6000DFF8D080D8F8000010B103685B6998477F
:104B7000D7F83C0110B103685B689847D8F800008B
:104B800010B103681B689847D7F83C0110B103685F
:104B90009B689847F0680021FFF700FF4FF0000B7B
:104BA000224BC0F804B080F808B003600446B06837
:104BB000036859465B6A98470546FCF779FB7068BD
:104BC000036859465B6A984729460646FCF796FAF9
:104BD000331DC7F83C61C9F80040C8F80050CAF856
:104BE0000030C6F808A02B68EE632846DB689847BB
:104BF000336830461B6898472146284615F029FA45
:104C0000236820461B69984723685B69204601B0EA
:104C1000BDE8F04F184700BFB7CB0208A2CE02088C
:104C20001BCD02085CCD0208FFCD020858E1020846
:104C3000D43F0120D83F01202DE9F14FD0E9556A3A
:104C40000746B06803681B6A984741F2637398424D
:104C500005D8444B444AA321444826F0F7FE706827
:104C600003681B6A98470F2803D8414B3E4AA4218A
:104C7000F2E7F06803681B6A98470B2803D83D4B9E
:104C8000394AA521E8E712F0A9FFDFF8F0900430D7
:104C900012F0EFFFD9F8000010B10368DB68984705
:104CA000D9F8000010B103681B689847DFF8D0807E
:104CB000D8F8000010B103685B699847D7F83C0149
:104CC00010B103685B689847D8F8000010B103681A
:104CD0001B689847D7F83C0110B103689B68984758
:104CE000F0680021FFF75AFE4FF0000B224BC0F88E
:104CF00004B080F808B003600446B0680368594601
:104D00005B6A98470546FEF7C3FD7068036859461D
:104D10005B6A984729460646FEF7ECFC331DC7F848
:104D20003C61C9F80040C8F80050CAF80030C6F825
:104D300008A02B68EE632846DB6898473368304646
:104D40001B6898472146284615F083F923682046BA
:104D50001B69984723685B69204601B0BDE8F04FA6
:104D6000184700BFB7CB02087ACF02081BCD020854
:104D70005CCD0208FFCD020858E10208D43F0120B3
:104D8000D83F01202DE9F14FD0E9556A0746B068B8
:104D900003681B6A984741F61303984205D8444BB1
:104DA000444AA321444826F051FE706803681B6AF8
:104DB00098470F2803D8414B3E4AA421F2E7F068F8
:104DC00003681B6A98470B2803D83D4B394AA52135
:104DD000E8E712F003FFDFF8F090043012F049FF2B
:104DE000D9F8000010B10368DB689847D9F80000D3
:104DF00010B103681B689847DFF8D080D8F800002E
:104E000010B103685B699847D7F83C0110B103689B
:104E10005B689847D8F8000010B103681B68984792
:104E2000D7F83C0110B103689B689847F0680021EF
:104E3000FFF7B4FD4FF0000B224BC0F804B080F830
:104E400008B003600446B068036859465B6A984737
:104E50000546FDF7EBFA7068036859465B6A9847A8
:104E600029460646FDF7F2F9331DC7F83C61C9F83B
:104E70000040C8F80050CAF80030C6F808A02B68F7
:104E8000EE632846DB689847336830461B689847CE
:104E90002146284615F0DDF8236820461B6998470F
:104EA00023685B69204601B0BDE8F04F184700BF9A
:104EB000B7CB020856D002081BCD02085CCD020811
:104EC000FFCD020858E10208D43F0120D83F01205D
:104ED0002DE9F14FD0E9556A0746B06803681B6AAF
:104EE000984741F67B03984205D8444B444AA32196
:104EF000444826F0ABFD706803681B6A98470F288A
:104F000003D8414B3E4AA421F2E7F06803681B6ACC
:104F100098470B2803D83D4B394AA521E8E712F002
:104F20005DFEDFF8F090043012F0A3FED9F8000027
:104F300010B10368DB689847D9F8000010B1036826
:104F40001B689847DFF8D080D8F8000010B10368DC
:104F50005B699847D7F83C0110B103685B689847D4
:104F6000D8F8000010B103681B689847D7F83C01D7
:104F700010B103689B689847F0680021FFF70EFDA9
:104F80004FF0000B224BC0F804B080F808B003606B
:104F90000446B068036859465B6A98470546FFF7C0
:104FA00081FB7068036859465B6A98472946064644
:104FB000FFF756FB331DC7F83C61C9F80040C8F83D
:104FC0000050CAF80030C6F808A02B68EE632846E7
:104FD000DB689847336830461B6898472146284667
:104FE00015F037F8236820461B69984723685B69EA
:104FF000204601B0BDE8F04F184700BFB7CB02080C
:105000002ED102081BCD02085CCD0208FFCD02089C
:1050100058E10208D43F0120D83F012003685B6AB1
:10502000184700002DE9F14FD0E955BA0746DBF8E3
:10503000080003681B6A984741F2BB53984205D8A1
:10504000484B494AA321494826F000FDDBF80400FB
:1050500003681B6A98470F2803D8454B424AA4218E
:10506000F1E7DBF80C0003681B6A9847132803D8A4
:10507000404B3D4AA521E6E712F0B0FDDFF8009174
:10508000043012F0F6FDD9F8000010B10368DB68B7
:105090009847D9F8000010B103681B689847DFF8FB
:1050A000E480D8F8000010B103685B699847D7F82E
:1050B0003C0110B103685B689847D8F8000010B154
:1050C00003681B689847D7F83C0110B103689B68D8
:1050D0009847DBF80C000021FFF7A0FF264B036088
:1050E00014234372254B00261B8846600672867285
:1050F000C681068283810446DBF8080003683146D6
:105100005B6A98470546FBF79BFFDBF804000368E2
:1051100031465B6A984729460646FBF759FF331D1F
:10512000C7F83C61C9F80040C8F80050CAF8003020
:10513000C6F808A02B68EE632846DB6898473368FA
:1051400030461B6898472146284614F082FF2368A2
:1051500020461B69984723685B69204601B0BDE87B
:10516000F04F1847B7CB020808D202081BCD02083F
:105170005CCD0208FFCD02087CE102088A3F0120D5
:10518000D43F0120D83F01202DE9F14FD0E955BA95
:105190000746DBF8080003681B6A984741F223635F
:1051A000984205D8484B494AA321494826F04EFC6D
:1051B000DBF8040003681B6A98470F2803D8454BA7
:1051C000424AA421F1E7DBF80C0003681B6A984708
:1051D000132803D8404B3D4AA521E6E712F0FEFC18
:1051E000DFF80091043012F044FDD9F8000010B14E
:1051F0000368DB689847D9F8000010B103681B68A2
:105200009847DFF8E480D8F8000010B103685B69C4
:105210009847D7F83C0110B103685B689847D8F805
:10522000000010B103681B689847D7F83C0110B123
:1052300003689B689847DBF80C000021FFF7EEFE3F
:10524000264B036014234372254B00261B884660BF
:1052500006728672C681068283810446DBF80800E6
:10526000036831465B6A98470546FEF7E5F9DBF8C7
:105270000400036831465B6A984729460646FEF7F4
:10528000A5F9331DC7F83C61C9F80040C8F80050C3
:10529000CAF80030C6F808A02B68EE632846DB6821
:1052A0009847336830461B6898472146284614F0D3
:1052B000D0FE236820461B69984723685B69204617
:1052C00001B0BDE8F04F1847B7CB0208FCD2020886
:1052D0001BCD02085CCD0208FFCD02087CE102086C
:1052E0008A3F0120D43F0120D83F01202DE9F14F12
:1052F000D0E955BA0746DBF8080003681B6A9847EF
:1053000041F2D363984205D8484B494AA321494802
:1053100026F09CFBDBF8040003681B6A98470F2803
:1053200003D8454B424AA421F1E7DBF80C0003689F
:105330001B6A9847132803D8404B3D4AA521E6E74E
:1053400012F04CFCDFF80091043012F092FCD9F816
:10535000000010B10368DB689847D9F8000010B16D
:1053600003681B689847DFF8E480D8F8000010B1A4
:1053700003685B699847D7F83C0110B103685B6824
:105380009847D8F8000010B103681B689847D7F811
:105390003C0110B103689B689847DBF80C000021C2
:1053A000FFF73CFE264B036014234372254B002677
:1053B0001B88466006728672C68106828381044617
:1053C000DBF80800036831465B6A98470546FCF73E
:1053D000E3FEDBF80400036831465B6A9847294620
:1053E0000646FCF7A3FE331DC7F83C61C9F8004030
:1053F000C8F80050CAF80030C6F808A02B68EE6361
:105400002846DB689847336830461B689847214632
:10541000284614F01EFE236820461B69984723681F
:105420005B69204601B0BDE8F04F1847B7CB0208D2
:10543000F4D302081BCD02085CCD0208FFCD0208A0
:105440007CE102088A3F0120D43F0120D83F01209F
:105450002DE9F14FD0E955BA0746DBF8080003689B
:105460001B6A984741F67B03984205D8484B494A46
:10547000A321494826F0EAFADBF8040003681B6A16
:1054800098470F2803D8454B424AA421F1E7DBF89F
:105490000C0003681B6A9847132803D8404B3D4A09
:1054A000A521E6E712F09AFBDFF80091043012F034
:1054B000E0FBD9F8000010B10368DB689847D9F821
:1054C000000010B103681B689847DFF8E480D8F843
:1054D000000010B103685B699847D7F83C0110B130
:1054E00003685B689847D8F8000010B103681B6830
:1054F0009847D7F83C0110B103689B689847DBF8E0
:105500000C000021FFF78AFD264B03601423437231
:10551000254B00261B88466006728672C68106826D
:1055200083810446DBF80800036831465B6A9847CC
:105530000546FFF7B7F8DBF80400036831465B6AFD
:10554000984729460646FFF78BF8331DC7F83C619C
:10555000C9F80040C8F80050CAF80030C6F808A0E2
:105560002B68EE632846DB689847336830461B6833
:1055700098472146284614F06CFD236820461B6995
:10558000984723685B69204601B0BDE8F04F184793
:10559000B7CB0208E8D402081BCD02085CCD020894
:1055A000FFCD02087CE102088A3F0120D43F0120A0
:1055B000D83F01200020704781807047C18070472C
:1055C000018170474181704770477047704770474D
:1055D00070474FF6FF7383814FF0FF330362136808
:1055E000C361106070477047704700207047B1F981
:1055F00004308380012070477047704730B50368DE
:1056000085B00181D3F88430014604466846984746
:105610009DE807003C3484E8070005B030BD30B594
:10562000036885B04181D3F884300146044668465A
:1056300098479DE807003C3484E8070005B030BD7A
:105640000022028042808280C280704780F836103B
:10565000704770B5036804461B6B1546984723686E
:10566000294620465B6EBDE8704018470020704711
:10567000806C704770477047704710B5082104462A
:1056800025F08DF8204610BD10B54C21044625F0BC
:1056900086F8204610BD10B52C21044625F07FF871
:1056A000204610BD0B898A89D21A4B89C988591A9C
:1056B00012B209B213F0A2BC10B5034B036004464A
:1056C00010F080FC204610BDC8E2020810B5064B61
:1056D0000360044610F076FC204641F2B85125F0F4
:1056E0005EF8204610BD00BFC8E2020890F82520F1
:1056F00012B103685B691847704708B590F8263007
:105700000BB1FFF7F3FF08BD08B5FFF7EFFF08BDCA
:1057100090F825201AB190F8242002B11860704743
:1057200070B503685E6B124B1B6804468DB22BB9D3
:10573000104B114A6C21114826F088F91049828DCE
:105740000988914203D80F4B0B4A6D21F3E713F8F8
:1057500012200D4B1B6853F8220003681B6B9847FF
:10576000291A3346204609B2BDE87040184700BFE9
:10577000EC3F0120D4D5020816D6020851D6020803
:10578000E03F012092D60208E43F012010B500F569
:105790008054D4F8B4350133B42BC4F8B43506D1F1
:1057A00012F01CFAFFF7CAF80023C4F8B43510BD94
:1057B00000224FF0FF31C0E900218260704770B5D0
:1057C000036804461B6B1546984723682946204604
:1057D0005B6BBDE87040184770B504461D46BDF9C7
:1057E0001060FFF7ECFF2368294620469B6B984723
:1057F000236831462046DB6BBDE870401847000047
:105800004FF480714162084901600022FF21C0E924
:105810000122C0E90322C0E90522C0E9072280F87D
:1058200026108262704700BFC0EE020870B50023E8
:10583000124E8380124B0360336893F85C20054658
:105840000AB1186D00B9986803681B6B98473368F4
:10585000B0FA80F4186D640930B103681B6B984787
:10586000002808BF44F001042CB9064B064A07483B
:105870002C2126F0EBF8284670BD00BF8C3F01209C
:10588000A0E10208D0D602082ED7020867D7020886
:105890004FF4807141620D4901600D4981624FF6FC
:1058A000FF7181854FF47F01002241634FF0FF318A
:1058B000C0E90122C0E90322C0E90522C0E90722AC
:1058C000C0E9101202630287C263704730EE02081B
:1058D000C0E102082DE9F04F04468BB027464FF097
:1058E000000B14F01BFAD64BC4F83CB047F8403B11
:1058F00004F16C063846FFF783FF04F19808304640
:10590000FFF77EFF4046FFF77BFF04F1C400FFF77F
:1059100077FF04F1F0000DF0B5FC04F59C70FFF783
:1059200085FFC84BC4F838312433C4F84031C64D24
:10593000C4F844B14FF0010904F5A670FFF760FF09
:1059400004F5D27AC4F84C5184F8709104F5BC7017
:10595000FFF756FFC4F8785184F89C915046FFF742
:1059600097FF04F5F670FFF793FF04F50D731846E3
:10597000B64D0393FFF78CFF04F52073C4F834523F
:105980001846C4F87CB20393FFF782FF04F58053F6
:10599000C4F88052C4F8C8B2F025C3F8B4B54FF4C7
:1059A000965104F53D7010F003FB5A4638460095B9
:1059B0004FF4A073594604F10409FFF70DFF4FF0AF
:1059C0007F433946A36648460AF0C7FD4FF0FF37CC
:1059D0004FF4A0735A46304600955946FFF7FCFE37
:1059E0003146C4F8947048460AF0B7FD0222EC2311
:1059F0001146404600934FF49F73FFF7EDFE944B22
:105A0000C4F8C030414648460AF0A7FD5A46009502
:105A10000323A02104F1C400FFF7DEFEDC23C4F859
:105A2000EC7084F8EA3004F1C40148460AF095FDB0
:105A30000E237222601900939B21FFF7CDFEC02335
:105A4000C4F824314FF43453C4F82C31814BC4F8DA
:105A5000443149F66103A4F8483104F59C73611997
:105A6000C4E94755C4F8183128254846C4F830B170
:105A7000C4F828B10AF071FD0523642200950821BD
:105A800004F5A670FFF7A8FEC4F8747104F5A671BA
:105A900048460AF062FD0523642200954FF49A718E
:105AA00004F5BC70FFF798FE4FF03408C4F8A071FD
:105AB00004F5BC71484604AD0AF04FFD13235F2284
:105AC0005046CDF800807421FFF786FE5146C4F899
:105AD000D4712846A4F8D8B10EF03EFD95E8070031
